:1000000000200020F9000000812800004D28000099
:100010004D2800004D2800004D2800004D2800000C
:100020004D2800004D2800004D28000081280000C8
:10003000812800004D280000812800003D28000094
:10004000812800008128000081280000812800000C
:1000500081280000812800008128000081280000FC
:10006000812800008128000081280000FD23000075
:1000700081280000812800008128000081280000DC
:10008000B1400000812800009D460000812800004A
:100090003D4B0000812800008128000081280000DD
:1000A00081280000812800008128000081280000AC
:1000B000812800008128000081280000812800009C
:1000C000812800008128000081280000952D000073
:1000D000812800008128000081280000812800007C
:1000E000812800008128000081280000812800006C
:1000F0008128000081280000544B4CF2205210B59A
:100100001A804DF628121A8000BF00BF02F0BCFB17
:100110004F4B504A1A60504A5A60A3F53043283B6F
:100120001A6812F4807204D14C490A604FF4A85244
:100130001A604B4B1A78110703D51A7842F008025F
:100140001A70484B2A221A700023474A47499818C8
:10015000884204D24649595899500433F5E7454A34
:10016000454B9A424FF0000302D242F8043BF7E7B6
:100170004249434A595899500433F82BF8D1414B1E
:10018000802103F8011B40498B42F9D13F4B1A6093
:100190003F4B8A221A70A3F5805324225A70A02262
:1001A0001A709A799207FCD59A79D406FCD4394B07
:1001B0009A7902F00C02082AF9D103221A7140221E
:1001C0005A719A799006FCD5324B9A795106FBD533
:1001D000314A324911600221516020221A702D4BA0
:1001E0009B7903F00C030C2BF9D12D4B2D4A1A608F
:1001F0002D4B2E4A1A6000225A60072243F8042C25
:100200002B4AC3F80C2D62B602F0B2FC134B1B68EC
:10021000DA0705D5274802F0FBFB274B274A1A606F
:10022000274B1B785B0609D5234C244A236893424D
:1002300004D1204802F0ECFB0023236004F0B6FE5A
:1002400002F028FB03F050FAFEE700BF0E20054045
:1002500038800440823F04000100002B14D003408A
:1002600002D0074000E0074060E5FF1F84E8FF1F61
:10027000AC56000084E8FF1FC8ECFF1F0000000020
:1002800000E1FF1F00E400E02EE400E008ED00E0E4
:100290000050064000400640448004400000030136
:1002A00004800440C010050014E000E0FF76010067
:1002B0000000202009689F041CE00340A5C3945A55
:1002C00000F00740FFFFFFFFFFFFFFFFFFFFFFFF03
:1002D000FFFFFFFFFFFFFFFFFFFFFFFFFFFFFFFF2E
:1002E000FFFFFFFFFFFFFFFFFFFFFFFFFFFFFFFF1E
:1002F000FFFFFFFFFFFFFFFFFFFFFFFFFFFFFFFF0E
:10030000FFFFFFFFFFFFFFFFFFFFFFFFFFFFFFFFFD
:10031000FFFFFFFFFFFFFFFFFFFFFFFFFFFFFFFFED
:10032000FFFFFFFFFFFFFFFFFFFFFFFFFFFFFFFFDD
:10033000FFFFFFFFFFFFFFFFFFFFFFFFFFFFFFFFCD
:10034000FFFFFFFFFFFFFFFFFFFFFFFFFFFFFFFFBD
:10035000FFFFFFFFFFFFFFFFFFFFFFFFFFFFFFFFAD
:10036000FFFFFFFFFFFFFFFFFFFFFFFFFFFFFFFF9D
:10037000FFFFFFFFFFFFFFFFFFFFFFFFFFFFFFFF8D
:10038000FFFFFFFFFFFFFFFFFFFFFFFFFFFFFFFF7D
:10039000FFFFFFFFFFFFFFFFFFFFFFFFFFFFFFFF6D
:1003A000FFFFFFFFFFFFFFFFFFFFFFFFFFFFFFFF5D
:1003B000FFFFFFFFFFFFFFFFFFFFFFFFFFFFFFFF4D
:1003C000FFFFFFFFFFFFFFFFFFFFFFFFFFFFFFFF3D
:1003D000FFFFFFFFFFFFFFFFFFFFFFFFFFFFFFFF2D
:1003E000FFFFFFFFFFFFFFFFFFFFFFFFFFFFFFFF1D
:1003F000FFFFFFFFFFFFFFFFFFFFFFFFFFFFFFFF0D
:10040000FFFFFFFFFFFFFFFFFFFFFFFFDEF9FFFF23
:1004100010B5054C237833B9044B13B10448AFF33E
:1004200000800123237010BD84E8FF1F000000003E
:10043000AC56000008B5064B1BB106480649AFF3A1
:1004400000800648036813B1054B03B1984708BD07
:1004500000000000AC56000088E8FF1F84E8FF1F82
:100460000000000038B5044608460D4604F086FE3C
:10047000236802465B6820462946984738BD08B580
:10048000FFF7F0FF08BD38B50446FFF7EBFF054660
:10049000204603F063F9284438BD38B5044603F01C
:1004A000A5F90546204603F059F9284438BDFFFF59
:1004B00010B5424801F09AFD01F090FD022814BFEA
:1004C0003F4940494048FFF7DEFF0C20012102F080
:1004D000DDFA0C20012102F0ABFA0B20012102F021
:1004E000D5FA0B20012102F0A3FA0A20012102F023
:1004F000CDFA0A20012102F09BFA0920012102F025
:10050000C5FA0920012102F093FA0820012102F026
:10051000BDFA0820012102F08BFA0720012102F028
:10052000B5FA0720012102F083FA0420022102F02B
:10053000ADFA0620022102F0A9FA2448062101F0B2
:1005400073F92248322101F087F91620022102F0C6
:100550009DFA1F48162101F067F91D48322101F06C
:100560007BF91520022102F091FA1A48152101F0B9
:100570005BF91848322101F06FF91720022102F0CF
:1005800085FA1548172101F04FF91348322101F07F
:1005900063F90520022102F079FA1048052101F0E3
:1005A00043F90E48322101F057F90D48102102227B
:1005B0000023BDE8104001F0ABBA00BFE119000014
:1005C0000E5200002A520000E0EAFF1FB8E8FF1FA9
:1005D000ACE8FF1FC0E8FF1FC8E8FF1FD0E8FF1FFF
:1005E00034E9FF1F08B50E4801F084F918B10D4B2E
:1005F0001A68002A08DC0C4801F07CF978B1094B34
:100600001A68032A06DD08BD013A1A60074B00226A
:100610001A70F0E701321A60044B00221A7008BD0C
:10062000C0E8FF1F24E9FF1FC8E8FF1F15E9FF1FEF
:100630000138034B53F82020643A43F820207047D8
:1006400050E6FF1F30B5284D8DB068462C2103F0D1
:1006500078F9296864240A22B1FBF4F108A803F0B0
:1006600050F9694608A803F0B7F96968B1FBF4F1DD
:1006700003F0BBF9694603F0AFF9A968B1FBF4F1E7
:1006800003F0B3F9694603F0A7F9E968B1FBF4F1A7
:1006900003F0ABF9694603F09FF92969B1FBF4F166
:1006A00003F0A3F9114C014604A803F00FF908A8C0
:1006B00003F0C4F820460022042101F00CFA204681
:1006C0000B49FFF7DCFE01222046032101F003FA6B
:1006D00004A9204603F021F804A803F0AFF8684607
:1006E00003F0ACF80DB030BD50E6FF1F34E9FF1F3A
:1006F0004652000010B5184C0121082002F098F96C
:10070000206802F01FFA0121092002F091F96068C7
:1007100002F018FA01210A2002F08AF9A06802F01A
:1007200011FA01210B2002F083F9E06802F00AFAC5
:1007300001210C2002F07CF92069084C02F002FA39
:10074000074B002220460B211A7001F0C4F9204605
:100750000449FFF794FE10BD50E6FF1F34E9FF1F68
:1007600014E9FF1F4F52000008B50720012102F0D5
:100770005FF9024B00221A7008BD00BFA0E8FF1FFE
:1007800010B51B4C00210C2002F052F9206802F039
:10079000D9F900210B2002F04BF9606802F0D2F980
:1007A00000210A2002F044F9A06802F0CBF90021F0
:1007B000092002F03DF9E06802F0C4F900210820A8
:1007C00002F036F920690B4C02F0BCF90A4B012209
:1007D0001A70204600220B2101F07DF920460749BE
:1007E000FFF74DFE06490748FFF74DFE10BD00BF5D
:1007F00050E6FF1F34E9FF1F14E9FF1F52520000AB
:1008000055520000E0EAFF1F08B50720002102F062
:100810000FF9024B01221A7008BD00BFA0E8FF1FAC
:1008200070B5044601F0E2FA7B4B1A6890421E460E
:100830000EDB204601F0DAFA784B1B68984207DCA1
:10084000774B1B7823B9774B1B78002B00F0D680B1
:100850002046754D01F0CAFA2A68904211DB204605
:1008600001F0C4FA714B1B6898420ADC6C4B1B7890
:100870003BB16F4B1B7823B96A4B1B78002B00F000
:10088000C080204601F0B2FA2A6890421ADB204666
:1008900001F0ACFA654B1B68984213DC042002F0AF
:1008A000E7F801280ED15F4B1B785BB95C4B1B78D6
:1008B0000BB9FFF765FF5F4B1A685F4B1A605C4B23
:1008C00001221A70204601F091FA336898420EDB3B
:1008D000204601F08BFA514B1B68984207DC574BBE
:1008E0001B7823B9564B1B78002B00F08D802046D7
:1008F00001F07CFA2B68984210DB204601F076FA72
:100900004A4B1B68984209DC4C4B1B7833B14D4B6A
:100910001B781BB94A4B1B78002B78D0204601F07E
:1009200065FA2B6898421ADB204601F05FFA3F4BCC
:100930001B68984213DC042002F09AF801280ED1BB
:100940003F4B1B785BB93D4B1B780BB9FFF75CFF46
:10095000384B1A68384B1A603A4B01221A703A48E1
:1009600000F0C8FF10B32F4B2D4A1978304C1D46AC
:1009700051B1137813B1FFF7BDFE01E0FFF700FF9F
:1009800000232B70237011E001211970294B196885
:100990002E4B1960137813B1FFF7ACFE01E0FFF79F
:1009A000EFFE002323702A4B01221A70294800F021
:1009B000A1FF78B3224B214A1978224C1D4651B130
:1009C000137813B1FFF7D0FE01E0FFF71DFF0023FE
:1009D0002B70237070BD01211970164B19681E4BC6
:1009E0001960137813B1FFF7BFFE01E0FFF70CFFAA
:1009F00000232370194B01221A7070BDFFF7C0FE4F
:100A000026E7FFF777FE3CE7FFF7FEFE6FE7FFF70D
:100A1000ABFE83E770BD00BF4CE6FF1F68E6FF1F1B
:100A200014E9FF1FB4E8FF1FD8E8FF1F7CE6FF1F93
:100A3000A8E8FF1F54E9FF1F10E9FF1FA0E8FF1FF0
:100A400028E9FF1F2AE9FF1FB8E8FF1FA4E8FF1FDE
:100A5000A1E8FF1FD0E8FF1F50E9FF1F30E9FF1F8B
:100A6000092810B5044604DC0548036830211B68DA
:100A7000984721460248BDE8104002F0B7BE00BFCB
:100A800034E9FF1F70B51F4D1F4E00210A46044672
:100A9000284601F020F8204601F0A8F9FFF7E0FF12
:100AA00031462846FFF7EBFC204601F0A7F9FFF797
:100AB000D7FF31462846FFF7E2FC204601F0A6F9B1
:100AC000FFF7CEFF01220321284601F004F80F4E64
:100AD000204601F0A3F9FFF7C3FF31462846FFF790
:100AE000CEFC204601F0AAF9FFF7BAFF31462846AE
:100AF000FFF7C5FC204601F0A9F9BDE87040FFF7FB
:100B0000AFBF00BF34E9FF1F615200006352000015
:100B100038B5114C00210A46204600F0DCFF0F4991
:100B20002046FFF7ACFC0E4B18684EF66025B0FB74
:100B3000F5F0FFF795FF20460021012200F0CBFFE2
:100B400020460849FFF79BFC074B1868B0FBF5F0FF
:100B5000BDE83840FFF784BF34E9FF1F655200004D
:100B600064E6FF1F6D52000080E6FF1F10B5134CB6
:100B700000222046042100F0AEFF20461049FFF776
:100B80007EFC01222046022100F0A5FF0D492046EF
:100B9000FFF775FC0C4B1868FFF762FF20460B4906
:100BA000FFF76DFC20460A49FFF769FC094B1868FE
:100BB000BDE810400130FFF753BF00BF34E9FF1F0D
:100BC00077520000815200004CE6FF1F8552000062
:100BD0008852000068E6FF1F10B5124C0022204624
:100BE000052100F078FF20460F49FFF748FC01225D
:100BF0002046022100F06FFF0C492046FFF73FFC22
:100C00000B4B1868FFF72CFF20460A49FFF737FC0B
:100C100020460949FFF733FC084BBDE8104018682F
:100C2000FFF71EBF34E9FF1F8C5200008152000005
:100C3000D8E8FF1F85520000885200007CE6FF1FA5
:100C4000012870B53ED100249A4800F007FE9A486A
:100C500000F004FE994800F001FE994801F01EF8EA
:100C6000944800F047FE08B184F00104944814B998
:100C70000821224601E00A21012200F02CFF8D48C4
:100C800000F024FE10B18F4B00221A70894800F04A
:100C900019FE002840F0E080864800F01FFEB0F505
:100CA000FA6F40F2D980874E3578002D40F0D4801D
:100CB000854B83481D60854B01221A7000F0E4FFCC
:100CC000357070BD022834D100247A4800F0C6FD8A
:100CD000794800F0C3FD794800F0C0FD784800F085
:100CE000DDFF744800F006FE08B184F0010474488A
:100CF0000CB9062100E00D21012200F0ECFE6D4848
:100D000000F0E4FD10B16F4B00221A70694800F04A
:100D1000D9FD002840F08181664800F0DFFDB0F584
:100D2000FA6F40F27A81674B1D78002D40F0758193
:100D300061E1032834D100245E4800F08FFD5E4855
:100D400000F08CFD5D4800F089FD5D4800F0A6FFD5
:100D5000584800F0CFFD08B184F0010458480CB9A0
:100D6000062100E00D21012200F0B5FE514800F0FF
:100D7000ADFD10B1534B00221A704E4800F0A2FD99
:100D8000002840F01E824B4800F0A8FDB0F5FA6F35
:100D900040F217824B4B1B78002B40F012821CE272
:100DA000042840F0E9820124424800F057FD4248FF
:100DB00000F054FD414800F051FD414800F06EFF45
:100DC00001343C4800F096FD022C02D13C4805213C
:100DD0000DE0032C02D13A48072108E0042C02D18F
:100DE0003748092103E0052C04D135480B210122A5
:100DF00000F071FE2F4800F069FD10B1314B002268
:100E00001A702C4800F05EFD60B92A4800F066FDBB
:100E1000B0F5FA6F06D92B4B1B781BB9A2E2022062
:100E2000FFF706FC244800F065FD0028BCD0A31E97
:100E3000032BF7D801A252F823F000BF1F0E0000C9
:100E40004D0E0000510E0000550E00000320E7E794
:100E50000420E5E70520E3E7174800F04BFD40B12B
:100E60003CB9154800F03AFDB0F5FA7F01D2184BB5
:100E70000BE0114800F03EFD80B17CB10E4800F05F
:100E80002DFDB0F5FA7F09D2124B1A68002A3ED028
:100E9000A2F56A42603A1A60FFF73AFE064800F08F
:100EA00011FD70BB6CBB044800F018FDB0F57A7FF3
:100EB00030D826E0ACE8FF1FC0E8FF1FC8E8FF1FDE
:100EC00034E9FF1F29E9FF1F18E9FF1FDCE8FF1FB6
:100ED00064E6FF1F80E6FF1F9CB3924800F0FEFC13
:100EE000B0F57A7F2DD9904B1A6832BB4EF660224E
:100EF0001A60FFF70DFEFA2001F024FE894800F089
:100F0000ADFC884800F0DEFC0028E5D019E04EF684
:100F10006022C0E7854B1A6812B94EF6602202E0E3
:100F2000A2F56A42603A1A60FFF7F2FDFA2001F07A
:100F300009FE7C4800F092FCB0E7A2F56A42603AF4
:100F4000D6E77B4800F0D6FC40B13CB9784800F0C9
:100F5000C5FCB0F5FA7F01D2744A35E0744800F060
:100F6000C9FC30B12CB1724800F0B8FCB0F5FA7F82
:100F700029D36F4800F0A6FC30B92CB96C4800F0BA
:100F8000ADFCB0F57A7F27D8694800F09BFC0028BB
:100F90007FF45AAE002C3FF457AE654800F09EFC3B
:100FA000B0F57A7F7FF650AE5F4A136803F56A4367
:100FB00060331360FFF7ACFDFA2001F0C3FD5C481D
:100FC00000F04CFCE0E7584A136803F56A436033CD
:100FD0001360FFF79DFDCCE7544A136803F56A439D
:100FE00060331360FFF794FDFA2001F0ABFD504829
:100FF00000F034FCBDE74F4B4F481D604F4B0122C2
:101000001A7000F041FE4E4B1A684E4B172A01D160
:101010001D6070BD01321A6070BD424800F06AFC6C
:1010200000B124B13F4800F065FC40B915E03D48EF
:1010300000F054FCB0F5FA7FF4D2434B07E064B102
:10104000384800F04BFCB0F5FA7F06D23C4B1A68EA
:101050004AB3013A1A60FFF789FD324800F032FCCA
:10106000D8B9D4B92F4800F039FCB0F57A7F1CD834
:1010700013E054B32B4800F031FCB0F57A7F24D94B
:101080002F4B1A686ABB17221A60FFF76FFDFA2010
:1010900001F058FD234800F0E1FB224800F012FC6B
:1010A0000028E6D011E01722D4E7274B1A680AB9C6
:1010B000172200E0013A1A60FFF758FDFA2001F00C
:1010C00041FD184800F0CAFBC7E7194800F012FCC0
:1010D00048B144B9164800F001FCB0F5FA7F0ED3D0
:1010E00001E0013AD0E7124800F004FC70B16CB1A5
:1010F0000F4800F0F3FBB0F5FA7F48D306E0124B3F
:101100001A68172A40DD1C60FFF730FD084800F020
:10111000D9FB90BB8CBB064800F0E0FBB0F57A7FB2
:101120003BD82AE0C0E8FF1F80E6FF1F64E6FF1FF0
:10113000C8E8FF1F18E9FF1F34E9FF1FDCE8FF1FA5
:1011400068E6FF1FD8E8FF1F4CE6FF1F002C3FF4A6
:10115000BCAD8A4800F0C2FBB0F57A7F7FF6B5AD32
:10116000874B1A68172A29DD1D60FFF7FFFCFA205C
:1011700001F0E8FC814800F071FB804800F0A2FB20
:1011800005460028E2D0A0E501321A60BCE77C4B9E
:101190001A68172AF8DD0022F7E77A4B1A68172A2F
:1011A00001DD1C6001E001321A60FFF7DFFCFA206C
:1011B00001F0C8FC714800F051FBA7E701321A604A
:1011C000D3E7714800F096FBC0B1BCB96E4800F09F
:1011D00085FBB0F5FA7F1DD310E06C4A6C481360B4
:1011E0006C4B01221A7000F04FFD6B4B644A1B6878
:1011F0000BB9172300E0013B136070BD624800F09B
:1012000079FB70B16CB1604800F068FBB0F5FA7F13
:101210002DD306E0604B1A685AB3013A1A60FFF703
:10122000DBFC594800F04EFBD8B9D4B9564800F061
:1012300055FBB0F57A7F1ED813E074B3524800F026
:101240004DFBB0F57A7F28D9544B1A681ABB172288
:101250001A60FFF7C1FCFA2001F074FC4A4800F064
:10126000FDFA494800F02EFB0028E6D015E04B4B74
:10127000D1E71722D2E7484B1A680AB9172200E0D3
:10128000013A1A60FFF7A8FCFA2001F05BFC3E4827
:1012900000F0E4FAC5E7013ADAE7384800F02AFB43
:1012A00088B184B9354800F019FBB0F5FA7F0AD24D
:1012B000394B1A68172A01D11C6001E001321A600B
:1012C000FFF78AFC04E02D4800F014FB00B14CBB92
:1012D0002A4800F0F7FAF0B9ECB9284800F0FEFA15
:1012E000B0F57A7F2AD816E0002C3FF425AD2348CC
:1012F00000F0F4FAB0F57A7F7FF61EAD274B1A683E
:10130000172A2CD11D60FFF767FCFA2001F01AFCA8
:101310001A4800F0A3FA194800F0D4FA054600284C
:10132000E2D009E5154800F0D9FAB0F5FA7FCFD23E
:101330001A4B1A68172AC1D10022C0E7164B1A6847
:10134000172A01D11C6001E001321A60FFF744FC4A
:10135000FA2001F0F7FB094800F080FAB8E7013203
:101360001A60D0E7094A0A4813600A4B0122BDE817
:1013700070401A7000F088BC70BD00BFC8E8FF1F45
:1013800068E6FF1F4CE6FF1FC0E8FF1F18E9FF1FBC
:1013900034E9FF1FDCE8FF1FD8E8FF1F7CE6FF1FD2
:1013A0002DE9F04F9648974E974C984D984FDFF89F
:1013B000EC82DFF8EC92DFF8C8B2DFF8CCA285B09F
:1013C00002F0CCF900F0CAFD924A30600146924822
:1013D00000F0C6FE2060914800F040FA904800F00E
:1013E0003DFA904800F03AFA8F4800F037FA8F48FB
:1013F00000F034FA8E4B20681B680393039B2B602C
:10140000FFF70EFA8B497E48FFF739F839787C48A8
:10141000FFF743F888497A48FFF731F8874B784857
:1014200019780193FFF739F885497548FFF727F8D0
:1014300098F800107248FFF730F882497048FFF7BB
:101440001EF899F800106E48FFF727F87E496C489F
:10145000FFF715F87D4A6A481168FFF71EF87C49C6
:101460006748FFF70CF898F800106548FFF715F883
:1014700078496348FFF703F83068774E00F0B6FC10
:1014800001465F48FFF709F874495D48FEF7F7FF2A
:10149000206800F0ABFC01465948FEF7FEFF70499A
:1014A0005748FEF7ECFF9BF800105548FEF7F5FF94
:1014B0006C495348FEF7E3FF31785148FEF7EDFFE2
:1014C00069494F48FEF7DBFFDAF800104C48FEF799
:1014D000E4FF66492A680868019B101A644A11688B
:1014E00088422C4692461D4615D33B789BB1614BF2
:1014F0001A7832B10193FFF7FDF8019B00221A70B0
:1015000007E098F8003013B1FFF7F4F801E0FFF7B7
:1015100037F900233B70584B21681A68574F891AD6
:101520003A689142984607D39BF8003023B1FFF701
:10153000E1F8534B00221A70524A236812689B1A32
:10154000DAF80020934216D32B78A3B1DFF854A128
:101550009AF800302BB1FFF707F900238AF8003022
:1015600007E099F8003013B1FFF7FEF801E0FFF74C
:101570004BF900232B70D8F800302268D21A3B6850
:101580009A4206D3337823B1FFF7EEF8324B0022AC
:101590001A703D4A1368042B00F2F180DFE803F073
:1015A0000312849FB800184B384C1868FFF76AFA8A
:1015B000237823B9364800F084FA01232370FFF71B
:1015C00011F8DCE0314C237833B9314800F079FA76
:1015D000FFF79EFA0123237011482E4C00F072F998
:1015E000002840F0AD800E4800F078F9B0F5FA6FB1
:1015F00040F2A680284B1B78002B00F0B1809FE0C2
:10160000E0EAFF1F1CE9FF1F20E9FF1F54E9FF1F4D
:10161000B4E8FF1F2CE9FF1FE0E8FF1FB8E8FF1F39
:10162000ACE8FF1FC0E8FF1FC8E8FF1FD0E8FF1F9E
:10163000E8E9FF1F94520000A552000028E9FF1FAF
:10164000BB520000B6520000C95200004CE6FF1F1A
:10165000D7520000E55200002AE9FF1FF0520000B7
:10166000FC5200000953000016530000A4E8FF1FBD
:1016700080E6FF1FA1E8FF1F10E9FF1F64E6FF1FC0
:10168000A8E8FF1F50E9FF1F24E9FF1F15E9FF1F0E
:1016900034E9FF1F18E9FF1FDCE8FF1F14E9FF1FF3
:1016A000A0E8FF1F30E9FF1F364C237833B93648D6
:1016B00000F007FAFFF75AFA012323703348344C3D
:1016C00000F000F900283BD1304800F007F9B0F5F0
:1016D000FA6F35D92F4B1B78002B46D030E0294CC0
:1016E000237833B9284800F0ECF9FFF775FA0123A5
:1016F00023702648264C00F0E5F808BB234800F08C
:10170000EDF8B0F5FA6F1BD9224B1B787BB317E0CD
:101710001C4C237833B91C4800F0D3F9FEF792FF34
:101720000123237019481A4C00F0CCF840B917482F
:1017300000F0D4F8B0F5FA6F02D9164B1B78C3B19C
:101740002068002802DDFFF77BFA01E0FEF74AFF80
:101750000E4800F0BBF890B10E4B00221A700EE05C
:101760000D4A012323601370EAE7022302E00323FA
:1017700000E004232360084B01221A70E0E705B063
:10178000BDE8F08F15E9FF1F34E9FF1FACE8FF1F2C
:1017900018E9FF1FDCE8FF1F29E9FF1F30B5154BD3
:1017A000154C0FCB87B001AD85E80F00E3680093BF
:1017B000124894E80E0000F027FC0F210E220D23A2
:1017C0008DE80E000E4814211122102300F03AFA81
:1017D0000C4800F021F80C4800F01EF80B4800F00F
:1017E0001BF80B4800F018F80A4807B0BDE8304075
:1017F00000F012B83CE6FF1F6CE6FF1FE0E8FF1F99
:1018000034E9FF1FB8E8FF1FACE8FF1FC0E8FF1F67
:10181000C8E8FF1FD0E8FF1F00220A210260818074
:101820008271C2717047FFFF37B5CDB20446C571F2
:10183000284601F01DF90023A371284601F018F98C
:1018400008B10323A371034B1B680193019B236021
:1018500003B030BDE8E9FF1F818070477FB50446C3
:10186000C07901F005F9A1790030C1F3400218BF39
:10187000012001F0F7039042A371114A06D01268CB
:101880000192019A226083F0020313E01568029529
:10189000029E2568751BA688B5420CD301F0010194
:1018A000814208D012680392039A226083F00103F8
:1018B00043F00803A371A079C0F3C00004B070BD69
:1018C000E8E9FF1F807900F001007047807900F09F
:1018D0000900B0F10903584258417047044B0068B1
:1018E0001B6882B00193019B181A02B0704700BFB9
:1018F000E8E9FF1F807900F00900B0F108035842C1
:1019000058417047030903EB830300F00F0000EB1D
:101910004300C0B27047FFFF014800F02BBD00BF7D
:10192000D0E9FF1F38B5682104462B4800F0DFFEE0
:101930000021294800F052FC274800F0DBFE274B2D
:10194000054610B10020187038BD01221A706821B8
:101950000722214800F0C6FE1F4800F05DFC062863
:1019600038DD1D4800F062FC054600F07F00FFF7FF
:10197000C9FF2070184800F059FCC0B2FFF7C2FF41
:101980006070154800F052FC00F03F00FFF7BAFF0E
:10199000A070114800F04AFCC0B2FFF7B3FFE0703E
:1019A0000D4800F043FCC0B2FFF7ACFF20710A48BD
:1019B00000F03CFCC0B2FFF7A5FF6071064800F0E4
:1019C00035FCC0B2FFF79EFF1E30A071E843C0F3A4
:1019D000C01038BD284638BDD0E9FF1F58E9FF1FA9
:1019E00007B56846FFF79EFF10B1684600F038FA69
:1019F00003B05DF804FB38B5002104462025C0790A
:101A000001F016F82B46013B7FF4FDAF0121E07990
:101A100001F00EF8013D7FF4FDAF0021E07901F007
:101A200007F84FF44863013B7FF4FDAF38BD70B554
:101A300005460E4600242B1946FA04F1187A01F0E7
:101A40000101013400F0F4FF042CF4D12846BDE874
:101A50007040FFF7D0BF70B505460E4600242B1925
:101A600046FA04F1187A01F00101013400F0E0FFB8
:101A7000082CF4D12846BDE87040FFF7BCBF38B54C
:101A800004460D464079114600F0D2FFA079FF28A8
:101A900002D0002100F0CCFF237CDB06204604D5D9
:101AA0002946BDE83840FFF7D6BF2909FFF7BFFF39
:101AB00020462946BDE83840FFF7B9BF0022FFF7AE
:101AC000DEBF08B50121FFF7F9FF4FF47A43013B70
:101AD0007FF4FDAF08BD08B5037D032A28BF0322AC
:101AE0009A4224BF03F1FF32D2B20244537D19441B
:101AF00061F07F01C9B2FFF7E1FF08BD08B5417C85
:101B000041F00402427441F00C01FFF7D7FF08BD19
:101B1000012A38B5044603D9007C40F0080020743F
:101B2000002060754020E17501442275A075217682
:101B30002BB1012A03D1237C43F004032374607981
:101B4000012100F0A3FFA079FF2802D0012100F0BD
:101B50009DFFE079012100F099FF0025237C13F01F
:101B6000100F0CBF042308239D4206DA63190121DC
:101B7000187A00F08BFF0135F0E7304B013B7FF422
:101B8000FDAF0021607900F053FFE079002100F003
:101B90004FFFA079FF2802D0002100F049FF217CEF
:101BA000274D11F0100F20461BD10321FFF73FFFF7
:101BB0002B46013B7FF4FDAF03212046FFF737FFA3
:101BC000013D7FF4FDAF03212046FFF730FF4FF4C6
:101BD0009653013B7FF4FDAF02212046FFF727FF1C
:101BE00017E041F02001FFF769FF013D7FF4FDAFF1
:101BF000217C204641F02001FFF760FF4FF496530F
:101C0000013B7FF4FDAF217C204641F02001FFF72E
:101C100055FF217C204641F02001FFF74FFF0423B0
:101C200063742046FFF76AFF2046FFF74AFF02234E
:101C3000A37420460621FFF741FF38BD006A180053
:101C40008032020070B503729DF8103043729DF827
:101C500014304171002583720A4E9DF818300571C9
:101C6000FF21044606608171C271C372057345731A
:101C70008573C5730574102101222B46FFF748FFB9
:101C8000204670BD3053000008B5417C01F0FD01D5
:101C9000417441F00801FFF711FF08BD08B5417C10
:101CA00041F00202427441F00A01FFF707FF08BD4C
:101CB00008B50122FFF7E3FE012008BD3C23B0FB7D
:101CC000F3F203FB12000870B2FBF3F003FB1023E6
:101CD0004B701823B0FBF3F203FB12008870131D46
:101CE0000720B3FBF0F0C0EBC0001B1AF0B50133C6
:101CF0000024CB702046E7B207F2B27313F003065C
:101D000012D1642593FBF5FC05FB1C357DB94FF41E
:101D1000C87593FBF5FC05FB1C35002D40F26D15D5
:101D200008BF4FF4B77504E040F26D1501E04FF4C1
:101D3000B7752844904204F10104DCD98F7196B93B
:101D4000642493FBF4F504FB15347CB94FF4C87498
:101D500093FBF4F504FB1534002C40F26D1408BF1E
:101D60004FF4B77404E040F26D1401E04FF4B7741F
:101D7000041B141B642293FBF2F702FB17374FF48A
:101D8000C87293FBF2F002FB10330022D5B2012D92
:101D900006D146B94FB9002B0CBF1D201C2005E011
:101DA0000948105C02E01C2000E01D20844205D39D
:101DB00001320C2AC0EB0404E8D115460135013488
:101DC0004D710C71F0BD00BF3853000038B5054CA3
:101DD00023689842054603D00349FFF76FFF25604B
:101DE00038BD00BF5CE9FF1F60E9FF1F08B5FFF7C2
:101DF000EDFF014B987808BD60E9FF1F08B5FFF7BC
:101E0000E5FF014B587808BD60E9FF1F08B5FFF7F3
:101E1000DDFF014B187808BD60E9FF1F08B5FFF72B
:101E2000D5FF014B187908BD60E9FF1F08B5FFF722
:101E3000CDFF014BD87808BD60E9FF1F08B5FFF75B
:101E4000C5FF014B587908BD60E9FF1F08B5FFF7D2
:101E5000BDFF024B987900F2B27008BD60E9FF1F28
:101E6000F0B52B4B817940F2B2724B43A2F2B274BF
:101E70008C4214DA940710D1642492FBF4F504FB2D
:101E8000152434B94FF4C87492FBF4F504FB1524FF
:101E90001CB903F5A83303F5C0730132E6E701F27C
:101EA000B271642291FBF2F502FB15154FF4C87272
:101EB00091FBF2F6447902FB16160122A24214DAD3
:101EC000022A08D18F0706D105B926B903F51813E0
:101ED00003F56E5307E00F4FDFF83CC0174417F8C7
:101EE000017C0CFB07330132E8E742788478C2EBCF
:101EF000021291004FF4616202FB04120178007932
:101F00000A440549013801FB00201844F0BD00BF18
:101F10008033E1013853000080510100094B186003
:101F2000094B1B681844094B1860094B02221A70B0
:101F3000084B82B01B680193019A074B1A6002B0EC
:101F4000704700BF68E9FF1F84E6FF1F78E9FF1FA5
:101F50006CE9FF1FE8E9FF1F74E9FF1F73B5184C18
:101F6000184923680A681848006801900198801A87
:101F7000B0F57A7F02F57A7603F1010502D32B469C
:101F80003246F0E7114D0A602A6823609A4213D85E
:101F90000F4B1B6883B1984710B1FFF7BFFF0BE0F1
:101FA0000C4B1A68064B1B6813442B600A4B1A78BB
:101FB000003218BF01221A70206802B070BD00BF45
:101FC00068E9FF1F74E9FF1FE8E9FF1F78E9FF1FB9
:101FD00070E9FF1F84E6FF1F6CE9FF1F08B5FFF7DC
:101FE000BDFF014B187808BD6CE9FF1F034B18605B
:101FF000034B1A68034B1A60FFF7B0BF70E9FF1F6D
:1020000068E9FF1F78E9FF1F84B030B504AC84E8AD
:102010000E00054694E80F0085E80F0008AB0FCBD3
:1020200005F1100484E80F002846BDE8304004B0F4
:102030007047FFFF84B0F7B509A880E80E009DF84F
:102040002A500D9A9DF82C303DB90133DBB20C2B90
:1020500005D901240132234602E02C4600E0012488
:102060009DF82D108DF8021000214E328DF80110D0
:102070008DF80010684601218DF805308DF8062096
:102080008DF80410FFF7ECFE9DF82B700646FFF765
:10209000CDFE381AC31D072293FBF2F2013CC2EBBE
:1020A000C202C4EBC4049B1A06481C4400FB046033
:1020B0001DB9A0F51320A0F5286003B0BDE8F040DD
:1020C00004B070478051010037B50191C368009397
:1020D00004460D4690E80E00FFF7ACFFE36900935D
:1020E000019504F110030ECBA0622046FFF7A2FF7A
:1020F000E169A26AE0626FF03B0303FB0122226206
:10210000E26803FB0200606203B030BD70B50546B3
:1021100008460C46FFF79AFE0646286AFFF796FE29
:10212000864206D02046FFF791FE01462846FFF77B
:10213000CBFF686A2B6A98420ED006DD9C420BDB0F
:102140008442ACBF0020012070BD844206DB9C426B
:10215000B4BF0020012070BD002070BD012070BD03
:10216000F8B5044608460D461646FFF76FFE0746CB
:10217000206AFFF76BFE874206D02846FFF766FE0F
:1021800001462046FFF7A0FF20462946FFF7BEFF85
:102190003C2310B13460E06803E004F11002E06910
:1021A000326003FB0050F8BD044BD878044B1A682A
:1021B000C0B2904218BF1860704700BF0060064070
:1021C0008CE6FF1F08B5FFF7EFFF8307FBD5024B37
:1021D0000222DA7008BD00BF00600640094B1B7880
:1021E00013B9094B1B782BB1084A1378202B03D95C
:1021F0000123037100207047581C1070044A01200D
:10220000D1547047E2E9FF1FA5E9FF1FE3E9FF1F73
:1022100084E9FF1F7047FFFF024B1878024B1B78C1
:10222000C01A7047E1E9FF1FE0E9FF1F064A0749AE
:1022300013780978994204D9591C1170044AD05C6A
:1022400070474FF0FF307047E0E9FF1FE1E9FF1FE3
:10225000A6E9FF1F054B064A1B7812789A4286BFF3
:10226000044AD05C4FF0FF30704700BFE0E9FF1F29
:10227000E1E9FF1FA6E9FF1F70B50E4B1B7814465E
:1022800013B90D4B1B7893B10C4A1578C5F1210396
:102290009C42164602D9012202711C460848224679
:1022A0002844254400F030FA3570204670BD1846A9
:1022B00070BD00BFE2E9FF1FA5E9FF1FE3E9FF1FB3
:1022C00084E9FF1F10B5114BDB7803F0200303F006
:1022D000FF045BB9122000F07DFB0D4B1B68A3B11E
:1022E0000C4A14700C4A1078984710BD0B4A1378AA
:1022F0000133DBB2012B137002D8094B1B7823B9D1
:102300001220BDE8104000F065BB10BD0060064023
:1023100080E9FF1FE0E9FF1FE1E9FF1FCCE9FF1F94
:10232000A5E9FF1F002202714FF47A710273024A7D
:1023300081600260704700BF50530000094B1B686A
:102340005B060DD5084B9942084B01D8272204E0C3
:10235000074A914294BF1A220D225A7004229A71A0
:10236000704700BF348004407F1A060000600640BA
:102370003F420F00174A08B500231370164A116830
:1023800041F040011160154A9370154B1B78122BD8
:1023900003D14FF41972134B04E0112B03D1124BEC
:1023A0004FF419721A60114B1B78132B03D14FF4A1
:1023B00019720F4B04E0102B03D10E4B4FF419721E
:1023C0001A600D49FFF7BAFF044B20225A71802290
:1023D0009A7008BDA5E9FF1F3480044000600640E4
:1023E00088E6FF1F0CA0044004A0044090E6FF1FF5
:1023F00008A0044000A00440A086010010B53649A2
:10240000CB78DBB213F0100F03F0400201D12AB9F0
:102410002CE01020C870002AF9D110BD03F004038D
:1024200003F0FF012D4AC3B1002313702C4A13702F
:102430002C4B1B68144603B1984723782A4A1BB9D2
:102440002749137001200870234BD021997012780E
:102450001A71264B01221A7039E001231370244BA4
:1024600019701D4BC0229A701B7930E01A4CA2786B
:1024700002F0100202F0FF01AAB113F001030ED125
:102480001A4917480A780078904203D9531C0B70F8
:10249000154B9B5C2371104BD0229A7017E0C02320
:1024A000A370237913E0134B0322197012201249F1
:1024B00000F046FA0E4A217913781F2BC9B206D8CC
:1024C0000648007818B1581C10700C4AD154024BC1
:1024D0000222DA7010BD00BF006006407CE9FF1FD9
:1024E000E3E9FF1FC8E9FF1F84E9FF1FE4E9FF1FBD
:1024F000E1E9FF1FCCE9FF1FC5220000A6E9FF1F8D
:10250000044B054A4900197001231370034A1370E4
:10251000704700BF84E9FF1FE2E9FF1FE3E9FF1FE7
:10252000F7B52D4B1222DA709A7892060F4601D534
:10253000B4221CE0294B1A680092009C1D46FFF74C
:1025400033FE00F0200000F0FF0360B12B68019320
:10255000019B1B1B0F2BF2D91F4B00229A7080226C
:102560009A70042036E01E4A13701B4BB0229A70FA
:10257000FFF71AFE8306FBD500251A4B1B78ECB239
:10258000A3421FD9184B1A5D134B1A71FFF70CFEAB
:10259000860701D48006F9D40F4E0223F370FFF7AB
:1025A00003FEC10601D4820603D48023B370042045
:1025B00009E0C30705F10105DFD5002C0CBF02209F
:1025C000032001E0002017B1034B80229A70074BD3
:1025D00000221A7003B0F0BD00600640E8E9FF1F5A
:1025E000A5E9FF1FE3E9FF1F84E9FF1FE2E9FF1FE1
:1025F0002DE9F0411546364A1F4600231370354A2F
:102600001370354B0C461221D970997811F0200FB8
:10261000904601D0B4220BE0FFF7C6FD00F0200089
:1026200000F0FF020028F7D12C4B1A702A4BB02281
:10263000640044F00104284E9A70E4B23471FFF74C
:10264000C1FDFFF7B1FD10F0110004D08023B3707D
:102650000020BDE8F08135B9002F0CBFA0238023F6
:10266000B370BDE8F081012D0CBFA823A023B37087
:1026700033790024012D184E12D0013DFFF7A2FD41
:10268000EDB2012D04BFA823B3701F2C06D8124A47
:102690001179134A631C1155DCB2EBE73379E9E792
:1026A000FFF790FDB0231F2C2546B37005D80C4BC7
:1026B00032795A550134E4B200E0337917B1064B50
:1026C00080229A7088F800402046BDE8F08100BF63
:1026D000E0E9FF1FE1E9FF1F00600640A5E9FF1FD9
:1026E000A6E9FF1FC9B2D2B20123FFF781BFC9B269
:1026F000FFF706BF0121FFF713BFFFFF0148FFF7F8
:1027000011BE00BFD0E9FF1F844641EA000313F069
:1027100003036DD1403A41D351F8043B40F8043BE8
:1027200051F8043B40F8043B51F8043B40F8043BAB
:1027300051F8043B40F8043B51F8043B40F8043B9B
:1027400051F8043B40F8043B51F8043B40F8043B8B
:1027500051F8043B40F8043B51F8043B40F8043B7B
:1027600051F8043B40F8043B51F8043B40F8043B6B
:1027700051F8043B40F8043B51F8043B40F8043B5B
:1027800051F8043B40F8043B51F8043B40F8043B4B
:1027900051F8043B40F8043B403ABDD2303211D3EB
:1027A00051F8043B40F8043B51F8043B40F8043B2B
:1027B00051F8043B40F8043B51F8043B40F8043B1B
:1027C000103AEDD20C3205D351F8043B40F8043BEB
:1027D000043AF9D2043208D0D2071CBF11F8013BE9
:1027E00000F8013B01D30B8803806046704700BFAF
:1027F000082A13D38B078DD010F003038AD0C3F1BE
:102800000403D21ADB071CBF11F8013B00F8013B9F
:1028100080D331F8023B20F8023B7BE7043AD9D35E
:10282000013A11F8013B00F8013BF9D20B78037033
:102830004B7843708B78837060467047024B1A6800
:1028400001321A60704700BFE8E9FF1F08B50B4C62
:102850002368580301D500F09DFA2368590501D576
:1028600001F026FC23681A0501D501F017FF236843
:10287000DB04ECD502F062F9E9E700BF34800440E4
:1028800008B5FFF7E3FFFFFF014B10221A807047E6
:10289000002005407047FFFF024A1368184410608B
:1028A0001846704794E6FF1FEFF313839BB9EFF3CD
:1028B000108098B9EFF3058323B10F2B04D9084A90
:1028C000985C01E04FF48070EFF311833BB18342D9
:1028D00038BF184670474FF0FF30704718467047B2
:1028E000F0E300E07047FFFF00F14040A0F59223C5
:1028F0007C2B14D9A0F594237C2B12D9A0F5962318
:102900007C2B10D9A0F598237C2B06D9A0F59A2012
:102910007D28064828BF00207047054870470548B5
:102920007047054870470548704700BF70E7FF1FB4
:1029300050E7FF1F98E6FF1FD0E6FF1F20E7FF1FAD
:10294000212870B50D4636D8042A34D8DFE802F0C5
:102950000709050B03000B2306E00A2304E0082304
:1029600002E00C2300E009231E04134B134A03EB7F
:10297000C000134B4468C3F8E020124AC3F8E420B7
:10298000114AC3F8E820114AC3F8EC202046104A47
:10299000C3F8F020FFF7A8FF68B172B6226822F4EE
:1029A00070222260C4F3840342F08072164340F820
:1029B0002350266062B670BD6853000011E6FF1F09
:1029C00000E1FF1FE5E5FF1FB9E5FF1F8DE5FF1FD4
:1029D00061E5FF1F0C4B03EBC00010B544682046B7
:1029E000FFF782FF70B172B6236823F0877323F478
:1029F000803343F080732360C4F38404034B40F8B6
:102A0000243062B610BD00BF68530000E528000006
:102A1000044B054900221A600A60044A1060102223
:102A20001A60704714D0034004D0034000D0034024
:102A3000212810B518D80D4A52F8303093F880424A
:102A40003CB1012211B183F8802010BD83F8002130
:102A500010BD02EBC00043681A6811B142F00302D6
:102A600001E022F002021A6010BD00BF68530000AE
:102A7000212806D8044B53F8303093F80002C0B236
:102A800070470020704700BF68530000212810B530
:102A900037D81C4A02EBC00301295B68144601D0F9
:102AA00004290FD154F83020012082F880024FF41D
:102AB000A2721A601A6804290CBF42F0200222F0A8
:102AC00020021DE052F83020002082F8800211B16F
:102AD0008A1E012A12D84FF4807202291A6003D18B
:102AE0001A6842F003020BE003290AD11A6842F087
:102AF00002021A601A6822F0010201E040F2031299
:102B00001A6010BD6853000072B60B4B0B491A686F
:102B10000B4B1B68096862B6490102D5322A88BF8F
:102B20000133C2F5BB326021FF32B2FBF1F24FF448
:102B30007A7000FB0320704718E000E004ED00E02D
:102B4000E8E9FF1F38B50446FFF7DEFF054624B964
:102B500038BD013C0AD005F57A75FFF7D5FF401B5B
:102B6000B0F57A7FF5D200F05FFFF6E738BDFFFFE2
:102B70001C4B4FF4807210B51A604FF400721A604B
:102B80004FF480621A604FF400621A604FF4805272
:102B90001A60154B154A164C00204BF6FF71186051
:102BA00059602823136093601361936113629362E9
:102BB000136393630922226004F580540434206077
:102BC0000C4801600C490B608B600C4B1A6000F0E4
:102BD0004BFF4FF4C870FFF7B5FFBDE8104000F0A1
:102BE000D7BB00BF04E100E0048003400C80034039
:102BF00000800340089003400C9003400090034085
:102C0000F0B50C4B0C4C1A7842F0020504EBC506EB
:102C100082F00102706009481A700678002E0CBF1D
:102C20008827C82786F0010647EA0141067044F864
:102C30003510F0BD54EAFF1F00E0FF1FCCEAFF1F74
:102C4000431E032B10B510D872B6094A52F8230060
:102C500048B1416842F82310064A018832F813400F
:102C6000611A22F8131062B610BD002010BD00BF1B
:102C700044EAFF1FB0ECFF1F013803280AD872B6E0
:102C8000054B53F82030002013B101305B68FBE79F
:102C900062B670470020704798EAFF1F10B572B601
:102CA0000123174A1A4412F8012C12071CD5990067
:102CB000144A52F831402CB902EB431308305860E3
:102CC000114B09E041F0010152F8314064B902EBC7
:102CD000C103083058600D4B42F831300C4B1A7864
:102CE000013A1A7062B610BD0133052BD9D162B614
:102CF000074B00221A70BDE8104000F0A5BB00BFD2
:102D0000A854000000E0FF1F88004000C8004000F9
:102D1000C2EAFF1F431E032B30B532D8194A4001C7
:102D200040F01000104472B6174CE25C032A09D838
:102D3000DFE802F0160218050830022213E008301E
:102D4000042210E01148124A50F8234014B940F808
:102D5000231002E052F82300416042F823100FE0F4
:102D6000032200E00522E25410F0080F01F10803ED
:102D70000A8843600CBF8823C82343EA02430360E8
:102D800062B630BD00E0FF1F00EAFF1F98EAFF1F98
:102D9000A8EAFF1F2DE9F84FAB4F3C78E4B214F0DE
:102DA000040F3D4619D0A94B1B78A3B1A84A11784E
:102DB00001F0FF0321B1013BDBB2137003B900BE88
:102DC000A44A117801F0FF0329B1013BDBB2137073
:102DD0000BB900F065FC04233B7004F0080303F01A
:102DE000FF02002B00F067829B4B9C4C1A78D2B2FA
:102DF00015094FEA920840F0E48104EBC8035968D2
:102E000054F83830C3F38303013B0C2B00F2D68116
:102E1000DFE813F095019501D401D401D401D40168
:102E2000D401D401B001D401D401D4010D008C4DE2
:102E30000A684B688B486B6001218B4B44F8383033
:102E40002A60DFF85082017092B240F28160002364
:102E50008242C8F800302361A36117D8B2F5D06F61
:102E600080F01E81B2F5817F00F0CF8006D8802AE5
:102E700000F0BA80822A00F0BB8031E140F20233D8
:102E80009A4200F0D180B2F5A06F1CE042F221001E
:102E9000824200F051810ED8B2F5086F00F09E809A
:102EA000B2F5106F40F01C81684B6C4EAA781A7016
:102EB00006F180090AE042F221218A4200F00881ED
:102EC00042F221339A4200F00F8109E1336A1B0676
:102ED00003D5706A083800F0B7FA08364E45F5D1C8
:102EE0000026B146DFF8B0A156F80A0028B1D0F8A4
:102EF00004B000F0A9FA5846F8E74AF806005B4B20
:102F0000DFF898A1F05056F80A0028B1D0F804B0C4
:102F100000F09AFA5846F8E7554B4AF80600F05088
:102F2000544B23F81900544B19F80320023A032A92
:102F300008D8DFE802F002040204002200E00122C7
:102F400003F8092009F10109B9F1040F06F104069B
:102F5000C8D14A4B00221A7001269A46484A494B6A
:102F60003244334412F8012C9B0012F0080F1A70FF
:102F70004FEA860925D000F049FA38B104EB461330
:102F800008305860404B44F8393006E09AF8003079
:102F900044F8390001338AF8003000F037FA49F07C
:102FA000010338B104EBC302083050602E4A44F8E4
:102FB000332006E044F833009AF8003001338AF8F1
:102FC000003049F00202013649F003090023052EC2
:102FD00044F8323044F83930C0D186E01B4B2B4CDA
:102FE0001B7823700B4683E0284C237063707EE0CF
:102FF000AA88042A74D8254C920023706370244B4D
:103000009B5C9E0773D5217071E0AA8802F07F0255
:10301000042A65DC6B88002B62D191001C4A0A44AB
:10302000117821F0020159E0AA8802F07F02042AF7
:1030300056DC6B88002B53D19100154A0A44117855
:1030400041F002014AE000BF80200740CBEAFF1FA9
:1030500055EAFF1FCDEAFF1F9020074000E0FF1F49
:10306000B8EAFF1FCCEAFF1FC8004000F0E9FF1FCD
:10307000A8EAFF1FB0ECFF1F00EAFF1FC2EAFF1F14
:10308000A854000030C8011088004000C3EAFF1FA8
:10309000C0200740ECE9FF1F44EAFF1F98EAFF1F2A
:1030A0006A88A9889F4B53F8084CA3F10C00BCB167
:1030B00033F80C6C964209D133F80A6C8E4205D174
:1030C000120A032A0CBF2378038911E00C33EAE7C4
:1030D000954A1168954A1160A978954A117004E0E3
:1030E000944B0F221A7027E000231C4600E00223B5
:1030F000EE88B34238BF1E46402E34BF35464025C9
:1031000020462946FFF77CFD761B2C4403D1402D39
:1031100012D1354603E0402E34BF354640252046C7
:103120002946FFF76DFD761B2C4401D1402D03D1BC
:10313000814AC8F8004016800122804B3DE0804B58
:103140001A8842F221039A4210D100237D4AC85CBA
:1031500098540133072BF9D11368862B02D17A4B8F
:103160000F221A7000200146FFF74AFD774B44F802
:10317000383023E0764E3568B5B1DFF8BC81B8F859
:103180000090B9F1400F34BF4C46402428462146F8
:10319000FFF736FDC4EB09039BB2A8F800300BB96A
:1031A000402C00D12B193360654B1A88B2F5A06F03
:1031B00004D100225A709A78664B1A7001225F4B34
:1031C0006CE004EBC806013D736802F00802A3F14D
:1031D0000800EDB202F0FF01002A36D000F034F909
:1031E0005D485E4B50F82520EAB1516840F8251043
:1031F00002F108017160595D03290BD8DFE801F085
:1032000002040608032104E0022102E0052100E097
:103210000421595516F0080F12880CBF8823C823C3
:1032200043EA024342E05A5D032A07D8DFE802F08E
:1032300040400204002206E0012204E016F0080FDC
:103240000CBF022203225A5532E054F83820120CE7
:1032500023F8082C22B3DFF834E123F8061C43F8E6
:10326000041C5EF825303E4913B94EF8250002E0F3
:1032700051F8253058603B4B41F8250033F81510C4
:103280000A4423F8152000F0C1F810B1083070602E
:1032900006E0354B44F838001A7801321A7007E01E
:1032A0002A4B324A16F0080F08BF134644F838304C
:1032B00008233B7070E5E0071FD520492B482C4CB4
:1032C00002230B702B4B1A702B4B186098602B4805
:1032D000D8601A619A615C60164B0D2018702848FE
:1032E000FF2303702B700274264A1370264B9F2213
:1032F0001A7001230B70BDE8F88F210604D50D4B21
:103300000D221A7080232B70A20705D51C4B1A784A
:10331000D2B21A7002232B70E30644BF10232B7025
:10332000BDE8F88FB8540000E8E9FF1FC0ECFF1FAC
:10333000DCEAFF1FC0200740C0EAFF1F94200740BF
:10334000B8EAFF1FB8ECFF1F55EAFF1FC800400096
:10335000ECE9FF1F9820074098EAFF1F00EAFF1FD3
:10336000F0E9FF1FB0ECFF1FC2EAFF1F880040001A
:1033700004EAFF1F54EAFF1F00E0FF1F58EAFF1F87
:10338000882007408C2007408420074044EAFF1F24
:1033900008B501F03BFC0022184B0021D1509818D1
:1033A0000832882A4160F7D1154A106840F480201D
:1033B000106002F528326832C3F307201070C3F39F
:1033C00007401B0E10751376FF2302F81C3C02F811
:1033D000143C02F88C3C012302F8083C82F864108B
:1033E00002F8183C074B70221A70A3F21F33082210
:1033F0001A60054B10221A7008BD00BF00E0FF1FC5
:103400003480044023E400E00821074072B60C4AEF
:103410001168B1FA81F30B2B02D962B60020704714
:103420004FF00040D84021EA0001116062B6054922
:1034300048225343C8180022CA504260704700BF58
:1034400078E7FF1F00E2FF1F0C4B4822C31AB3FBB3
:10345000F2F30B2B11D80A4A127822B1094A1278DA
:103460000AB1FFF71BBC72B6074A4FF0004121FAC0
:1034700003F311681943116062B6704700E2FF1F41
:10348000C2EAFF1FCBEAFF1F78E7FF1F10B5104C01
:1034900023686BB120684288531C0244147A028866
:1034A000934212D3FFF7D0FF094B00221A600DE0C0
:1034B000084B1B7813B94FF0FF3010BD0320FFF706
:1034C000BFFB20600028E5D1F5E74380204610BD12
:1034D000D8EAFF1FCBEAFF1F10B50B4C236813B1CE
:1034E00023686BB902E0094B1B7813B94FF0FF302A
:1034F00010BD0320FFF7A4FB20600028F0D1F5E702
:103500005A881344187A10BDD8EAFF1FCBEAFF1F70
:10351000044B9888044B1B681BB11A885B88D31A2C
:1035200018447047B0ECFF1FD8EAFF1F10B5094BD5
:103530001B786BB1084C206818B1FFF785FF00239A
:1035400023600320FFF77CFB10B1FFF77DFFF8E756
:1035500010BD00BFCBEAFF1FD8EAFF1F2DE9F843DB
:103560002D4E012307460C463370002C4FD02B4DB7
:103570002B68A9462BBB4AF2F928294B1B7803F08C
:10358000FF020BB9327015E00420FFF775FB072826
:1035900008D801233370FFF739FFC9F8000080B95C
:1035A0001D4B1870B8F101081E4B01D01A782AB1D2
:1035B00001221A704FF0FF30BDE8F88300F034FAB2
:1035C000DBE72968174A488800231370C0F14002DE
:1035D000944238BF224600F1080C10448C444880C5
:1035E000A41A934204D0F85C0CF803000133F8E706
:1035F0001F444B883F2B06D940230B800420FFF744
:1036000089FB00232B60084B05221A70ADE734704C
:103610002046BDE8F88300BFCEEAFF1FD0EAFF1FB7
:10362000CBEAFF1FD4EAFF1FCDEAFF1F07B502ABAD
:10363000012103F8010D1846FFF790FF03B05DF874
:1036400004FBFFFF2DE9F041114B1B78F3B1114E44
:10365000114B3468114D01271F7098464CB100275B
:1036600063882F70042023802146FFF753FB3760C7
:1036700009E0FFF7CBFE014620B104202C70FFF7D4
:1036800049FB00E02F70002388F80030BDE8F0818E
:10369000CBEAFF1FD0EAFF1FCEEAFF1FCDEAFF1FD4
:1036A00038B50E4B1B7803F0FF05ABB90C4C216805
:1036B00031B14B880B800420FFF72CFB256038BD0F
:1036C000FFF7A4FE014620B10420BDE83840FFF713
:1036D00021BB044B01221A7038BD00BFCEEAFF1F88
:1036E000D0EAFF1FCDEAFF1F08B5FCF7E1FEFDF7AA
:1036F00057FE00F099F9FAE7F8B506460C468F1820
:103700000025BC4207D0336814F8011B1B68304603
:1037100098470544F5E72846F8BD2DE9F041002516
:103720008C688AB0074688462E4694B12B464046A0
:1037300001A9212200F05FF93B68202C34BF22460A
:1037400020225B68384601A91544A41A984706440C
:10375000EBE730460AB0BDE8F081FFFF07B5064B46
:103760001B88ADF80430036801A95B680222984702
:1037700003B05DF804FB00BF7854000070B5054647
:103780008AB022B90368C9B21B6898472CE0012AA5
:1037900008BF0A2221B930228DF82520212413E008
:1037A0002124B1FBF2F002FB1011C9B209290AAEC3
:1037B00094BF303137312644C9B206F8241C014683
:1037C00010B1013CE4B2ECE733B1013CE4B20AAB26
:1037D00023442D2203F8242C2B6801A95B6828467A
:1037E0002144C4F1220298470AB070BD0029BABF33
:1037F00049422D2300230A22FFF7C0BFFFF788BEEE
:10380000FFF744BEFFF768BEFFF71CBFFFF78EBE91
:103810000846FFF70BBF08461146FFF79FBE7047EB
:10382000044B00221A714FF47A711A73024A99609C
:103830001A607047E0EAFF1F8854000010B5044684
:10384000006801F0D9FB204610BD38B504460D468E
:103850000068013101F070FC10B184E82100012002
:1038600038BD43688B4210B5044606D2FFF7EDFF22
:1038700020B1A3680BB922681370012010BDF8B500
:1038800004460F46154622B9036803B11A70002397
:103890000BE01146FFF7E5FF064640B9206810B17E
:1038A00001F0AAFB266000236360A36004E0A5602A
:1038B0002068394601F05AFC2046F8BD81420B468B
:1038C00003D009689A68FFF7DABF704710B5002384
:1038D00004460360436083600373FFF7EFFF2046F5
:1038E00010BD38B505460C4641B1084601F046FC0E
:1038F000214602462846FFF7C2FF00E0A96028469D
:1039000038BD10B500238AB004460360436083606D
:103910000373084601A900F0F1F8204601A9FFF75A
:10392000E0FF20460AB010BD07B500238DF8041053
:10393000012201A98DF80530FFF7A1FF03B05DF862
:1039400004FB10B5002304460360436083600373E7
:10395000FFF7EAFF204610BD2DE9F84303688668AB
:10396000994204460D46904606D39A19914203D2D5
:10397000C3EB0109012700E00027B8F1000F16D0C2
:10398000464420463146FFF76CFF80B1A0682168AD
:1039900047B1084442464944FEF7B6FE2368002278
:1039A0009A5503E00844294601F0E0FBA660204652
:1039B000BDE8F8831FB504460A22084601A900F0B5
:1039C0009DF801A801F0DAFB01A902462046FFF7A5
:1039D000C3FF204604B010BD10B50B46044609686D
:1039E0009A68FFF7B9FF204610BD10B50446FFF7EF
:1039F000E1FF204610BD38B50C469AB191B18168FF
:103A00008B4202D30023237038BDC91A551E8D4244
:103A100028BF0D4601682A461944204601F0B6FB2E
:103A20000023635538BDFFFF10B50E4C2378BBB99A
:103A300001232370FFF76CFD08B1FFF7F0FE00F0E3
:103A4000C1FA08B101F093F900F0C4FD08B101F02A
:103A500016FA01F00FF808B101F099FA002323706B
:103A600010BD00BFF0EAFF1F1B4B60221A70E1225D
:103A70005A701A4B1A4A19781A4B082901D1012198
:103A800002E00A2903D139211160132205E00C2933
:103A90000CBF35213D21116012221A60124B1A7899
:103AA000124B02B101221A60114B1A78114B012AF4
:103AB00001D880220BE0042A01D8842207E0082ADA
:103AC00001D8852203E0102A94BF862287221A603B
:103AD000094B01221A707047004007407CE7FF1F26
:103AE00008B003400CB00340F2EAFF1F20B00340CF
:103AF0007DE7FF1F24B00340F1EAFF1F10B500234C
:103B0000B0FBF2F402FB1400092894BF30303730C8
:103B1000C0B2C85420460CB10133F1E7CA18547042
:103B200022469A4206DA885CCC5C8C54C854013236
:103B3000013BF6E7084610BD234B1A6842F4806249
:103B40001A60224A00231370214A1370214A13700D
:103B5000214A1370214A1370214B1B782BB1152B6E
:103B600007D140F213321F4B02E01F4B40F21332D9
:103B70001A601E4B1B78012B05D0052B07D14FF483
:103B800051721B4B02E01B4B4FF451721A601A4BDF
:103B9000C0F344321A70C0F347125A7000F01F008D
:103BA0000422022198729A70D9745A7588221A7464
:103BB0003C22DA70114B40221A70A3F544734FF483
:103BC00080321A60704700BF348004407BEBFF1FD7
:103BD000F9EAFF1F84EBFF1F7CEBFF1FF8EAFF1FD2
:103BE0003AEBFF1F18C0044040A004407EE7FF1FCF
:103BF0001CC0044044A0044000A0064010E400E0C3
:103C0000134A937800F0030103F0EC030B434107E0
:103C100048BF43F01003937000F00F03042B0C49CE
:103C200003D18B7943F040038B715379C20603F0C3
:103C3000EF03074A48BF43F010035371937981069D
:103C400003F0EF0348BF43F010039371704700BFC8
:103C500000A0064008B5114B1B685B0500D408BDE9
:103C60000F4B1A7802F0FF0312B1FFF7DDFEF7E702
:103C70000C4A4FF4803111600B4A0C49D37040F26A
:103C800003120A604A600A4A13700A4A13700A4B08
:103C90001B680BB101221A7008BD00BF34800440BC
:103CA000F8EAFF1F80E100E000A0064040A00440C9
:103CB0007BEBFF1FF9EAFF1FF4EAFF1F38B504464C
:103CC000094B1B7803F0FF05002BF9D12046012199
:103CD000FEF7DCFE20462946FEF7AAFE034B53F80A
:103CE0003420034B1A6038BDF8EAFF1F6853000008
:103CF00080EBFF1F10B509B140F08000144A137823
:103D00009842144622D0134A126852051DD503F07A
:103D10007F03012B04D0052B05D100220E4B01E0BF
:103D20000E4B00221A60002900F07F020CBF4423D2
:103D30006023012A05D0052A07D143F44073064ABF
:103D400002E0064A43F440731360207010BD00BFC8
:103D50007EE7FF1F348004401CC0044044A00440A0
:103D60000E4A1378984218D00D490968490513D5B1
:103D70002BB1152B05D10B4B0021196001E00A492D
:103D80000B6028B1152807D140F21331054B02E032
:103D9000054B40F213311960107070473AEBFF1F6A
:103DA0003480044018C0044040A004400D4A38B597
:103DB000146814F480624FF0000410D021280A4DDA
:103DC0000AD80A4A012152F830302B60FEF75EFE15
:103DD0002B681C70012038BD2C60204638BD104671
:103DE00038BD00BF34800440F4EAFF1F6853000070
:103DF0000E4B1B6813F4806316D012280C4B03D1B2
:103E000040F202310B4A04E0142809D10A4A40F278
:103E1000023111605A7B42F001025A73012070474F
:103E20005A7B02F0FE025A7300207047348004402F
:103E300000A006400CA0044014C00440F8B51D4B7F
:103E40001B685A05064633D51B4B1B680BB1012274
:103E50001A701A4B1C780134402C1F4628BF0024CE
:103E6000174D2B78A34218D1FEF71EFD40280FDC1A
:103E7000144A13791B06F3D52B7813490133402BD1
:103E800028BF0023C95CDBB2C9B2D1712B70E7E750
:103E9000FF28E5DDFFF7C8FDE2E70B4BF6B21E5544
:103EA0000A4B01221A70074BE4B2BC223C70DA7054
:103EB000F8BD00BF3480044080EBFF1F84EBFF1F80
:103EC0007CEBFF1F00A00640FAEAFF1FF8EAFF1F85
:103ED000274B1B685A052DE9F04707468A4644D50B
:103EE000244B1B680BB101221A703D4607EB0A03F5
:103EF0009D4237D2DFF890801F4E98F8004096F828
:103F000000900134402C28BF00245FFA89F9A145B4
:103F10001DD11A4BBC22DA70FEF7C6FC40280FDC1C
:103F2000164A13791B060FD5337815490133402BF8
:103F300028BF0023C95CDBB2C9B2D171337003E082
:103F4000FF2801DDFFF770FD33784B45E4D00C4BC3
:103F500015F8012B1A550B4B0122E4B21A7088F8A0
:103F60000040C3E7054BBC22DA70BDE8F08700BF14
:103F70003480044080EBFF1F7CEBFF1F00A0064055
:103F8000FAEAFF1FF8EAFF1F84EBFF1F08B5034B97
:103F90001B7813B1FFF748FDF9E708BDF8EAFF1FEA
:103FA000064A074B1B781078DBB2C0B283422CBFA5
:103FB0003F3000F1FF30C01A704700BF7CEBFF1F9D
:103FC00084EBFF1F054B1878054B1B78C0B2DBB2A2
:103FD000984238BF4030C01A704700BF7BEBFF1FCC
:103FE000F9EAFF1F10B5104B10491A780B78D2B2BE
:103FF000DBB29A4214D00133402B28BF00230C4877
:10400000DCB2C05C0C700B490968C0B251B19A4275
:1040100038BF4032D31A1A2B04DC00230B7010BDBA
:104020004FF0FF3010BD00BF7BEBFF1FF9EAFF1F11
:104030003BEBFF1FF4EAFF1F084B1A78084B1B7875
:10404000DBB29A4207D00133402B28BF0023054A38
:10405000D05CC0B270474FF0FF3070477BEBFF1F62
:10406000F9EAFF1F3BEBFF1F0C4B1B685B0514D5E8
:104070000B4BDA7802F0CB02DA7040225A74DA780D
:1040800042F03402DA70074B1A78074BD2B21A703A
:10409000064B1B680BB100221A7070473480044035
:1040A00000A00640F9EAFF1F7BEBFF1FF4EAFF1FA9
:1040B00030B5374B1A7912F0300F31D072B69A7D85
:1040C00002F0FF0022B9DA7940225A7462B627E082
:1040D00062B6304A304913780978DBB2C9B2144667
:1040E0002B4AD5795A1C402A28BF00228A42EDB2B9
:1040F00002D02A4B9D541346421E12F0FF00EFD10E
:10410000DAB22270264A126852B18B4236BFC1F130
:104110004001C1EB03035B18272BC4BF01231370BD
:104120001B4BD978C9B20C0620D51B7918061DD5B2
:104130001C4B1D4A1D781378EDB2DBB21046AB4222
:104140000CD0134A0133402B1479184C28BF00239C
:10415000E45CE4B2D471127D072AF0D9DBB20370BB
:104160000B4B1A79120644BF7C22DA704B060ED52F
:10417000074B1A7912F0400F194608D00C4B002259
:104180001A700C4B1B6803B11A703C23CB7030BD06
:1041900000A006407BEBFF1FF9EAFF1F3BEBFF1F70
:1041A000F4EAFF1F84EBFF1F7CEBFF1FFAEAFF1FFF
:1041B000F8EAFF1F80EBFF1F214B1A6842F40062F0
:1041C0001A60204A002313701F4A13701F4A13708D
:1041D0001F4A13701F4A13701F4B1B78092B05D001
:1041E0001A2B07D140F213321C4B02E01C4B40F259
:1041F00013321A601B4B1B780A2B05D01F2B07D1DB
:104200004FF45172184B02E0184B4FF451721A6080
:10421000174BC0F344321A70C0F347125A7000F0C3
:104220001F00002298729A701A742C22DA70114BB7
:1042300040221A70A3F212334FF480221A607047A2
:1042400034800440F6EBFF1F8DEBFF1FFCEBFF1FDC
:10425000F7EBFF1F8CEBFF1F7FE7FF1F04D004402D
:104260000CB0044080E7FF1F00D0044010B00440B1
:1042700000B0064012E400E0134A937800F0030116
:1042800003F0EC030B43410748BF43F01003937066
:1042900000F00F03042B0C4903D18B7943F040034A
:1042A0008B715379C20603F0EF03074A48BF43F00E
:1042B000100353719379810603F0EF0348BF43F075
:1042C00010039371704700BF00B0064008B51E4B45
:1042D0001B681B0500D408BD1C4B1B7803F0FF02B4
:1042E00013B1FFF7A1FBF7E7194B4FF480211960D9
:1042F000184BDA70184B1B78092B05D01A2B07D1F5
:1043000040F20312154B02E0154B40F203121A6003
:10431000144B1B7803F07F030A2B05D01F2B07D10A
:1043200040F20312104B02E0104B40F203121A60ED
:104330000F4A002313700F4A13700F4B1B680BB109
:1043400001221A7008BD00BF348004408CEBFF1FAF
:1043500080E100E000B006407FE7FF1F04D004408A
:104360000CB0044080E7FF1F00D0044010B00440B0
:10437000F6EBFF1F8DEBFF1F88EBFF1F38B50446E0
:10438000094B1B7803F0FF05002BF9D120460121D2
:10439000FEF77CFB20462946FEF74AFB034B53F809
:1043A0003420034B1A6038BD8CEBFF1F68530000AC
:1043B000F8EBFF1F10B509B140F08000144A1378E4
:1043C0009842144622D0134A126812051DD503F0F4
:1043D0007F030A2B04D01F2B05D100220E4B01E0D6
:1043E0000E4B00221A60002900F07F020CBF44230C
:1043F00060230A2A05D01F2A07D143F44073064AD6
:1044000002E0064A43F440731360207010BD00BF01
:1044100080E7FF1F3480044000D0044010B0044007
:104420000F4A137898421AD00E490968090515D524
:10443000092B04D01A2B05D100210B4B01E00B4BAB
:1044400000211960092805D01A2807D140F213313C
:10445000054B02E0054B40F21331196010707047B4
:104460007FE7FF1F3480044004D004400CB00440B8
:104470000D4A38B5146814F400624FF0000410D0EF
:1044800021280A4D0AD80A4A012152F830302B60FF
:10449000FEF7FCFA2B681C70012038BD2C6020460A
:1044A00038BD104638BD00BF3480044088EBFF1F84
:1044B000685300000B4B1B6813F4006310D01728DF
:1044C000094B09D1094A40F2023111605A7B42F08E
:1044D00001025A73012070475A7B02F0FE025A73A0
:1044E000002070473480044000B0064008B004400B
:1044F000F8B51D4B1B681A05064633D51B4B1B68C8
:104500000BB101221A701A4B1C780134282C1F465B
:1045100028BF0024174D2B78A34218D1FEF7C4F909
:1045200040280FDC144A13791B06F3D52B78134966
:104530000133282B28BF0023C95CDBB2C9B2D1717B
:104540002B70E7E7FF28E5DDFFF76EFAE2E70B4B9C
:10455000F6B21E550A4B01221A70074BE4B2AC2288
:104560003C70DA70F8BD00BF34800440F8EBFF1FE8
:10457000FCEBFF1FF7EBFF1F00B006408EEBFF1FA9
:104580008CEBFF1F38B504464518AC4204D014F834
:10459000010BFFF7ADFFF8E738BDFFFF08B5034B90
:1045A0001B7813B1FFF740FAF9E708BD8CEBFF1F4A
:1045B000064A074B1B781078DBB2C0B283422CBF8F
:1045C000273000F1FF30C01A704700BFF7EBFF1F24
:1045D000FCEBFF1F054B1878054B1B78C0B2DBB214
:1045E000984238BF4030C01A704700BFF6EBFF1F3B
:1045F0008DEBFF1F10B5104B10491A780B78D2B213
:10460000DBB29A4214D00133402B28BF00230C4860
:10461000DCB2C05C0C700B490968C0B251B19A425F
:1046200038BF4032D31A1A2B04DC00230B7010BDA4
:104630004FF0FF3010BD00BFF6EBFF1F8DEBFF1FEB
:10464000B6EBFF1F88EBFF1F084B1A78084B1B784F
:10465000DBB29A4207D00133402B28BF0023054A22
:10466000D05CC0B270474FF0FF307047F6EBFF1FD1
:104670008DEBFF1FB6EBFF1F054B1A78054BD2B22F
:104680001A70054B1B680BB100221A70704700BFEF
:104690008DEBFF1FF6EBFF1F88EBFF1F10B5214BC3
:1046A0001A7992060FD5204AD87913781F49013319
:1046B000402B097828BF00238B42C0B203D01C498D
:1046C000C854DBB21370174AD178C9B20C0616D59C
:1046D0001379180613D5174B17481C780378DBB2EB
:1046E0009C4202D16C23D37009E00133282B28BFF0
:1046F0000023124CE45CDBB2E4B2D47103704B06CD
:104700000ED5084B1A7912F0400F194608D00C4B01
:1047100000221A700B4B1B6803B11A702C23CB704C
:1047200010BD00BF00B00640F6EBFF1F8DEBFF1F72
:10473000B6EBFF1FFCEBFF1FF7EBFF1F8EEBFF1F1E
:104740008CEBFF1FF8EBFF1F164B1A6842F48052E8
:104750001A60154A00231370144A1370144A137018
:10476000144A1370144A1370144A40F21331116042
:104770004FF451715160124AC0F344311170C0F3CB
:10478000471100F01F0051709072937013742C2326
:10479000D3700C4B40221A70A3F545734FF480126E
:1047A0001A607047348004406EECFF1F05ECFF1F59
:1047B00074ECFF1F6FECFF1F04ECFF1F08C00440E8
:1047C00000C0064014E400E0134A937800F00301AF
:1047D00003F0EC030B43410748BF43F01003937011
:1047E00000F00F03042B0C4903D18B7943F04003F5
:1047F0008B715379C20603F0EF03074A48BF43F0B9
:10480000100353719379810603F0EF0348BF43F01F
:1048100010039371704700BF00C0064008B5114BEC
:104820001B68DB0400D408BD0F4B1A7802F0FF03AD
:1048300012B1FFF7F9F8F7E70C4A4FF48011116055
:104840000B4A0C49D37040F203120A604A600A4ACC
:1048500013700A4A13700A4B1B680BB101221A70BD
:1048600008BD00BF3480044004ECFF1F80E100E07D
:1048700000C0064008C004406EECFF1F05ECFF1F9F
:1048800000ECFF1F38B50446094B1B7803F0FF0509
:10489000002BF9D120460121FEF7F8F820462946E1
:1048A000FEF7C6F8034B53F83420034B1A6038BDAB
:1048B00004ECFF1F6853000070ECFF1F10B509B136
:1048C00040F080000E4A1378984217D00D4C2468AF
:1048D000E40412D503F07F03082B02D10A4B002415
:1048E0001C60002900F07F030CBF44216021082BCD
:1048F00003D1054B41F440711960107010BD00BF29
:1049000081E7FF1F348004400CC004407047FFFF64
:104910000D4A38B5146814F480524FF0000410D0DA
:1049200021280A4D0AD80A4A012152F830302B605A
:10493000FEF7ACF82B681C70012038BD2C602046B7
:1049400038BD104638BD00BF3480044000ECFF1F66
:10495000685300000B4B1B6813F4805310D00E28D3
:10496000094B09D1094A40F2023111605A7B42F0E9
:1049700001025A73012070475A7B02F0FE025A73FB
:10498000002070473480044000C0064004C004404A
:10499000F8B51D4B1B68DA04064633D51B4B1B6864
:1049A0000BB101221A701A4B1C780134282C1F46B7
:1049B00028BF0024174D2B78A34218D1FDF774FFB0
:1049C00040280FDC144A13791B06F3D52B781349C2
:1049D0000133282B28BF0023C95CDBB2C9B2D171D7
:1049E0002B70E7E7FF28E5DDFFF71EF8E2E70B4B4A
:1049F000F6B21E550A4B01221A70074BE4B2AC22E4
:104A00003C70DA70F8BD00BF3480044070ECFF1FCA
:104A100074ECFF1F6FECFF1F00C0064006ECFF1F89
:104A200004ECFF1F38B504464518AC4204D014F816
:104A3000010BFFF7ADFFF8E738BDFFFF08B5034BEB
:104A40001B7813B1FEF7F0FFF9E708BD04ECFF1F78
:104A5000064A074B1B781078DBB2C0B283422CBFEA
:104A6000273000F1FF30C01A704700BF6FECFF1F06
:104A700074ECFF1F054B1878054B1B78C0B2DBB2F6
:104A8000984238BF4030C01A704700BF6EECFF1F1D
:104A900005ECFF1F10B5104B10491A780B78D2B2F5
:104AA000DBB29A4214D00133402B28BF00230C48BC
:104AB000DCB2C05C0C700B490968C0B251B19A42BB
:104AC00038BF4032D31A1A2B04DC00230B7010BD00
:104AD0004FF0FF3010BD00BF6EECFF1F05ECFF1F55
:104AE0002EECFF1F00ECFF1F084B1A78084B1B78B9
:104AF000DBB29A4207D00133402B28BF0023054A7E
:104B0000D05CC0B270474FF0FF3070476EECFF1FB3
:104B100005ECFF1F2EECFF1F054B1A78054BD2B298
:104B20001A70054B1B680BB100221A70704700BF4A
:104B300005ECFF1F6EECFF1F00ECFF1F10B5294BAB
:104B40001A79920620D5284AD87913782749013353
:104B5000402B097828BF00238B42C0B203D02449E0
:104B6000C854D9B21170234A116869B1224A127827
:104B7000D2B2934236BFC2F14002C2EB03039B188C
:104B8000272BC4BF01230B70164AD178C9B20C067B
:104B900016D51379180613D5184B17481C780378C7
:104BA000DBB29C4202D16C23D37009E00133282B85
:104BB00028BF0023124CE45CDBB2E4B2D471037072
:104BC0004B060ED5074B1A7912F0400F194608D044
:104BD0000C4B00221A700C4B1B6803B11A702C236B
:104BE000CB7010BD00C006406EECFF1F05ECFF1F30
:104BF0002EECFF1F00ECFF1F6FECFF1F74ECFF1F7C
:104C000006ECFF1F04ECFF1F70ECFF1F1FB572B610
:104C1000154B70221A70154A412111700F2102F8AC
:104C2000011C80221A701A781206FCD5104B1868E5
:104C300062B6104B984298BF0A2301AC98BF584304
:104C400021460A22FEF75AFF0023E15C0A4A29B1F5
:104C500002EB430001330A2B4180F6D101335B00A4
:104C6000137004B010BD00BF0000024007000240F6
:104C7000080002407F9698000AE8FF1F08B5036805
:104C8000C9B21B68984708BD08B50368C9B21B685C
:104C9000984708BD08B50368C9B21B68984708BDA6
:104CA00008B50368C9B21B68984708BD4B0803F1F3
:104CB000376000F5D830B0FBF1F0FEF73DBF10B51E
:104CC0004B0803F1376000F5D8301446B0FBF1F023
:104CD000FEF732FF2046BDE81040FEF791BFFEF719
:104CE000B9BF0846FEF7EABF0846FFF739B80846DD
:104CF0001146FEF7FFBF08B50846FFF757F800302A
:104D000018BF012008BD08B50846FFF771F800304C
:104D100018BF012008BDFFF755B9FFF78DB9FFF7A0
:104D200061B9FFF733B9FFF79FB9FFF739B908B594
:104D30000846FFF783F8012008BD08B50846FFF7CD
:104D40007DF8012008BD10B5084614461146FFF74E
:104D5000BFF8204610BD38B508460D4600F00EFAE3
:104D6000044621462846FFF7B3F8204638BD704771
:104D7000044B00221A714FF47A711A73024A996037
:104D80001A60704778ECFF1F0855000008B50368EB
:104D9000C9B21B68984708BD08B50368C9B21B684B
:104DA000984708BD08B50368C9B21B68984708BD95
:104DB00008B50368C9B21B68984708BD4B0803F1E2
:104DC000376000F5D830B0FBF1F0FFF7F5B910B55A
:104DD0004B0803F1376000F5D8301446B0FBF1F012
:104DE000FFF7EAF92046BDE81040FFF745BAFFF7A4
:104DF0006DBA0846FFF7C2BA0846FFF711BB08466E
:104E00001146FFF7D7BA08B50846FFF731FB003067
:104E100018BF012008BD08B50846FFF74BFB00305E
:104E200018BF012008BDFFF7D5BBFFF70DBCFFF78A
:104E3000E1BBFFF7B3BBFFF71FBCFFF7B9BB08B57A
:104E40000846FFF755FB012008BD08B50846FFF7E7
:104E50004FFB012008BD10B5084614461146FFF768
:104E600091FB204610BD38B508460D4600F086F986
:104E7000044621462846FFF785FB204638BD70478B
:104E8000044B00221A714FF47A711A73024A996026
:104E90001A60704788ECFF1F6855000008B503686A
:104EA000C9B21B68984708BD08B50368C9B21B683A
:104EB000984708BD08B50368C9B21B68984708BD84
:104EC00008B50368C9B21B68984708BD4B0803F1D1
:104ED000B76000F55840B0FBF1F0FFF735BC10B5F6
:104EE0004B0803F1B76000F558401446B0FBF1F0F1
:104EF000FFF72AFC2046BDE81040FFF765BCFFF72E
:104F00008DBC0846FFF7BEBC0846FFF7FFBC08464D
:104F10001146FFF7D3BC08B50846FFF7F9FC00308F
:104F200018BF012008BD08B50846FFF713FD003083
:104F300018BF012008BDFFF79DBDFFF7D5BDFFF7E6
:104F4000A9BDFFF77BBDFFF7E7BDFFF781BD08B542
:104F50000846FFF71DFD012008BD08B50846FFF70C
:104F600017FD012008BD10B5084614461146FFF78D
:104F700059FD204610BD38B508460D4600F0FEF834
:104F8000044621462846FFF74DFD204638BD7047B0
:104F9000044B00221A714FF47A711A73024A996015
:104FA0001A60704798ECFF1FC855000070B50E4B93
:104FB0000E4DED1AAD1000241E46AC4204D056F83A
:104FC000242090470134F8E700F05AFB084D094BC4
:104FD000ED1AAD1000241E46AC4204D056F8242031
:104FE00090470134F8E770BD8C5600008C560000E5
:104FF000AC5600008C560000024B0146186800F0C9
:1050000003B800BF80E8FF1F30B500293CD051F83D
:10501000042C0B1F1D49002AB8BF9B180A680C46B8
:1050200012B95A600B6030BD93420DD219685818FE
:10503000904203D15A581144426819605A60236063
:1050400030BD994203D80A4651680029F9D1146845
:1050500015199D420AD11B682344D0188842136059
:1050600012D10868034413604B680CE002D90C238A
:10507000036030BD18681C188C4203D10C68496865
:10508000204418605960536030BD00BFACECFF1F76
:1050900070B5CD1C25F0030508350C2D38BF0C2547
:1050A000002D06463FDB8D423DD3214B1C68184640
:1050B0002146A1B10B685B1B0ED40B2B03D90B60EF
:1050C000CC18CD501FE08C4202D1626802601AE019
:1050D0004B6863600C4616E00C464968E9E7154CDE
:1050E00023681BB9304600F031F82060294630466D
:1050F00000F02CF8431C014615D0C41C24F0030416
:1051000084420AD1256004F10B00231D20F0070022
:10511000C31A0BD05A42E25070BD3046611A00F0FB
:1051200015F80130EED10C233360002070BD00BFB4
:10513000ACECFF1FA8ECFF1F0A46034903460868B2
:10514000194600F035B800BF80E8FF1F38B5064C9F
:105150000023054608462360FDF79EFB431C02D151
:10516000236803B12B6038BDC4ECFF1F034611F860
:10517000012B03F8012B002AF9D17047034613F8DD
:10518000012B002AFBD1181A0138704710B50346CD
:1051900032B111F8014B03F8014B013A002CF7D161
:1051A0001A44934203D0002103F8011BF9E710BD14
:1051B000F8B5064614460D4621B91146BDE8F8403B
:1051C000FFF766BF1AB9FFF71FFF2046F8BD00F0D2
:1051D00015F8A0420ED230462146FFF759FF074688
:1051E00050B129462246FDF78FFA30462946FFF78F
:1051F0000BFF01E02846F8BD3846F8BD51F8040C15
:10520000002802DA04390B58184404387047556EE8
:1052100061626C6520746F2073796E6320776974A6
:1052200068207468652052544300525443206861DA
:105230007320736574207468652073797374656D69
:105240002074696D6500494E54455256414C006FBB
:1052500066006F6E004A41205445204A4542454D44
:10526000003A002E0056524154413A200054495011
:105270004B414C4F3A2000524153564A455441202D
:10528000004F442000202000444F20004B41504953
:105290004A412000627574746F6E2031207374610E
:1052A00074653A2000627574746F6E2032207374D6
:1052B0006174653A200077616C6C206C6967687472
:1052C0002073746174653A20006C696768744F6E6E
:1052D00054696D653A20006C696768744F6654695B
:1052E0006D653A2000686F7572207574633A20000E
:1052F000686F75726C6F63616C3A200067617465EA
:105300005374617465313A20006761746553746148
:105310007465323A200053637265656E5069636B41
:1053200065723A2000FFFFFF00000000000000004F
:10533000B11C0000F93600001F1C1F1E1F1E1F1F7E
:105340001E1F1E1FFFFFFFFF0000000000000000E7
:10535000DD21000079220000192200002D2200002A
:1053600055220000152200004008FE4340A00440E2
:105370004408FE4344A004400018FE4300C004401B
:105380003000FE43309004403400FE43349004402B
:105390001C18FE431CC004401018FE4310C00440FB
:1053A0000818FE4308C004400C18FE430CC004401B
:1053B0000C10FE430CB004401010FE4310B004402B
:1053C0001810FE4318B004401C10FE431CB00440EB
:1053D0001410FE4314B004400418FE4304C00440FB
:1053E0000010FE4300B004400008FE4300A004404B
:1053F0000408FE4304A004400C08FE430CA0044033
:105400000808FE4308A004401418FE4314C00440DA
:105410001818FE4318C004400410FE4304B00440B2
:105420000810FE4308B004401400FE4314900440EA
:105430004C08FE434CA004400420FE4304D004402A
:105440002410FE4324B004402010FE4320B004404A
:105450002810FE4328B004402C10FE432CB004401A
:105460000020FE4300D004404808FE4348A004400A
:105470001000FE43109004400D0AFFFFFFFFFFFFE6
:105480000000000000000000113800001738000084
:10549000FD37000001380000053800000938000021
:1054A0000D38000000000000001519150001000073
:1054B00082E7FF1F1200000000020000ACE7FF1FA0
:1054C000430000000003000006E8FF1F000000008A
:1054D0000103090494E7FF1F000000000203090410
:1054E000F0E7FF1F00000000030309040AE8FF1FA4
:1054F00000000000000000000000000000000000AC
:1055000000000000000000002F4D0000474D00008B
:10551000174D00001F4D00001B4D0000234D0000E3
:10552000AD4C0000BF4C0000DF4C0000E34C00001D
:10553000E94C0000EF4C0000F74C0000074D000064
:10554000274D00002B4D00007D4C0000894C0000D1
:10555000954C0000A14C0000574D00003B4D000051
:1055600000000000000000003F4E0000574E000009
:10557000274E00002F4E00002B4E0000334E00003F
:10558000BD4D0000CF4D0000EF4D0000F34D000079
:10559000F94D0000FF4D0000074E0000174E0000BF
:1055A000374E00003B4E00008D4D0000994D00002D
:1055B000A54D0000B14D0000674E00004B4E0000AD
:1055C00000000000000000004F4F0000674F000087
:1055D000374F00003F4F00003B4F0000434F00009B
:1055E000CD4E0000DF4E0000FF4E0000034F0000D4
:1055F000094F00000F4F0000174F0000274F000019
:10560000474F00004B4F00009D4E0000A94E000088
:10561000B54E0000C14E0000774F00005B4F000008
:10562000000000000000000000000000000000007A
:10563000000000000000000000000000000000006A
:10564000000000000000000000000000000000005A
:10565000000000000000000000000000000000004A
:10566000000000000000000000000000000000003A
:10567000000000000000000000000000000000002A
:10568000F8B500BFF8BC08BC9E4670473504000062
:105690009D17000019190000FD26000021380000A8
:0C56A000714D0000814E0000914F000091
:1056AC00084B10B51C681C6054B194FAA4F2B2FA01
:1056BC0082F2054B53F822309847631E1C40F4D1FC
:1056CC0010BD00BFA0D0044070E7FF1F084B10B501
:1056DC001C681C6054B194FAA4F2B2FA82F2054B25
:1056EC0053F822309847631E1C40F4D110BD00BF04
:1056FC00A0C0044050E7FF1F084B10B51C681C608D
:10570C0054B194FAA4F2B2FA82F2054B53F8223057
:10571C009847631E1C40F4D110BD00BFA0B00440DC
:10572C0020E7FF1F084B10B51C681C6054B194FA9D
:10573C00A4F2B2FA82F2054B53F822309847631E5A
:10574C001C40F4D110BD00BFA0A00440D0E6FF1F48
:10575C00084B10B51C681C6054B194FAA4F2B2FA50
:10576C0082F2054B53F822309847631E1C40F4D14B
:10577C0010BD00BFA090044098E6FF1F4345535452
:10578C00000000010A030000780000001400000073
:10579C00F4010000900100002C010000C800000082
:1057AC006400000060EA000017000000454454004B
:1057BC00000000010302000078000000130000004C
:1057CC0060EA00002C01000012000000FFFF000046
:1057DC0013000000C8ECFF1FE5280000E5280000BE
:1057EC00E5280000E5280000E5280000E528000079
:1057FC00E5280000E5280000E5280000E528000069
:10580C00E5280000E5280000E5280000E528000058
:10581C00E5280000E5280000E5280000E528000048
:10582C00E5280000E5280000E5280000E528000038
:10583C00E5280000E5280000E5280000E528000028
:10584C00E5280000E5280000E5280000E528000018
:10585C00E5280000E5280000E5280000E528000008
:10586C00E5280000E5280000E5280000E5280000F8
:10587C00E5280000E5280000E5280000E5280000E8
:10588C00E5280000E5280000E5280000E5280000D8
:10589C00E5280000E5280000E5280000E5280000C8
:1058AC00E5280000E5280000E5280000E5280000B8
:1058BC00E5280000E5280000FFFFFFFF0A040109AE
:1058CC000A081201010102000040C0168304000204
:1058DC000102030118035400650065006E0073009B
:1058EC0079006400750069006E006F0009024300C6
:1058FC00020100C03209040000010202010005246B
:10590C0000100105240101010424020605240600EF
:10591C00010705820310004009040100020A00007F
:10592C000007050302400000070584024000000048
:10593C00160355005300420020005300650072000E
:10594C00690061006C00040309040C0300000000F2
:10595C00000000000000000000000000000000003B
:10596C000000000020560000405600006056000069
:10597C00000000000000000000000000000000001B
:10598C002852000000000000000000000000000091
:10599C0000000000000000000000000000000000FB
:1059AC0000000000000000000000000000000000EB
:1059BC0000000000000000000000000000000000DB
:0459CC0020E8FF1FB1
:00000001FF
