:1000000000200020F9000000A90C0000750C000081
:10001000750C0000750C0000750C0000750C0000DC
:10002000750C0000750C0000750C0000A90C000098
:10003000A90C0000750C0000A90C0000650C000064
:10004000A90C0000A90C0000A90C0000A90C0000DC
:10005000A90C0000A90C0000A90C0000A90C0000CC
:10006000A90C0000A90C0000A90C00002509000043
:10007000A90C0000A90C0000A90C0000A90C0000AC
:10008000ED210000A90C0000D9270000A90C0000F8
:10009000792C0000A90C0000A90C0000A90C00009C
:1000A000A90C0000A90C0000A90C0000A90C00007C
:1000B000A90C0000A90C0000A90C0000A90C00006C
:1000C000A90C0000A90C0000A90C0000A11100005F
:1000D000A90C0000A90C0000A90C0000A90C00004C
:1000E000A90C0000A90C0000A90C0000A90C00003C
:1000F000A90C0000A90C0000544B4CF2205210B582
:100100001A804DF628121A8000BF00BF00F0D0FD03
:100110004F4B504A1A60504A5A60A3F53043283B6F
:100120001A6812F4807204D14C490A604FF4A85244
:100130001A604B4B1A78110703D51A7842F008025F
:100140001A70484B2A221A700023474A47499818C8
:10015000884204D24649595899500433F5E7454A34
:10016000454B9A424FF0000302D242F8043BF7E7B6
:100170004249434A595899500433F82BF8D1414B1E
:10018000802103F8011B40498B42F9D13F4B1A6093
:100190003F4B8A221A70A3F5805324225A70A02262
:1001A0001A709A799207FCD59A79D406FCD4394B07
:1001B0009A7902F00C02082AF9D103221A7140221E
:1001C0005A719A799006FCD5324B9A795106FBD533
:1001D000314A324911600221516020221A702D4BA0
:1001E0009B7903F00C030C2BF9D12D4B2D4A1A608F
:1001F0002D4B2E4A1A6000225A60072243F8042C25
:100200002B4AC3F80C2D62B600F0B8FE134B1B68E6
:10021000DA0705D5274800F00FFE274B274A1A605A
:10022000274B1B785B0609D5234C244A236893424D
:1002300004D1204800F000FE0023236002F054FFA8
:1002400000F03CFD01F056FCFEE700BF0E2005402B
:1002500038800440823F04000100002B14D003408A
:1002600002D0074000E0074060E5FF1F6CE8FF1F79
:10027000C84100006CE8FF1FDCEBFF1F000000001E
:1002800000E1FF1F00E400E02EE400E008ED00E0E4
:100290000050064000400640448004400000030136
:1002A00004800440C010050014E000E0FF76010067
:1002B00000002020143030031CE00340A5C3945AF2
:1002C00000F00740FFFFFFFFFFFFFFFFFFFFFFFF03
:1002D000FFFFFFFFFFFFFFFFFFFFFFFFFFFFFFFF2E
:1002E000FFFFFFFFFFFFFFFFFFFFFFFFFFFFFFFF1E
:1002F000FFFFFFFFFFFFFFFFFFFFFFFFFFFFFFFF0E
:10030000FFFFFFFFFFFFFFFFFFFFFFFFFFFFFFFFFD
:10031000FFFFFFFFFFFFFFFFFFFFFFFFFFFFFFFFED
:10032000FFFFFFFFFFFFFFFFFFFFFFFFFFFFFFFFDD
:10033000FFFFFFFFFFFFFFFFFFFFFFFFFFFFFFFFCD
:10034000FFFFFFFFFFFFFFFFFFFFFFFFFFFFFFFFBD
:10035000FFFFFFFFFFFFFFFFFFFFFFFFFFFFFFFFAD
:10036000FFFFFFFFFFFFFFFFFFFFFFFFFFFFFFFF9D
:10037000FFFFFFFFFFFFFFFFFFFFFFFFFFFFFFFF8D
:10038000FFFFFFFFFFFFFFFFFFFFFFFFFFFFFFFF7D
:10039000FFFFFFFFFFFFFFFFFFFFFFFFFFFFFFFF6D
:1003A000FFFFFFFFFFFFFFFFFFFFFFFFFFFFFFFF5D
:1003B000FFFFFFFFFFFFFFFFFFFFFFFFFFFFFFFF4D
:1003C000FFFFFFFFFFFFFFFFFFFFFFFFFFFFFFFF3D
:1003D000FFFFFFFFFFFFFFFFFFFFFFFFFFFFFFFF2D
:1003E000FFFFFFFFFFFFFFFFFFFFFFFFFFFFFFFF1D
:1003F000FFFFFFFFFFFFFFFFFFFFFFFFFFFFFFFF0D
:10040000FFFFFFFFFFFFFFFFFFFFFFFFDEF9FFFF23
:1004100010B5054C237833B9044B13B10448AFF33E
:1004200000800123237010BD6CE8FF1F0000000056
:10043000C841000008B5064B1BB106480649AFF39A
:1004400000800648036813B1054B03B1984708BD07
:1004500000000000C841000070E8FF1F6CE8FF1FAB
:100460000000000038B5044608460D4602F040FF83
:10047000236802465B6820462946984738BD08B580
:10048000FFF7F0FF08BD38B50446FFF7EBFF054660
:10049000204601F037FB284438BD70477FB505ABD7
:1004A00000930A4903AA04AB02F0ECFE032809D129
:1004B000039A074B023A9A70049A5A70059A1A7076
:1004C000012000E0002007B05DF804FB4A3C00007A
:1004D00088E8FF1F30B589B004AB00930F4905AA27
:1004E00003AB02F0CFFE03280BD100240C4B05A870
:1004F00053F82410E5B202F0F1FE20B101340C2CC7
:10050000F4D1002008E0074B039A1A71049A0135D0
:100510004E325D719A71012009B030BD533C00002C
:100520003CE6FF1F88E8FF1F38B52748FFF7D2FFDA
:1005300018B12648FFF7B2FF88B900242546244B9E
:100540001B78002BFBD0234B1B789B07F7D0224B4B
:100550001A68224B1B68D31A182BF0D905E02048E3
:1005600000F060F801250446E9E7C82000F0F0FC3F
:10057000ADB11C486CB11C49FFF781FF1349194804
:10058000FFF77DFF19491748FFF779FF15480E4916
:1005900017E01749FFF777FF1248164911E016498F
:1005A0001048FFF76CFF09490E48FFF768FF134931
:1005B0000C48FFF764FF04490A48FFF760FF094849
:1005C0000F49FFF760FF38BD5C3C0000683C00004D
:1005D000DFE9FF1FF0E9FF1FFCE8FF1FD4EBFF1F5F
:1005E00088E8FF1FF4E9FF1F713C0000893C000010
:1005F000913C0000B03C0000CC3C0000FB3C000003
:10060000F93C00000A22B0FBF2F302FB130000EBFE
:100610000310C0B27047FFFF014800F03FB900BFB0
:10062000E4E8FF1FF8B5682104462D482D4D00F081
:1006300073FA00212A4800F065F88021284800F06C
:1006400061F86078FFF7DEFF0146254800F05AF8B0
:10065000A078FFF7D7FF0146214800F053F8E07873
:10066000FFF7D0FF01461E4800F04CF82079FFF755
:10067000C9FF01461A4800F045F86079FFF7C2FF4C
:100680000146174800F03EF8A0791E38C0B2FFF7C7
:10069000B9FF0146124800F035F8114800F03FFA62
:1006A000064610B100202870F8BD0D4868210127CA
:1006B0002F7000F031FA3146094800F023F8207815
:1006C000FFF7A0FF0146064800F01CF8044800F0C0
:1006D00026FA10B12E703046F8BD2F703846F8BD9E
:1006E000E4E8FF1F8FE8FF1F044BD878044B1A681B
:1006F000C0B2904218BF1860704700BF006006404B
:1007000070E6FF1F094B1B7813B9094B1B782BB1FF
:10071000084A1378202B03D9012303710020704766
:10072000581C1070044A0120D1547047F6E8FF1F8E
:10073000B9E8FF1FF7E8FF1F98E8FF1F7047FFFFAA
:10074000024B1878024B1B78C01A7047F5E8FF1F60
:10075000F4E8FF1F064A074913780978994204D93B
:10076000591C1170044AD05C70474FF0FF3070473D
:10077000F4E8FF1FF5E8FF1FBAE8FF1F054B064A24
:100780001B7812789A4286BF044AD05C4FF0FF3043
:10079000704700BFF4E8FF1FF5E8FF1FBAE8FF1F2E
:1007A00070B50E4B1B78144613B90D4B1B7893B1E3
:1007B0000C4A1578C5F121039C42164602D9012244
:1007C00002711C46084822462844254400F0B0F92E
:1007D0003570204670BD184670BD00BFF6E8FF1F9B
:1007E000B9E8FF1FF7E8FF1F98E8FF1F10B5114B8E
:1007F000DB7803F0200303F0FF045BB9122000F064
:10080000FDFA0D4B1B68A3B10C4A14700C4A10780A
:10081000984710BD0B4A13780133DBB2012B1370DC
:1008200002D8094B1B7823B91220BDE8104000F014
:10083000E5BA10BD0060064094E8FF1FF4E8FF1F12
:10084000F5E8FF1FE0E8FF1FB9E8FF1F0022027173
:100850004FF47A710273024A81600260704700BFF0
:10086000403D0000094B1B685B060DD5084B9942C3
:10087000084B01D8272204E0074A914294BF1A226C
:100880000D225A7004229A71704700BF34800440D0
:100890007F1A0600006006403F420F00174A08B565
:1008A00000231370164A116841F040011160154A87
:1008B0009370154B1B78122B03D14FF41972134B05
:1008C00004E0112B03D1124B4FF419721A60114B33
:1008D0001B78132B03D14FF419720F4B04E0102B2C
:1008E00003D10E4B4FF419721A600D49FFF7BAFF8E
:1008F000044B20225A7180229A7008BDB9E8FF1F6C
:1009000034800440006006406CE6FF1F0CA00440E9
:1009100004A0044074E6FF1F08A0044000A00440A7
:10092000A086010010B53649CB78DBB213F0100F6A
:1009300003F0400201D12AB92CE01020C870002A2F
:10094000F9D110BD03F0040303F0FF012D4AC3B138
:10095000002313702C4A13702C4B1B68144603B1F0
:10096000984723782A4A1BB9274913700120087039
:10097000234BD021997012781A71264B01221A70DC
:1009800039E001231370244B19701D4BC0229A705B
:100990001B7930E01A4CA27802F0100202F0FF013D
:1009A000AAB113F001030ED11A4917480A7800784A
:1009B000904203D9531C0B70154B9B5C2371104B59
:1009C000D0229A7017E0C023A370237913E0134B51
:1009D000032219701220124900F0C6F90E4A21793B
:1009E00013781F2BC9B206D80648007818B1581CD6
:1009F00010700C4AD154024B0222DA7010BD00BFB5
:100A00000060064090E8FF1FF7E8FF1FDCE8FF1FCB
:100A100098E8FF1FF8E8FF1FF5E8FF1FE0E8FF1F59
:100A2000ED070000BAE8FF1F044B054A49001970A2
:100A300001231370034A1370704700BF98E8FF1F2B
:100A4000F6E8FF1FF7E8FF1FF7B52D4B1222DA700B
:100A50009A7892060F4601D5B4221CE0294B1A68F9
:100A60000092009C1D46FFF73FFE00F0200000F0C2
:100A7000FF0360B12B680193019B1B1B0F2BF2D965
:100A80001F4B00229A7080229A70042036E01E4A82
:100A900013701B4BB0229A70FFF726FE8306FBD51E
:100AA00000251A4B1B78ECB2A3421FD9184B1A5DD4
:100AB000134B1A71FFF718FE860701D48006F9D48C
:100AC0000F4E0223F370FFF70FFEC10601D482061A
:100AD00003D48023B370042009E0C30705F10105A6
:100AE000DFD5002C0CBF0220032001E0002017B14D
:100AF000034B80229A70074B00221A7003B0F0BD9E
:100B000000600640FCE8FF1FB9E8FF1FF7E8FF1F81
:100B100098E8FF1FF6E8FF1FC9B2FFF785BF012164
:100B2000FFF792BF0148FFF791BE00BFE4E8FF1F47
:100B3000844641EA000313F003036DD1403A41D3E8
:100B400051F8043B40F8043B51F8043B40F8043BA7
:100B500051F8043B40F8043B51F8043B40F8043B97
:100B600051F8043B40F8043B51F8043B40F8043B87
:100B700051F8043B40F8043B51F8043B40F8043B77
:100B800051F8043B40F8043B51F8043B40F8043B67
:100B900051F8043B40F8043B51F8043B40F8043B57
:100BA00051F8043B40F8043B51F8043B40F8043B47
:100BB00051F8043B40F8043B51F8043B40F8043B37
:100BC000403ABDD2303211D351F8043B40F8043BD7
:100BD00051F8043B40F8043B51F8043B40F8043B17
:100BE00051F8043B40F8043B103AEDD20C3205D3E7
:100BF00051F8043B40F8043B043AF9D2043208D0DF
:100C0000D2071CBF11F8013B00F8013B01D30B8850
:100C100003806046704700BF082A13D38B078DD02E
:100C200010F003038AD0C3F10403D21ADB071CBF00
:100C300011F8013B00F8013B80D331F8023B20F86A
:100C4000023B7BE7043AD9D3013A11F8013B00F8A3
:100C5000013BF9D20B7803704B7843708B7883702B
:100C600060467047024B1A6801321A60704700BF35
:100C7000FCE8FF1F08B50B4C2368580301D500F0B2
:100C80008FFA2368590501D501F0B0FA23681A05D7
:100C900001D501F0A1FD2368DB04ECD501F0ECFFE8
:100CA000E9E700BF3480044008B5FFF7E3FFFFFF2A
:100CB000014B10221A807047002005407047FFFF4B
:100CC000024A1368184410601846704778E6FF1F00
:100CD000EFF313839BB9EFF3108098B9EFF305831B
:100CE00023B10F2B04D9084A985C01E04FF48070BF
:100CF000EFF311833BB1834238BF184670474FF082
:100D0000FF30704718467047F0E300E07047FFFF80
:100D100000F14040A0F592237C2B14D9A0F5942338
:100D20007C2B12D9A0F596237C2B10D9A0F5982303
:100D30007C2B06D9A0F59A207D28064828BF0020E4
:100D40007047054870470548704705487047054893
:100D5000704700BF54E7FF1F34E7FF1F7CE6FF1F0B
:100D6000B4E6FF1F04E7FF1F212870B50D4636D8F3
:100D7000042A34D8DFE802F00709050B03000B232F
:100D800006E00A2304E0082302E00C2300E0092324
:100D90001E04134B134A03EBC000134B4468C3F803
:100DA000E020124AC3F8E420114AC3F8E820114AAF
:100DB000C3F8EC202046104AC3F8F020FFF7A8FF44
:100DC00068B172B6226822F470222260C4F38403F0
:100DD00042F08072164340F82350266062B670BD20
:100DE000583D000011E6FF1F00E1FF1FE5E5FF1F72
:100DF000B9E5FF1F8DE5FF1F61E5FF1F0C4B03EBFE
:100E0000C00010B544682046FFF782FF70B172B68B
:100E1000236823F0877323F4803343F080732360C7
:100E2000C4F38404034B40F8243062B610BD00BF05
:100E3000583D00000D0D0000044B054900221A60CA
:100E40000A60044A106010221A60704714D00340F0
:100E500004D0034000D00340212810B518D80D4A13
:100E600052F8303093F880423CB1012211B183F83E
:100E7000802010BD83F8002110BD02EBC000436844
:100E80001A6811B142F0030201E022F002021A6076
:100E900010BD00BF583D0000212810B537D81C4AAE
:100EA00002EBC00301295B68144601D004290FD16D
:100EB00054F83020012082F880024FF4A2721A60A8
:100EC0001A6804290CBF42F0200222F020021DE023
:100ED00052F83020002082F8800211B18A1E012AC7
:100EE00012D84FF4807202291A6003D11A6842F0B6
:100EF00003020BE003290AD11A6842F002021A60C9
:100F00001A6822F0010201E040F203121A6010BDDB
:100F1000583D000072B60B4B0B491A680B4B1B680F
:100F2000096862B6490102D5322A88BF0133C2F589
:100F3000BB326021FF32B2FBF1F24FF47A7000FB5A
:100F40000320704718E000E004ED00E0FCE8FF1F1C
:100F500038B50446FFF7DEFF054624B938BD013C2D
:100F60000AD005F57A75FFF7D5FF401BB0F57A7FFB
:100F7000F5D200F0F7FDF6E738BDFFFF1C4B4FF44C
:100F8000807210B51A604FF400721A604FF48062DC
:100F90001A604FF400621A604FF480521A60154BC9
:100FA000154A164C00204BF6FF7118605960282333
:100FB000136093601361936113629362136393638D
:100FC0000922226004F58054043420600C4801603A
:100FD0000C490B608B600C4B1A6000F0E3FD4FF482
:100FE000C870FFF7B5FFBDE8104000F0D7BB00BFE9
:100FF00004E100E0048003400C80034000800340D3
:10100000089003400C90034000900340F0B50C4B57
:101010000C4C1A7842F0020504EBC50682F001027E
:10102000706009481A700678002E0CBF8827C82700
:1010300086F0010647EA0141067044F83510F0BD1C
:1010400068E9FF1F00E0FF1FE0E9FF1F431E032BBD
:1010500010B510D872B6094A52F8230048B1416859
:1010600042F82310064A018832F81340611A22F828
:10107000131062B610BD002010BD00BF58E9FF1F5D
:10108000C4EBFF1F013803280AD872B6054B53F88A
:101090002030002013B101305B68FBE762B6704777
:1010A00000207047ACE9FF1F10B572B60123174A44
:1010B0001A4412F8012C12071CD59900144A52F850
:1010C00031402CB902EB431308305860114B09E052
:1010D00041F0010152F8314064B902EBC10308301C
:1010E00058600D4B42F831300C4B1A78013A1A70A7
:1010F00062B610BD0133052BD9D162B6074B002271
:101100001A70BDE8104000F0A5BB00BF983E00007B
:1011100000E0FF1F88004000C8004000D6E9FF1F24
:10112000431E032B30B532D8194A400140F010005D
:10113000104472B6174CE25C032A09D8DFE802F0CB
:10114000160218050830022213E00830042210E0CD
:101150001148124A50F8234014B940F8231002E015
:1011600052F82300416042F823100FE0032200E010
:101170000522E25410F0080F01F108030A884360C9
:101180000CBF8823C82343EA0243036062B630BD24
:1011900000E0FF1F14E9FF1FACE9FF1FBCE9FF1FC0
:1011A0002DE9F84FAB4F3C78E4B214F0040F3D4604
:1011B00019D0A94B1B78A3B1A84A117801F0FF03FD
:1011C00021B1013BDBB2137003B900BEA44A117810
:1011D00001F0FF0329B1013BDBB213700BB900F042
:1011E00065FC04233B7004F0080303F0FF02002BAE
:1011F00000F067829B4B9C4C1A78D2B215094FEADB
:10120000920840F0E48104EBC803596854F8383080
:10121000C3F38303013B0C2B00F2D681DFE813F00C
:1012200095019501D401D401D401D401D401D40194
:10123000B001D401D401D4010D008C4D0A684B6873
:101240008B486B6001218B4B44F838302A60DFF803
:101250005082017092B240F2816000238242C8F84D
:1012600000302361A36117D8B2F5D06F80F01E81E2
:10127000B2F5817F00F0CF8006D8802A00F0BA80D6
:10128000822A00F0BB8031E140F202339A4200F042
:10129000D180B2F5A06F1CE042F22100824200F042
:1012A00051810ED8B2F5086F00F09E80B2F5106F34
:1012B00040F01C81684B6C4EAA781A7006F18009C8
:1012C0000AE042F221218A4200F0088142F22133F1
:1012D0009A4200F00F8109E1336A1B0603D5706A58
:1012E000083800F0B7FA08364E45F5D10026B14669
:1012F000DFF8B0A156F80A0028B1D0F804B000F029
:10130000A9FA5846F8E74AF806005B4BDFF898A1BF
:10131000F05056F80A0028B1D0F804B000F09AFA5C
:101320005846F8E7554B4AF80600F050544B23F85E
:101330001900544B19F80320023A032A08D8DFE8B1
:1013400002F002040204002200E0012203F8092056
:1013500009F10109B9F1040F06F10406C8D14A4B9D
:1013600000221A7001269A46484A494B32443344B7
:1013700012F8012C9B0012F0080F1A704FEA860930
:1013800025D000F049FA38B104EB46130830586014
:10139000404B44F8393006E09AF8003044F8390000
:1013A00001338AF8003000F037FA49F0010338B110
:1013B00004EBC302083050602E4A44F8332006E0A4
:1013C00044F833009AF8003001338AF8003049F0CD
:1013D0000202013649F003090023052E44F8323099
:1013E00044F83930C0D186E01B4B2B4C1B7823705E
:1013F0000B4683E0284C237063707EE0AA88042AA1
:1014000074D8254C920023706370244B9B5C9E071C
:1014100073D5217071E0AA8802F07F02042A65DC8E
:101420006B88002B62D191001C4A0A44117821F08C
:10143000020159E0AA8802F07F02042A56DC6B8878
:10144000002B53D19100154A0A44117841F0020152
:101450004AE000BF80200740DFE9FF1F69E9FF1F66
:10146000E1E9FF1F9020074000E0FF1FCCE9FF1FCC
:10147000E0E9FF1FC800400004E9FF1FBCE9FF1FAF
:10148000C4EBFF1F14E9FF1FD6E9FF1F983E0000C1
:1014900030C8011088004000D7E9FF1FC020074076
:1014A00000E9FF1F58E9FF1FACE9FF1F6A88A98800
:1014B0009F4B53F8084CA3F10C00BCB133F80C6CF3
:1014C000964209D133F80A6C8E4205D1120A032ADA
:1014D0000CBF2378038911E00C33EAE7954A1168C1
:1014E000954A1160A978954A117004E0944B0F2237
:1014F0001A7027E000231C4600E00223EE88B34266
:1015000038BF1E46402E34BF35464025204629466A
:10151000FFF77CFD761B2C4403D1402D12D13546BC
:1015200003E0402E34BF3546402520462946FFF7CC
:101530006DFD761B2C4401D1402D03D1814AC8F8A2
:10154000004016800122804B3DE0804B1A8842F219
:1015500021039A4210D100237D4AC85C985401337C
:10156000072BF9D11368862B02D17A4B0F221A7000
:1015700000200146FFF74AFD774B44F8383023E05E
:10158000764E3568B5B1DFF8BC81B8F80090B9F196
:10159000400F34BF4C46402428462146FFF736FD15
:1015A000C4EB09039BB2A8F800300BB9402C00D162
:1015B0002B193360654B1A88B2F5A06F04D1002255
:1015C0005A709A78664B1A7001225F4B6CE004EBFC
:1015D000C806013D736802F00802A3F10800EDB2ED
:1015E00002F0FF01002A36D000F034F95D485E4B6E
:1015F00050F82520EAB1516840F8251002F10801A1
:101600007160595D03290BD8DFE801F00204060878
:10161000032104E0022102E0052100E004215955E4
:1016200016F0080F12880CBF8823C82343EA024330
:1016300042E05A5D032A07D8DFE802F04040020486
:10164000002206E0012204E016F0080F0CBF02227F
:1016500003225A5532E054F83820120C23F8082C93
:1016600022B3DFF834E123F8061C43F8041C5EF8CB
:1016700025303E4913B94EF8250002E051F82530D7
:1016800058603B4B41F8250033F815100A4423F805
:10169000152000F0C1F810B10830706006E0354B3D
:1016A00044F838001A7801321A7007E02A4B324A9F
:1016B00016F0080F08BF134644F8383008233B7073
:1016C00070E5E0071FD520492B482C4C02230B70F6
:1016D0002B4B1A702B4B186098602B48D8601A61FE
:1016E0009A615C60164B0D2018702848FF23037028
:1016F0002B700274264A1370264B9F221A70012306
:101700000B70BDE8F88F210604D50D4B0D221A7021
:1017100080232B70A20705D51C4B1A78D2B21A7001
:1017200002232B70E30644BF10232B70BDE8F88F13
:10173000A83E0000FCE8FF1FD4EBFF1FF0E9FF1FED
:10174000C0200740D4E9FF1F94200740CCE9FF1FC9
:10175000CCEBFF1F69E9FF1FC800400000E9FF1F35
:1017600098200740ACE9FF1F14E9FF1F04E9FF1FA1
:10177000C4EBFF1FD6E9FF1F8800400018E9FF1FD8
:1017800068E9FF1F00E0FF1F6CE9FF1F882007408A
:101790008C2007408420074058E9FF1F08B501F05E
:1017A000D3FA0022184B0021D15098180832882A09
:1017B0004160F7D1154A106840F48020106002F5AE
:1017C00028326832C3F307201070C3F307401B0EA2
:1017D00010751376FF2302F81C3C02F8143C02F843
:1017E0008C3C012302F8083C82F8641002F8183C93
:1017F000074B70221A70A3F21F3308221A60054BA0
:1018000010221A7008BD00BF00E0FF1F34800440A2
:1018100023E400E00821074072B60C4A1168B1FACF
:1018200081F30B2B02D962B6002070474FF00040C5
:10183000D84021EA0001116062B6054948225343AD
:10184000C8180022CA504260704700BF5CE7FF1F03
:1018500000E2FF1F0C4B4822C31AB3FBF2F30B2B21
:1018600011D80A4A127822B1094A12780AB1FFF750
:101870001BBC72B6074A4FF0004121FA03F311680E
:101880001943116062B6704700E2FF1FD6E9FF1FDF
:10189000DFE9FF1F5CE7FF1F10B5104C23686BB139
:1018A00020684288531C0244147A0288934212D35F
:1018B000FFF7D0FF094B00221A600DE0084B1B78A0
:1018C00013B94FF0FF3010BD0320FFF7BFFB2060BE
:1018D0000028E5D1F5E74380204610BDECE9FF1F65
:1018E000DFE9FF1F10B50B4C236813B123686BB9F8
:1018F00002E0094B1B7813B94FF0FF3010BD0320F5
:10190000FFF7A4FB20600028F0D1F5E75A881344C4
:10191000187A10BDECE9FF1FDFE9FF1F044B988820
:10192000044B1B681BB11A885B88D31A1844704794
:10193000C4EBFF1FECE9FF1F10B5094B1B786BB11F
:10194000084C206818B1FFF785FF002323600320AF
:10195000FFF77CFB10B1FFF77DFFF8E710BD00BF7C
:10196000DFE9FF1FECE9FF1F2DE9F8432D4E0123AE
:1019700007460C463370002C4FD02B4D2B68A946E0
:101980002BBB4AF2F928294B1B7803F0FF020BB955
:10199000327015E00420FFF775FB072808D80123F3
:1019A0003370FFF739FFC9F8000080B91D4B18707C
:1019B000B8F101081E4B01D01A782AB101221A7021
:1019C0004FF0FF30BDE8F88300F0CCF8DBE7296882
:1019D000174A488800231370C0F14002944238BF70
:1019E000224600F1080C10448C444880A41A93420B
:1019F00004D0F85C0CF803000133F8E71F444B886F
:101A00003F2B06D940230B800420FFF789FB0023DE
:101A10002B60084B05221A70ADE734702046BDE8F4
:101A2000F88300BFE2E9FF1FE4E9FF1FDFE9FF1FC2
:101A3000E8E9FF1FE1E9FF1F07B502AB012103F849
:101A4000010D1846FFF790FF03B05DF804FBFFFFA0
:101A50002DE9F041114B1B78F3B1114E114B346855
:101A6000114D01271F7098464CB1002763882F70D5
:101A7000042023802146FFF753FB376009E0FFF77E
:101A8000CBFE014620B104202C70FFF749FB00E09B
:101A90002F70002388F80030BDE8F081DFE9FF1FD8
:101AA000E4E9FF1FE2E9FF1FE1E9FF1F38B50E4B34
:101AB0001B7803F0FF05ABB90C4C216831B14B88A2
:101AC0000B800420FFF72CFB256038BDFFF7A4FE38
:101AD000014620B10420BDE83840FFF721BB044B8C
:101AE00001221A7038BD00BFE2E9FF1FE4E9FF1FC1
:101AF000E1E9FF1F08B5FEF717FDFEF7CEFC00F089
:101B000031F8FAE707B5064B1B88ADF804300368D7
:101B100001A95B680222984703B05DF804FB00BF8F
:101B2000683E0000FFF7FABEFFF7B6BEFFF7DABE69
:101B3000FFF78EBFFFF700BF0846FFF77DBF0846DF
:101B40001146FFF711BF7047044B00221A714FF482
:101B50007A711A73024A99601A607047F4E9FF1F9C
:101B6000783E000010B50E4C2378BBB901232370DA
:101B7000FFF7D4FE08B1FFF7E6FF00F0C1FA08B1A5
:101B800001F093F900F0C4FD08B101F016FA01F07C
:101B90000FF808B101F099FA0023237010BD00BFBF
:101BA00004EAFF1F1B4B60221A70E1225A701A4B85
:101BB0001A4A19781A4B082901D1012102E00A2991
:101BC00003D139211160132205E00C290CBF352106
:101BD0003D21116012221A60124B1A78124B02B189
:101BE00001221A60114B1A78114B012A01D8802268
:101BF0000BE0042A01D8842207E0082A01D88522B4
:101C000003E0102A94BF862287221A60094B012222
:101C10001A7070470040074060E7FF1F08B003409C
:101C20000CB0034006EAFF1F20B0034061E7FF1F2E
:101C300024B0034005EAFF1F10B50023B0FBF2F407
:101C400002FB1400092894BF30303730C0B2C854AA
:101C500020460CB10133F1E7CA18547022469A426B
:101C600006DA885CCC5C8C54C8540132013BF6E740
:101C7000084610BD234B1A6842F480621A60224A5B
:101C800000231370214A1370214A1370214A1370E4
:101C9000214A1370214B1B782BB1152B07D140F231
:101CA00013321F4B02E01F4B40F213321A601E4BDF
:101CB0001B78012B05D0052B07D14FF451721B4B1C
:101CC00002E01B4B4FF451721A601A4BC0F34432BE
:101CD0001A70C0F347125A7000F01F00042202214C
:101CE00098729A70D9745A7588221A743C22DA70E4
:101CF000114B40221A70A3F544734FF480321A60DE
:101D0000704700BF348004408FEAFF1F0DEAFF1FB9
:101D100098EAFF1F90EAFF1F0CEAFF1F4EEAFF1F21
:101D200018C0044040A0044062E7FF1F1CC00440EC
:101D300044A0044000A0064010E400E0134A937859
:101D400000F0030103F0EC030B43410748BF43F0ED
:101D50001003937000F00F03042B0C4903D18B790F
:101D600043F040038B715379C20603F0EF03074A37
:101D700048BF43F0100353719379810603F0EF03DA
:101D800048BF43F010039371704700BF00A00640A6
:101D900008B5114B1B685B0500D408BD0F4B1A78C2
:101DA00002F0FF0312B1FFF7DDFEF7E70C4A4FF434
:101DB000803111600B4A0C49D37040F203120A6063
:101DC0004A600A4A13700A4A13700A4B1B680BB127
:101DD00001221A7008BD00BF348004400CEAFF1FC6
:101DE00080E100E000A0064040A004408FEAFF1F11
:101DF0000DEAFF1F08EAFF1F38B50446094B1B78A0
:101E000003F0FF05002BF9D120460121FFF744F82C
:101E100020462946FFF720F8034B53F83420034BA4
:101E20001A6038BD0CEAFF1F583D000094EAFF1FFE
:101E300010B509B140F08000144A13789842144656
:101E400022D0134A126852051DD503F07F03012BDF
:101E500004D0052B05D100220E4B01E00E4B0022D1
:101E60001A60002900F07F020CBF44236023012A7E
:101E700005D0052A07D143F44073064A02E0064A1A
:101E800043F440731360207010BD00BF62E7FF1F72
:101E9000348004401CC0044044A004400E4A13781F
:101EA000984218D00D490968490513D52BB1152B57
:101EB00005D10B4B0021196001E00A490B6028B1E4
:101EC000152807D140F21331054B02E0054B40F2D3
:101ED00013311960107070474EEAFF1F34800440C0
:101EE00018C0044040A004400D4A38B5146814F4EA
:101EF00080624FF0000410D021280A4D0AD80A4A07
:101F0000012152F830302B60FEF7C6FF2B681C70A1
:101F1000012038BD2C60204638BD104638BD00BFBA
:101F20003480044008EAFF1F583D00000E4B1B6838
:101F300013F4806316D012280C4B03D140F2023107
:101F40000B4A04E0142809D10A4A40F20231116018
:101F50005A7B42F001025A73012070475A7B02F00B
:101F6000FE025A73002070473480044000A00640EF
:101F70000CA0044014C00440F8B51D4B1B685A0562
:101F8000064633D51B4B1B680BB101221A701A4B46
:101F90001C780134402C1F4628BF0024174D2B7895
:101FA000A34218D1FEF794FE40280FDC144A13799F
:101FB0001B06F3D52B7813490133402B28BF002390
:101FC000C95CDBB2C9B2D1712B70E7E7FF28E5DD50
:101FD000FFF7C8FDE2E70B4BF6B21E550A4B012294
:101FE0001A70074BE4B2BC223C70DA70F8BD00BF37
:101FF0003480044094EAFF1F98EAFF1F90EAFF1F15
:1020000000A006400EEAFF1F0CEAFF1F274B1B68CB
:102010005A052DE9F04707468A4644D5244B1B68EC
:102020000BB101221A703D4607EB0A039D4237D2DD
:10203000DFF890801F4E98F8004096F80090013429
:10204000402C28BF00245FFA89F9A1451DD11A4B05
:10205000BC22DA70FEF73CFE40280FDC164A1379EA
:102060001B060FD5337815490133402B28BF0023B9
:10207000C95CDBB2C9B2D171337003E0FF2801DD66
:10208000FFF770FD33784B45E4D00C4B15F8012B6E
:102090001A550B4B0122E4B21A7088F80040C3E7CE
:1020A000054BBC22DA70BDE8F08700BF34800440E5
:1020B00094EAFF1F90EAFF1F00A006400EEAFF1FF0
:1020C0000CEAFF1F98EAFF1F08B5034B1B7813B1FA
:1020D000FFF748FDF9E708BD0CEAFF1F064A074B6A
:1020E0001B781078DBB2C0B283422CBF3F3000F1C6
:1020F000FF30C01A704700BF90EAFF1F98EAFF1F29
:10210000054B1878054B1B78C0B2DBB2984238BF3C
:102110004030C01A704700BF8FEAFF1F0DEAFF1F53
:1021200010B5104B10491A780B78D2B2DBB29A4234
:1021300014D00133402B28BF00230C48DCB2C05C14
:102140000C700B490968C0B251B19A4238BF403295
:10215000D31A1A2B04DC00230B7010BD4FF0FF3094
:1021600010BD00BF8FEAFF1F0DEAFF1F4FEAFF1FE0
:1021700008EAFF1F084B1A78084B1B78DBB29A421B
:1021800007D00133402B28BF0023054AD05CC0B2E2
:1021900070474FF0FF3070478FEAFF1F0DEAFF1FB7
:1021A0004FEAFF1F0C4B1B685B0514D50B4BDA780D
:1021B00002F0CB02DA7040225A74DA7842F034022C
:1021C000DA70074B1A78074BD2B21A70064B1B68AD
:1021D0000BB100221A7070473480044000A0064002
:1021E0000DEAFF1F8FEAFF1F08EAFF1F30B5374BCC
:1021F0001A7912F0300F31D072B69A7D02F0FF00DA
:1022000022B9DA7940225A7462B627E062B6304ABF
:10221000304913780978DBB2C9B214462B4AD57914
:102220005A1C402A28BF00228A42EDB202D02A4B13
:102230009D541346421E12F0FF00EFD1DAB2227015
:10224000264A126852B18B4236BFC1F14001C1EB40
:1022500003035B18272BC4BF012313701B4BD978D2
:10226000C9B20C0620D51B7918061DD51C4B1D4A7A
:102270001D781378EDB2DBB21046AB420CD0134A96
:102280000133402B1479184C28BF0023E45CE4B2DE
:10229000D471127D072AF0D9DBB203700B4B1A7987
:1022A000120644BF7C22DA704B060ED5074B1A7912
:1022B00012F0400F194608D00C4B00221A700C4B3C
:1022C0001B6803B11A703C23CB7030BD00A00640E0
:1022D0008FEAFF1F0DEAFF1F4FEAFF1F08EAFF1FEB
:1022E00098EAFF1F90EAFF1F0EEAFF1F0CEAFF1F8C
:1022F00094EAFF1F214B1A6842F400621A60204AD8
:10230000002313701F4A13701F4A13701F4A137063
:102310001F4A13701F4B1B78092B05D01A2B07D1AE
:1023200040F213321C4B02E01C4B40F213321A6095
:102330001B4B1B780A2B05D01F2B07D14FF4517272
:10234000184B02E0184B4FF451721A60174BC0F350
:1023500044321A70C0F347125A7000F01F00002276
:1023600098729A701A742C22DA70114B40221A70EB
:10237000A3F212334FF480221A6070473480044075
:102380000AEBFF1FA1EAFF1F10EBFF1F0BEBFF1F64
:10239000A0EAFF1F63E7FF1F04D004400CB0044015
:1023A00064E7FF1F00D0044010B0044000B00640B6
:1023B00012E400E0134A937800F0030103F0EC0309
:1023C0000B43410748BF43F01003937000F00F0325
:1023D000042B0C4903D18B7943F040038B71537963
:1023E000C20603F0EF03074A48BF43F010035371DE
:1023F0009379810603F0EF0348BF43F01003937114
:10240000704700BF00B0064008B51E4B1B681B0597
:1024100000D408BD1C4B1B7803F0FF0213B1FFF77B
:10242000A1FBF7E7194B4FF480211960184BDA70C4
:10243000184B1B78092B05D01A2B07D140F2031239
:10244000154B02E0154B40F203121A60144B1B7837
:1024500003F07F030A2B05D01F2B07D140F2031294
:10246000104B02E0104B40F203121A600F4A002397
:1024700013700F4A13700F4B1B680BB101221A70B7
:1024800008BD00BF34800440A0EAFF1F80E100E0E7
:1024900000B0064063E7FF1F04D004400CB00440C6
:1024A00064E7FF1F00D0044010B004400AEBFF1F98
:1024B000A1EAFF1F9CEAFF1F38B50446094B1B78B1
:1024C00003F0FF05002BF9D120460121FEF7E4FCC3
:1024D00020462946FEF7C0FC034B53F83420034B3B
:1024E0001A6038BDA0EAFF1F583D00000CEBFF1F2B
:1024F00010B509B140F08000144A13789842144690
:1025000022D0134A126812051DD503F07F030A2B4F
:1025100004D01F2B05D100220E4B01E00E4B0022F0
:102520001A60002900F07F020CBF442360230A2AAE
:1025300005D01F2A07D143F44073064A02E0064A39
:1025400043F440731360207010BD00BF64E7FF1FA9
:102550003480044000D0044010B004400F4A137887
:1025600098421AD00E490968090515D5092B04D0DF
:102570001A2B05D100210B4B01E00B4B00211960F8
:10258000092805D01A2807D140F21331054B02E083
:10259000054B40F2133119601070704763E7FF1F5D
:1025A0003480044004D004400CB004400D4A38B5D7
:1025B000146814F400624FF0000410D021280A4D72
:1025C0000AD80A4A012152F830302B60FEF764FC29
:1025D0002B681C70012038BD2C60204638BD104689
:1025E00038BD00BF348004409CEAFF1F583D000006
:1025F0000B4B1B6813F4006310D01728094B09D14B
:10260000094A40F2023111605A7B42F001025A73CA
:10261000012070475A7B02F0FE025A730020704777
:102620003480044000B0064008B00440F8B51D4BAB
:102630001B681A05064633D51B4B1B680BB10122DC
:102640001A701A4B1C780134282C1F4628BF00240E
:10265000174D2B78A34218D1FEF73AFB40280FDC28
:10266000144A13791B06F3D52B7813490133282B11
:1026700028BF0023C95CDBB2C9B2D1712B70E7E778
:10268000FF28E5DDFFF76EFAE2E70B4BF6B21E55C9
:102690000A4B01221A70074BE4B2AC223C70DA708C
:1026A000F8BD00BF348004400CEBFF1F10EBFF1F90
:1026B0000BEBFF1F00B00640A2EAFF1FA0EAFF1FBE
:1026C00038B504464518AC4204D014F8010BFFF7A6
:1026D000ADFFF8E738BDFFFF08B5034B1B7813B11A
:1026E000FFF740FAF9E708BDA0EAFF1F064A074BCB
:1026F0001B781078DBB2C0B283422CBF273000F1C8
:10270000FF30C01A704700BF0BEBFF1F10EBFF1F1D
:10271000054B1878054B1B78C0B2DBB2984238BF26
:102720004030C01A704700BF0AEBFF1FA1EAFF1F2D
:1027300010B5104B10491A780B78D2B2DBB29A421E
:1027400014D00133402B28BF00230C48DCB2C05CFE
:102750000C700B490968C0B251B19A4238BF40327F
:10276000D31A1A2B04DC00230B7010BD4FF0FF307E
:1027700010BD00BF0AEBFF1FA1EAFF1FCAEAFF1F3F
:102780009CEAFF1F084B1A78084B1B78DBB29A4271
:1027900007D00133402B28BF0023054AD05CC0B2CC
:1027A00070474FF0FF3070470AEBFF1FA1EAFF1F91
:1027B000CAEAFF1F054B1A78054BD2B21A70054BB7
:1027C0001B680BB100221A70704700BFA1EAFF1FFF
:1027D0000AEBFF1F9CEAFF1F10B5214B1A799206E6
:1027E0000FD5204AD87913781F490133402B097837
:1027F00028BF00238B42C0B203D01C49C854DBB2AF
:102800001370174AD178C9B20C0616D51379180679
:1028100013D5174B17481C780378DBB29C4202D1C2
:102820006C23D37009E00133282B28BF0023124CFE
:10283000E45CDBB2E4B2D47103704B060ED5084BF6
:102840001A7912F0400F194608D00C4B00221A706A
:102850000B4B1B6803B11A702C23CB7010BD00BF4B
:1028600000B006400AEBFF1FA1EAFF1FCAEAFF1FE4
:1028700010EBFF1F0BEBFF1FA2EAFF1FA0EAFF1FD9
:102880000CEBFF1F164B1A6842F480521A60154A6F
:1028900000231370144A1370144A1370144A1370EF
:1028A000144A1370144A40F2133111604FF45171FD
:1028B0005160124AC0F344311170C0F3471100F067
:1028C0001F0051709072937013742C23D3700C4BB3
:1028D00040221A70A3F545734FF480121A607047B6
:1028E0003480044082EBFF1F19EBFF1F88EBFF1FB2
:1028F00083EBFF1F18EBFF1F08C0044000C0064019
:1029000014E400E0134A937800F0030103F0EC03B1
:102910000B43410748BF43F01003937000F00F03CF
:10292000042B0C4903D18B7943F040038B7153790D
:10293000C20603F0EF03074A48BF43F01003537188
:102940009379810603F0EF0348BF43F010039371BE
:10295000704700BF00C0064008B5114B1B68DB0480
:1029600000D408BD0F4B1A7802F0FF0312B1FFF735
:10297000F9F8F7E70C4A4FF4801111600B4A0C4943
:10298000D37040F203120A604A600A4A13700A4A7E
:1029900013700A4B1B680BB101221A7008BD00BFEF
:1029A0003480044018EBFF1F80E100E000C00640C7
:1029B00008C0044082EBFF1F19EBFF1F14EBFF1F41
:1029C00038B50446094B1B7803F0FF05002BF9D1FD
:1029D00020460121FEF760FA20462946FEF73CFA20
:1029E000034B53F83420034B1A6038BD18EBFF1F1C
:1029F000583D000084EBFF1F10B509B140F0800086
:102A00000E4A1378984217D00D4C2468E40412D56E
:102A100003F07F03082B02D10A4B00241C6000291D
:102A200000F07F030CBF44216021082B03D1054B2C
:102A300041F440711960107010BD00BF65E7FF1FC1
:102A4000348004400CC004407047FFFF0D4A38B585
:102A5000146814F480524FF0000410D021280A4D5D
:102A60000AD80A4A012152F830302B60FEF714FAD6
:102A70002B681C70012038BD2C60204638BD1046E4
:102A800038BD00BF3480044014EBFF1F583D0000E8
:102A90000B4B1B6813F4805310D00E28094B09D13F
:102AA000094A40F2023111605A7B42F001025A7326
:102AB000012070475A7B02F0FE025A7300207047D3
:102AC0003480044000C0064004C00440F8B51D4BEB
:102AD0001B68DA04064633D51B4B1B680BB1012279
:102AE0001A701A4B1C780134282C1F4628BF00246A
:102AF000174D2B78A34218D1FEF7EAF840280FDCD7
:102B0000144A13791B06F3D52B7813490133282B6C
:102B100028BF0023C95CDBB2C9B2D1712B70E7E7D3
:102B2000FF28E5DDFFF71EF8E2E70B4BF6B21E5576
:102B30000A4B01221A70074BE4B2AC223C70DA70E7
:102B4000F8BD00BF3480044084EBFF1F88EBFF1FFB
:102B500083EBFF1F00C006401AEBFF1F18EBFF1F9F
:102B600038B504464518AC4204D014F8010BFFF701
:102B7000ADFFF8E738BDFFFF08B5034B1B7813B175
:102B8000FEF7F0FFF9E708BD18EBFF1F064A074BF9
:102B90001B781078DBB2C0B283422CBF273000F123
:102BA000FF30C01A704700BF83EBFF1F88EBFF1F89
:102BB000054B1878054B1B78C0B2DBB2984238BF82
:102BC0004030C01A704700BF82EBFF1F19EBFF1F98
:102BD00010B5104B10491A780B78D2B2DBB29A427A
:102BE00014D00133402B28BF00230C48DCB2C05C5A
:102BF0000C700B490968C0B251B19A4238BF4032DB
:102C0000D31A1A2B04DC00230B7010BD4FF0FF30D9
:102C100010BD00BF82EBFF1F19EBFF1F42EBFF1F30
:102C200014EBFF1F084B1A78084B1B78DBB29A4253
:102C300007D00133402B28BF0023054AD05CC0B227
:102C400070474FF0FF30704782EBFF1F19EBFF1FFB
:102C500042EBFF1F054B1A78054BD2B21A70054B99
:102C60001B680BB100221A70704700BF19EBFF1FE1
:102C700082EBFF1F14EBFF1F10B5294B1A79920648
:102C800020D5284AD879137827490133402B097871
:102C900028BF00238B42C0B203D02449C854D9B204
:102CA0001170234A116869B1224A1278D2B2934254
:102CB00036BFC2F14002C2EB03039B18272BC4BFEF
:102CC00001230B70164AD178C9B20C0616D51379B8
:102CD000180613D5184B17481C780378DBB29C42B2
:102CE00002D16C23D37009E00133282B28BF0023C5
:102CF000124CE45CDBB2E4B2D47103704B060ED527
:102D0000074B1A7912F0400F194608D00C4B0022DD
:102D10001A700C4B1B6803B11A702C23CB7010BDBA
:102D200000C0064082EBFF1F19EBFF1F42EBFF1FA5
:102D300014EBFF1F83EBFF1F88EBFF1F1AEBFF1F36
:102D400018EBFF1F84EBFF1F1FB572B6154B7022E7
:102D50001A70154A412111700F2102F8011C8022BE
:102D60001A701A781206FCD5104B186862B6104B10
:102D7000984298BF0A2301AC98BF584321460A22C3
:102D8000FEF75AFF0023E15C0A4A29B102EB430037
:102D900001330A2B4180F6D101335B00137004B07C
:102DA00010BD00BF000002400700024008000240C2
:102DB0007F969800EEE7FF1F08B50368C9B21B684D
:102DC000984708BD08B50368C9B21B68984708BD95
:102DD00008B50368C9B21B68984708BD08B5036801
:102DE000C9B21B68984708BD4B0803F1376000F56E
:102DF000D830B0FBF1F0FEF73DBF10B54B0803F142
:102E0000376000F5D8301446B0FBF1F0FEF732FF22
:102E10002046BDE81040FEF791BFFEF7B9BF084657
:102E2000FEF7EABF0846FFF739B808461146FEF735
:102E3000FFBF08B50846FFF757F8003018BF01205C
:102E400008BD08B50846FFF771F8003018BF01202B
:102E500008BDFFF755B9FFF78DB9FFF761B9FFF767
:102E600033B9FFF79FB9FFF739B908B50846FFF73F
:102E700083F8012008BD08B50846FFF77DF801205A
:102E800008BD10B5084614461146FFF7BFF82046A6
:102E900010BD38B508460D4600F02AFA0446214612
:102EA0002846FFF7B3F8204638BD7047044B002290
:102EB0001A714FF47A711A73024A99601A60704756
:102EC0008CEBFF1FF83E000008B50368C9B21B6811
:102ED000984708BD08B50368C9B21B68984708BD84
:102EE00008B50368C9B21B68984708BD08B50368F0
:102EF000C9B21B68984708BD4B0803F1376000F55D
:102F0000D830B0FBF1F0FFF7F5B910B54B0803F17D
:102F1000376000F5D8301446B0FBF1F0FFF7EAF95E
:102F20002046BDE81040FFF745BAFFF76DBA0846E6
:102F3000FFF7C2BA0846FFF711BB08461146FFF774
:102F4000D7BA08B50846FFF731FB003018BF01209B
:102F500008BD08B50846FFF74BFB003018BF01203D
:102F600008BDFFF7D5BBFFF70DBCFFF7E1BBFFF7CF
:102F7000B3BBFFF71FBCFFF7B9BB08B50846FFF7A7
:102F800055FB012008BD08B50846FFF74FFB01209F
:102F900008BD10B5084614461146FFF791FB2046C0
:102FA00010BD38B508460D4600F0A2F9044621468A
:102FB0002846FFF785FB204638BD7047044B0022AA
:102FC0001A714FF47A711A73024A99601A60704745
:102FD0009CEBFF1F583F000008B50368C9B21B688F
:102FE000984708BD08B50368C9B21B68984708BD73
:102FF00008B50368C9B21B68984708BD08B50368DF
:10300000C9B21B68984708BD4B0803F1B76000F5CB
:103010005840B0FBF1F0FFF735BC10B54B0803F199
:10302000B76000F558401446B0FBF1F0FFF72AFCFA
:103030002046BDE81040FFF765BCFFF78DBC084691
:10304000FFF7BEBC0846FFF7FFBC08461146FFF776
:10305000D3BC08B50846FFF7F9FC003018BF0120C3
:1030600008BD08B50846FFF713FD003018BF012062
:1030700008BDFFF79DBDFFF7D5BDFFF7A9BDFFF761
:103080007BBDFFF7E7BDFFF781BD08B50846FFF739
:103090001DFD012008BD08B50846FFF717FD0120FA
:1030A00008BD10B5084614461146FFF759FD2046E5
:1030B00010BD38B508460D4600F01AF90446214601
:1030C0002846FFF74DFD204638BD7047044B0022CF
:1030D0001A714FF47A711A73024A99601A60704734
:1030E000ACEBFF1FB83F000070B50E4B0E4DED1A54
:1030F000AD1000241E46AC4204D056F82420904760
:103100000134F8E701F04CF8084D094BED1AAD1009
:1031100000241E46AC4204D056F8242090470134C7
:10312000F8E770BDAC410000AC410000C8410000B0
:10313000AC41000030B500293CD051F8042C0B1FE5
:103140001D49002AB8BF9B180A680C4612B95A607C
:103150000B6030BD93420DD219685818904203D1CC
:103160005A581144426819605A60236030BD994230
:1031700003D80A4651680029F9D1146815199D42EF
:103180000AD11B682344D0188842136012D1086802
:10319000034413604B680CE002D90C23036030BD7C
:1031A00018681C188C4203D10C68496820441860C8
:1031B0005960536030BD00BFC0EBFF1F70B5CD1C20
:1031C00025F0030508350C2D38BF0C25002D0646CB
:1031D0003FDB8D423DD3214B1C6818462146A1B1EF
:1031E0000B685B1B0ED40B2B03D90B60CC18CD5096
:1031F0001FE08C4202D1626802601AE04B68636093
:103200000C4616E00C464968E9E7154C23681BB9E3
:10321000304600F027F820602946304600F022F8BA
:10322000431C014615D0C41C24F0030484420AD177
:10323000256004F10B00231D20F00700C31A0BD0FA
:103240005A42E25070BD3046611A00F00BF801306E
:10325000EED10C233360002070BD00BFC0EBFF1F18
:10326000BCEBFF1F38B5064C00230546084623601B
:10327000FDF726FD431C02D1236803B12B6038BD46
:10328000D8EBFF1F0EB430B59CB01FAC4FF40172E9
:1032900054F8045BADF814200290069000F028F872
:1032A0000B4B0B9300230F9314934FF6FF73ADF862
:1032B0001630084B0390079002A9186801942A461B
:1032C000234600F0F9F81CB0BDE8304003B0704769
:1032D000D932000064E8FF1F0020704710F8012B6E
:1032E00011F8013B012A28BF9A42F7D0D01A704743
:1032F000034613F8012B002AFBD1181A0138704736
:1033000084463F482DE9F04FD0F800800E46344601
:1033100014F8015B08EB0500407800F0080000F0AD
:10332000FF0708B12646F2E72D2D03D1B41C7578AE
:10333000012703E02B2D04BF7578B41C33F0100077
:103340000DD1302D08D1207800F0DF00582851D160
:1033500065781023023402E0002B08BF0A23002FF7
:103360000CBF6FF0004A4FF0004ABAFBF3F9002699
:1033700003FB19AA304608EB050B9BF801B01BF0C4
:10338000040F01D0303D0BE01BF0030B1BD0BBF151
:10339000010F14BF4FF0570B4FF0370BCBEB050568
:1033A0009D4210DAB6F1FF3F0AD0484506D801D158
:1033B000554503DC03FB0050012601E04FF0FF36CA
:1033C00014F8015BD7E7731C0CD1002F4FF02203D8
:1033D0000CBF6FF000404FF00040CCF800302AB92D
:1033E000BDE8F08F07B1404242B106B1611E1160E5
:1033F000BDE8F08F002B08BF0823B0E7BDE8F08FD1
:1034000068E8FF1F38B54B1C144602D14FF0FF305F
:1034100038BD938923F020039381536B5268CDB25A
:1034200083B1A36B9A4207DA23685A1E226003F81D
:10343000015C636801331FE0214600F08BF900282E
:10344000F2D0E3E72169236851B18B4208D913F820
:10345000010CA84204D1013B01322360626038BDF7
:10346000E36304F1440363630323A36323462264F9
:1034700003F8465F236001236360284638BD10B51A
:103480000C46496B69B104F14403994201D0FFF73E
:1034900051FE236C63600020606313B1E36B236013
:1034A00010BD2369236000236360A38943F02003D8
:1034B000A3814FF0FF3010BD2DE9F047ADF5247D1D
:1034C0000DF10C0901930023469347939C4BA29363
:1034D0009C4BCDF8209107460C469046A39398F854
:1034E0000050002D00F0248197490B682B448A4638
:1034F0005A7802F0080202F0FF03EAB16368002B79
:1035000010DD2368DAF8002019780A44527815078C
:103510000ED5479A0132479262680133013A6260E0
:103520002360EBE7A39B3846214698470028E8D064
:1035300008F10106B046D2E7252D08F101064FD16A
:103540004593439398F801302A2B03D110234393DA
:1035500008F102063178A1F13003092B354606F156
:10356000010606D8459B0A2202FB0313303B459314
:10357000F0E7DFF8DC810322404600F07DFA40B13D
:10358000C8EB0008439B012000FA08F00343439373
:1035900035466E1C2D78672D0FD8652D78D25B2DA2
:1035A00054D005D8002D00F0C580252D18D071E02D
:1035B000632D57D0642D3FD06CE0702D32D007D8EA
:1035C0006E2D55D03AD8692D64D10023449339E04B
:1035D000752D31D0782D29D0732D5BD102233FE09A
:1035E0006368002B0DDD23681A78AA4240F0A080A2
:1035F000013362682360479B013A0133626047935D
:1036000098E7A39B3846214698470028EBD0469878
:10361000002800F08F80A38913F0400F18BF4FF0EF
:10362000FF3089E0439B43F020034393439B43F4E3
:1036300000734393102302E00A2300E008236E2D59
:10364000449301DC03230BE0042309E031464846A0
:1036500000F047FA439B43F040034393064601239F
:1036600049931BE0439B43F0400343930023F7E758
:10367000439AD0063FF55EAF12F0010F019A479BC7
:1036800002F104010191126814BF1380136051E725
:103690000523E5E7032349930A2344936368002B3A
:1036A00003DD439B590611D518E0A39B38462146FC
:1036B00098470028F5D0AAE7479A013247926268F6
:1036C000013A002A626013DD013323602368DAF8CF
:1036D000002019780A4452781207EDD4499B022B36
:1036E0000DDC384643A9224601AB00F06FF819E023
:1036F000A39B3846214698470028E7D087E7042B4C
:1037000006DC384643A9224601AB00F0BFF809E0C9
:103710000E4B002B3FF40EAF384643A9224601ABB7
:10372000AFF30080012803D002287FF403AF6EE7D7
:10373000469801E04FF0FF300DF5247DBDE8F0879D
:10374000053400007F34000068E8FF1F000000001F
:10375000124000002DE9F0410C46496B04F144038E
:1037600099421CD14FF48061FFF728FD18B94FF042
:10377000FF30BDE8F0814FF48063A36394F84630D6
:10378000606380F8FF3394F8453080F8FE3394F896
:10379000443080F8FD3300F2FD30206012E0A66B6B
:1037A00077003A4600F077F905460028DFD000EBB5
:1037B0000608404629463246FDF7BAF9C4F80080AB
:1037C0006563A7630020BDE8F081FFFF2DE9F041AC
:1037D00015468A6880460C4632B98A69002A14BFA9
:1037E0004FF0FF3201228A602268D10603D41A68A2
:1037F000111D196017680026A069E0B92368DA0670
:1038000006F1010603D42B681B783B7001372A6848
:103810006B6801322A60A268013B013A6B60A260CA
:1038200012B3002BE8DCD4F8803140462946984793
:103830000028E1D018E0012807D12A6811786269D0
:10384000525C002ADAD1EEB10EE0022801D04EB16E
:103850000AE02A680C49127809680A44527813076A
:10386000CCD5F4E701280DD0236813F0100305D15F
:10387000E2680132E260A26902B13B7023691E4432
:1038800026610020BDE8F08168E8FF1F2DE9F04FB8
:10389000984689B0744B0C4605A90291814616469C
:1038A00093E80700029B83E80700A3696F4A704909
:1038B000032B08BF1146A36803915A1EB2F5AE7FD1
:1038C00007D96FF4AE7503EB050A40F25D13A360F0
:1038D00001E04FF0000A236804F11C0743F4506331
:1038E0002360BB460023326805A951F823001178F4
:1038F0000193022200F0C0F8019B002835D0012B73
:103900000BD162682AB908226260226842F4007210
:103910002260226822F4A0620BE0022B0AD1226806
:1039200002F4C061B1F5007F1FD11021616042F443
:1039300080722260A268511EA160B2B13268511C2F
:10394000316012788BF800207268013A002A0BF17E
:103950000105726008DC0193D4F8802148463146A5
:103960009047019B002840D1AB460133032BBAD1CD
:1039700063680BB90A23636063683E496069C91ACA
:1039800000F0AFF85D464FF0000BA368002B2ED07F
:10399000326860691178405C48B3302921680BD1E6
:1039A000080509D50BF1010BBAF1000F0AD001335C
:1039B0000AF1FF3AA36005E021F410612160137859
:1039C0002B7001357368013B002B736003DD336896
:1039D0000133336005E0D4F88031484631469847DA
:1039E00028B9A368013BA360CFE74FF0000B236821
:1039F000D9050DD5BD4209D915F8011CD4F87C3183
:103A000048463246984705F1FF3A5546BD4226D012
:103A1000226812F010021BD12A706368039E484688
:103A20003946B0472268D8F8003012F0200F07D18D
:103A3000D20705D51A1DC8F800201B68188004E0BD
:103A40001A1DC8F800201B681860E3680133E360A2
:103A50002369ED1BAB445B442361002000E001209F
:103A600009B0BDE8F08F00BF18400000013300002E
:103A7000493B00003440000010B5C9B202449042F6
:103A8000034606D01C788C4200F10100F7D118469D
:103A900010BD002010BDF8B5064614460D4621B9EC
:103AA0001146BDE8F840FFF789BB1AB9FFF742FBA2
:103AB0002046F8BD00F0C0F8A0420ED230462146A4
:103AC000FFF77CFB074650B129462246FDF730F848
:103AD00030462946FFF72EFB01E02846F8BD384660
:103AE000F8BDF0B50B785E2B02D04C1C002102E033
:103AF0008C1C4B780121002281540132B2F5807F69
:103B0000FAD10BB9651E1CE0C1F10107FEB2C65423
:103B1000621C12F8011C2D2902F1FF35144604D055
:103B20005D290DD069B10B46F0E715785D2DFAD00F
:103B30009D42F8DB0133AB42C654FBDB0232E8E7BF
:103B400015462846F0BDFFFF84463A482DE9F04F60
:103B5000D0F800800E46344614F8015B08EB0500EF
:103B6000407800F0080000F0FF0708B12646F2E7B1
:103B70002D2D03D1B41C7578012703E02B2D04BF34
:103B80007578B41C33F010000DD1302D08D1207899
:103B900000F0DF00582847D165781023023402E096
:103BA000002B08BF0A234FF0FF39B9FBF3F903FBE1
:103BB00009FA00266FEA0A0A304608EB050B9BF863
:103BC00001B01BF0040F01D0303D0BE01BF0030BE4
:103BD0001AD0BBF1010F14BF4FF0570B4FF0370B4A
:103BE000CBEB05059D420FDA002E08DB484506D8D1
:103BF00001D1554503DC03FB0050012601E04FF0E5
:103C0000FF3614F8015BD8E7002E05DA2223CCF842
:103C100000304FF0FF3001E007B1404242B106B141
:103C2000611E1160BDE8F08F002B08BF0823BAE7C2
:103C3000BDE8F08F68E8FF1F51F8040C002802DA95
:103C400004390B5818440438704725643A25643AFF
:103C500025640025732025642025640041756720B4
:103C6000203320323031370031363A34393A32316C
:103C70000044533133303720636F6E666967757265
:103C800065642054696D653D002C20446174653D78
:103C90000044533133303720436F6D6D756E696367
:103CA0006174696F6E204572726F72203A2D7B00CD
:103CB000506C6561736520636865636B20796F750F
:103CC000722063697263756974727900436F756CF1
:103CD00064206E6F7420706172736520696E666F08
:103CE0002066726F6D2074686520636F6D70696CFB
:103CF00065722C2054696D653D2200222C204461A0
:103D000074653D22004A616E00466562004D617235
:103D100000417072004D6179004A756E004A756C01
:103D20000041756700536570004F6374004E6F76F5
:103D30000044656300FFFFFF00000000000000007A
:103D400005070000A107000041070000550700001B
:103D50007D0700003D0700004008FE4340A00440EE
:103D60004408FE4344A004400018FE4300C0044041
:103D70003000FE43309004403400FE433490044051
:103D80001C18FE431CC004401018FE4310C0044021
:103D90000818FE4308C004400C18FE430CC0044041
:103DA0000C10FE430CB004401010FE4310B0044051
:103DB0001810FE4318B004401C10FE431CB0044011
:103DC0001410FE4314B004400418FE4304C0044021
:103DD0000010FE4300B004400008FE4300A0044071
:103DE0000408FE4304A004400C08FE430CA0044059
:103DF0000808FE4308A004401418FE4314C0044001
:103E00001818FE4318C004400410FE4304B00440D8
:103E10000810FE4308B004401400FE431490044010
:103E20004C08FE434CA004400420FE4304D0044050
:103E30002410FE4324B004402010FE4320B0044070
:103E40002810FE4328B004402C10FE432CB0044040
:103E50000020FE4300D004404808FE4348A0044030
:103E60001000FE43109004400D0AFFFFFFFFFFFF0C
:103E70000000000000000000391B00003F1B000094
:103E8000251B0000291B00002D1B0000311B00001A
:103E9000351B00000000000000151915000100008E
:103EA00066E7FF1F120000000002000090E7FF1FFE
:103EB0004300000000030000EAE7FF1F00000000CD
:103EC0000103090478E7FF1F000000000203090452
:103ED000D4E7FF1F0000000003030904EEE7FF1F03
:103EE00000000000000000000000000000000000D2
:103EF00000000000000000006B2E0000832E000078
:103F0000532E00005B2E0000572E00005F2E000095
:103F1000E92D0000FB2D00001B2E00001F2E0000CD
:103F2000252E00002B2E0000332E0000432E000013
:103F3000632E0000672E0000B92D0000C52D000083
:103F4000D12D0000DD2D0000932E0000772E000003
:103F500000000000000000007B2F0000932F0000F5
:103F6000632F00006B2F0000672F00006F2F0000F1
:103F7000F92E00000B2F00002B2F00002F2F000028
:103F8000352F00003B2F0000432F0000532F00006F
:103F9000732F0000772F0000C92E0000D52E0000DF
:103FA000E12E0000ED2E0000A32F0000872F00005F
:103FB00000000000000000008B300000A330000073
:103FC000733000007B300000773000007F3000004D
:103FD000093000001B3000003B3000003F30000083
:103FE000453000004B3000005330000063300000CB
:103FF0008330000087300000D92F0000E52F00003B
:10400000F12F0000FD2F0000B330000097300000BA
:104010004300686C4C00FFFF364000003940000050
:104020003C400000412D46612D6638393031323335
:10403000343536375D002B2D0030300078580000C5
:104040002020202020202020202828282828202048
:104050002020202020202020202020202020202060
:1040600088101010101010101010101010101010D8
:1040700004040404040404040404101010101010B8
:104080001041414141414101010101010101010191
:1040900001010101010101010101011010101010C5
:1040A0001042424242424202020202020202020262
:1040B000020202020202020202020210101010208A
:1040C00000000000000000000000000000000000F0
:1040D00000000000000000000000000000000000E0
:1040E00000000000000000000000000000000000D0
:1040F00000000000000000000000000000000000C0
:1041000000000000000000000000000000000000AF
:10411000000000000000000000000000000000009F
:10412000000000000000000000000000000000008F
:10413000000000000000000000000000000000007F
:10414000000000000000000000000000000000006F
:10415000000000000000000000000000000000005F
:10416000000000000000000000000000000000004F
:10417000000000000000000000000000000000003F
:10418000000000000000000000000000000000002F
:10419000000000000000000000000000000000001F
:1041A000F8B500BFF8BC08BC9E4670473504000057
:1041B00019060000250B0000491B0000AD2E000071
:0841C000BD2F0000CD3000000E
:1041C800084B10B51C681C6054B194FAA4F2B2FAFA
:1041D80082F2054B53F822309847631E1C40F4D1F5
:1041E80010BD00BFA0D0044054E7FF1F084B10B516
:1041F8001C681C6054B194FAA4F2B2FA82F2054B1E
:1042080053F822309847631E1C40F4D110BD00BFFC
:10421800A0C0044034E7FF1F084B10B51C681C60A1
:1042280054B194FAA4F2B2FA82F2054B53F8223050
:104238009847631E1C40F4D110BD00BFA0B00440D5
:1042480004E7FF1F084B10B51C681C6054B194FAB2
:10425800A4F2B2FA82F2054B53F822309847631E53
:104268001C40F4D110BD00BFA0A00440B4E6FF1F5D
:10427800084B10B51C681C6054B194FAA4F2B2FA49
:1042880082F2054B53F822309847631E1C40F4D144
:1042980010BD00BFA09004407CE6FF1F053D000054
:1042A800093D00000D3D0000113D0000153D0000D6
:1042B800193D00001D3D0000213D0000253D000086
:1042C800293D00002D3D0000313D00001200000096
:1042D800FFFF000013000000DCEBFF1F0D0D0000C6
:1042E8000D0D00000D0D00000D0D00000D0D00005E
:1042F8000D0D00000D0D00000D0D00000D0D00004E
:104308000D0D00000D0D00000D0D00000D0D00003D
:104318000D0D00000D0D00000D0D00000D0D00002D
:104328000D0D00000D0D00000D0D00000D0D00001D
:104338000D0D00000D0D00000D0D00000D0D00000D
:104348000D0D00000D0D00000D0D00000D0D0000FD
:104358000D0D00000D0D00000D0D00000D0D0000ED
:104368000D0D00000D0D00000D0D00000D0D0000DD
:104378000D0D00000D0D00000D0D00000D0D0000CD
:104388000D0D00000D0D00000D0D00000D0D0000BD
:104398000D0D00000D0D00000D0D00000D0D0000AD
:1043A8000D0D00000D0D00000D0D00000D0D00009D
:1043B8000D0D00000D0D00000D0D0000FFFFFFFFAB
:1043C8000A0401090A081201010102000040C0168E
:1043D800830400020102030118035400650065000C
:1043E8006E00730079006400750069006E006F004C
:1043F80009024300020100C0320904000001020260
:10440800010005240010010524010101042402060D
:104418000524060001070582031000400904010075
:10442800020A000000070503024000000705840295
:1044380040000000160355005300420020005300BE
:1044480065007200690061006C00040309040C0334
:104458000000000000000000000000000000000054
:104468000000000000000000404100006041000022
:104478008041000000000000000000000000000073
:1044880000000000104000000000000000000000D4
:104498000000000000000000000000000000000014
:1044A8000000000000000000000000000000000004
:1044B80000000000000000000000000000000000F4
:0C44C8000000000004E8FF1F3F4000005F
:00000001FF
