:1000000000200020F9000000C52A0000912A00000D
:10001000912A0000912A0000912A0000912A0000F4
:10002000912A0000912A0000912A0000C52A0000B0
:10003000C52A0000912A0000C52A0000812A00007C
:10004000C52A0000C52A0000C52A0000C52A0000F4
:10005000C52A0000C52A0000C52A0000C52A0000E4
:10006000C52A0000C52A0000C52A0000F9240000A6
:10007000C52A0000C52A0000C52A0000C52A0000C4
:100080002D440000C52A0000194A0000C52A0000BE
:10009000B94E0000C52A0000C52A0000C52A00008C
:1000A000C52A0000C52A0000C52A0000C52A000094
:1000B000C52A0000C52A0000C52A0000C52A000084
:1000C000C52A0000C52A0000C52A00004D310000E5
:1000D000C52A0000C52A0000C52A0000C52A000064
:1000E000C52A0000C52A0000C52A0000C52A000054
:1000F000C52A0000C52A0000544B4CF2205210B50E
:100100001A804DF628121A8000BF00BF02F0DEFCF4
:100110004F4B504A1A60504A5A60A3F53043283B6F
:100120001A6812F4807204D14C490A604FF4A85244
:100130001A604B4B1A78110703D51A7842F008025F
:100140001A70484B2A221A700023474A47499818C8
:10015000884204D24649595899500433F5E7454A34
:10016000454B9A424FF0000302D242F8043BF7E7B6
:100170004249434A595899500433F82BF8D1414B1E
:10018000802103F8011B40498B42F9D13F4B1A6093
:100190003F4B8A221A70A3F5805324225A70A02262
:1001A0001A709A799207FCD59A79D406FCD4394B07
:1001B0009A7902F00C02082AF9D103221A7140221E
:1001C0005A719A799006FCD5324B9A795106FBD533
:1001D000314A324911600221516020221A702D4BA0
:1001E0009B7903F00C030C2BF9D12D4B2D4A1A608F
:1001F0002D4B4BF67F321A6000225A60072243F8DB
:10020000042C2A4AC3F80C2D62B602F08DFE134B63
:100210001B68DA0705D5264802F0D6FD254B264A8D
:100220001A60264B1B785B0609D5224C224A2368AC
:10023000934204D11E4802F0C7FD0023236005F05D
:1002400039FF02F049FC03F02BFCFEE70E200540CD
:1002500038800440823F04000100002B14D003408A
:1002600002D0074000E0074060E5FF1F5CE8FF1F89
:10027000807C00005CE8FF1FD4ECFF1F0000000042
:1002800000E1FF1F00E400E02EE400E008ED00E0E4
:100290000050064000400640448004400000131116
:1002A00004800440C010050014E000E0000020209D
:1002B0003E1D57031CE00340A5C3945A00F00740BD
:1002C000FFFFFFFFFFFFFFFFFFFFFFFFFFFFFFFF3E
:1002D000FFFFFFFFFFFFFFFFFFFFFFFFFFFFFFFF2E
:1002E000FFFFFFFFFFFFFFFFFFFFFFFFFFFFFFFF1E
:1002F000FFFFFFFFFFFFFFFFFFFFFFFFFFFFFFFF0E
:10030000FFFFFFFFFFFFFFFFFFFFFFFFFFFFFFFFFD
:10031000FFFFFFFFFFFFFFFFFFFFFFFFFFFFFFFFED
:10032000FFFFFFFFFFFFFFFFFFFFFFFFFFFFFFFFDD
:10033000FFFFFFFFFFFFFFFFFFFFFFFFFFFFFFFFCD
:10034000FFFFFFFFFFFFFFFFFFFFFFFFFFFFFFFFBD
:10035000FFFFFFFFFFFFFFFFFFFFFFFFFFFFFFFFAD
:10036000FFFFFFFFFFFFFFFFFFFFFFFFFFFFFFFF9D
:10037000FFFFFFFFFFFFFFFFFFFFFFFFFFFFFFFF8D
:10038000FFFFFFFFFFFFFFFFFFFFFFFFFFFFFFFF7D
:10039000FFFFFFFFFFFFFFFFFFFFFFFFFFFFFFFF6D
:1003A000FFFFFFFFFFFFFFFFFFFFFFFFFFFFFFFF5D
:1003B000FFFFFFFFFFFFFFFFFFFFFFFFFFFFFFFF4D
:1003C000FFFFFFFFFFFFFFFFFFFFFFFFFFFFFFFF3D
:1003D000FFFFFFFFFFFFFFFFFFFFFFFFFFFFFFFF2D
:1003E000FFFFFFFFFFFFFFFFFFFFFFFFFFFFFFFF1D
:1003F000FFFFFFFFFFFFFFFFFFFFFFFFFFFFFFFF0D
:10040000FFFFFFFFFFFFFFFFFFFFFFFFDEF9FFFF23
:1004100010B5054C237833B9044B13B10448AFF33E
:1004200000800123237010BD5CE8FF1F0000000066
:10043000807C000008B5064B1BB106480649AFF3A7
:1004400000800648036813B1054B03B1984708BD07
:1004500000000000807C000060E8FF1F5CE8FF1FD8
:100460000000000038B50C46054602F0D3FA84427D
:1004700005D028462146BDE8384002F0DFBA38BD35
:1004800002F0C8BA38B5044608460D4605F002FF2A
:10049000236802465B6820462946984738BD08B560
:1004A00003681B68984708BD08B5FFF7EBFF08BD58
:1004B00038B50446FFF7E6FF0546204603F02AFB61
:1004C000284438BD38B5044603F06CFB0546204689
:1004D00003F020FB284438BD10B5424801F004FE6B
:1004E00001F0FAFD022814BF3F4940494048FFF798
:1004F000DFFF0C20012102F0A5FC0C20012102F0FD
:1005000073FC0B20012102F09DFC0B20012102F065
:100510006BFC0A20012102F095FC0A20012102F067
:1005200063FC0920012102F08DFC0920012102F069
:100530005BFC0820012102F085FC0820012102F06B
:1005400053FC0720012102F07DFC0720012102F06D
:100550004BFC0420022102F075FC0620022102F06F
:1005600071FC2448062101F0A9F92248052101F077
:10057000BDF91720022102F065FC1F48172101F088
:100580009DF91D48052101F0B1F91520022102F065
:1005900059FC1A48152101F091F91848052101F07C
:1005A000A5F91620022102F04DFC1548162101F094
:1005B00085F91348052101F099F90520022102F07F
:1005C00041FC1048052101F079F90E48052101F0A0
:1005D0008DF90D48102102220023BDE8104001F0E2
:1005E00015BB00BF751A0000BC760000D87600006D
:1005F000ECEAFF1F80E8FF1F94E8FF1F9CE8FF1F45
:10060000A4E8FF1FACE8FF1FB8E8FF1F08B50E48BD
:1006100001F0BAF918B10D4B1A68002A08DC0C4831
:1006200001F0B2F978B1094B1A68032A06DD08BD5A
:10063000013A1A60074B00221A70F0E701321A6083
:10064000044B00221A7008BD9CE8FF1F3CE9FF1F05
:10065000A4E8FF1F25E9FF1F70B50E4801F048F917
:100660000D4801F079F998B90B4801F081F9B0F51E
:10067000FA6F0DD9094E347854B9094B09481C60FA
:10068000094B01251D7001F07DFB3470284670BDBB
:10069000002070BDA4E8FF1F94E8FF1F41E9FF1F81
:1006A00028E9FF1FB8E8FF1FD4E8FF1F30B5284D29
:1006B0008DB068462C2103F020FB296864240A22AF
:1006C00091FBF4F108A803F0F8FA694608A803F0D2
:1006D0005FFB696891FBF4F103F063FB694603F08B
:1006E00057FBA96891FBF4F103F05BFB694603F04B
:1006F0004FFBE96891FBF4F103F053FB694603F00B
:1007000047FB296991FBF4F103F04BFB114C0146C7
:1007100004A803F0B7FA08A803F06CFA20460022F8
:10072000042101F055FA20460B49FFF7BDFE0122D6
:100730002046032101F04CFA04A9204603F0C9F930
:1007400004A803F057FA684603F054FA0DB030BD20
:100750000CE9FF1FB8E8FF1FF476000010B5144C39
:100760000121082002F040FB206802F0C7FB0121B4
:10077000092002F039FB606802F0C0FB01210A2069
:1007800002F032FBA06802F0B9FB01210B2002F05D
:100790002BFBE06802F0B2FB0C20012102F024FBED
:1007A000206902F0ABFB034B00221A7010BD00BFA2
:1007B0000CE9FF1F24E9FF1F08B50720012102F003
:1007C00013FB024B00221A7008BD00BF78E8FF1F20
:1007D00010B5144C00210C2002F006FB206802F03A
:1007E0008DFB00210B2002F0FFFA606802F086FB0F
:1007F00000210A2002F0F8FAA06802F07FFB002135
:10080000092002F0F1FAE06802F078FB08200021EC
:1008100002F0EAFA206902F071FB034B01221A7020
:1008200010BD00BF0CE9FF1F24E9FF1F08B507201A
:10083000002102F0D9FA024B01221A7008BD00BF54
:1008400078E8FF1FF8B5044601F04EFB8C4B8D4D48
:100850001A6890421F46C0F2CF80204601F044FB48
:10086000894B1B68984200F3C780884B1B78002B8C
:1008700040F0C280864B1B78002B40F0BD80FFF714
:10088000A7FF204601F030FB2A68904217DB204684
:1008900001F02AFB7F4B1B68984210DC042002F019
:1008A000C3FA012806460AD1784B1B781BB9FFF71B
:1008B0008FFF794B1E70794B1A68794B1A6020466E
:1008C00001F012FB3B689842C0F2B780204601F06D
:1008D0000BFB6D4B1B68984200F3AF80714B1B788C
:1008E000002B40F0AA80704B1B78002B40F0A580B5
:1008F000FFF79CFF204601F0F7FA2B68984217DBC0
:10090000204601F0F1FA634B1B68984210DC04208A
:1009100002F08AFA012804460AD1624B1B781BB9FF
:10092000FFF784FF614B1C705C4B1A685C4B1A60CC
:100930005F4801F029F868B3574B1A781C463AB162
:1009400000221A70FFF70AFF594800F0D1FF21E09A
:100950004F4B4E4A19781D4651B1137813B1FFF72A
:10096000FDFE01E0FFF734FF00232B70237011E040
:1009700001211970494B19684E4B1960137813B156
:10098000FFF7ECFE01E0FFF723FF002323704A4B43
:1009900001221A70494800F0F7FF00286ED0434B3F
:1009A0001A781C462AB100221A70BDE8F840FFF7F9
:1009B00003BF3D4B3B4A19781D4651B1137813B123
:1009C000FFF7FAFE01E0FFF731FF00232B702370E1
:1009D000F8BD01211970314B1968394B1960137832
:1009E00013B1FFF7E9FE01E0FFF720FF00232370BA
:1009F000344B01221A70F8BD204601F075FA2A68BE
:100A00009042FFF63EAF204601F06EFA214B1B6884
:100A100098423FF736AF1D4B1B78002B3FF431AFA8
:100A20001D4B1B78002B7FF42CAF194B1B78002B30
:100A30007FF427AFFFF792FE23E7204601F054FA38
:100A40002B689842FFF656AF204601F04DFA114B45
:100A50001B6898423FF74EAF124B1B78002B3FF4B8
:100A600049AF124B1B78002B7FF444AF0E4B1B7821
:100A7000002B7FF43FAFFFF79FFE3BE7F8BD00BFC1
:100A800054E9FF1FB4E8FF1F90E8FF1F24E9FF1F90
:100A900089E8FF1F7CE8FF1F88E8FF1F60E9FF1F50
:100AA00044E9FF1F78E8FF1F40E9FF1F48E9FF1FE7
:100AB00080E8FF1F38E9FF1F79E8FF1FACE8FF1F40
:100AC00058E9FF1F50E9FF1F092810B5044603DC51
:100AD00004483021FFF7E3FC21460248BDE81040FE
:100AE00003F060B8B8E8FF1F70B5274C274E00210F
:100AF0000A460546204601F06BF8284601F0F4F955
:100B0000FFF7E2FF31462046FFF7CEFC284601F012
:100B1000F3F9FFF7D9FF31462046FFF7C5FC284619
:100B200001F0F2F9FFF7D0FF00222046092101F081
:100B30004FF820461649174EFFF7B6FC2046DF2136
:100B4000FFF7ADFC20461449FFF7AEFC012203215C
:100B5000204601F03DF8284601F0DEF9FFF7B4FF2A
:100B600031462046FFF7A0FC284601F0E5F9FFF7E3
:100B7000ABFF31462046FFF797FC284601F0E4F929
:100B8000BDE87040FFF7A0BFB8E8FF1FFD7600008A
:100B900030E9FF1FFF760000D676000038B5114C13
:100BA00000210A46204601F013F80F492046FFF7BE
:100BB0007BFC0E4B18684EF66025B0FBF5F0FFF796
:100BC00083FF20460021012201F002F82046084957
:100BD000FFF76AFC074B1868B0FBF5F0BDE838403A
:100BE000FFF772BFB8E8FF1F0177000020E9FF1F81
:100BF0000977000008E9FF1F10B5134C00222046BA
:100C0000042100F0E5FF20461049FFF74DFC0122CA
:100C10002046022100F0DCFF0D492046FFF744FC8E
:100C20000C4B1868FFF750FF20460B49FFF73CFCC0
:100C300020460A49FFF738FC094B1868BDE8104008
:100C40000130FFF741BF00BFB8E8FF1F1377000076
:100C50001D77000054E9FF1F217700002477000072
:100C600090E8FF1F10B5124C00222046052100F02D
:100C7000AFFF20460F49FFF717FC01222046022153
:100C800000F0A6FF0C492046FFF70EFC0B4B18683E
:100C9000FFF71AFF20460A49FFF706FC20460949DC
:100CA000FFF702FC084BBDE810401868FFF70CBFC7
:100CB000B8E8FF1F287700001D770000B4E8FF1F89
:100CC00021770000247700007CE8FF1F70B50546FF
:100CD00026480C46164600F057FE002845D023480B
:100CE00000F046FEB0F5FA7F00D370BD721E032AF5
:100CF0003BD8DFE802F002121F2C1CB1A4F56A44B5
:100D0000603C01E04EF660240DB9194B00E0194B30
:100D10001C60BDE87040FFF741BF0CB1013C00E032
:100D200017240DB9144B00E0144B1C60BDE8704053
:100D3000FFF762BF0CB1013C00E017240DB9104B66
:100D400000E0104B1C60BDE87040FFF78BBF013C1A
:100D50000D4B53F82420632AD4BF0022643A43F891
:100D60002420BDE87040FFF7A1BC70BD9CE8FF1FC8
:100D700020E9FF1F08E9FF1F54E9FF1F90E8FF1F4C
:100D8000B4E8FF1F7CE8FF1F0CE9FF1F70B50546A4
:100D90000C461646224800F0DFFD00283ED12048D0
:100DA00000F0E6FDB0F57A7F38D9022E0ED10CB1F5
:100DB000013C00E017240DB91A4B00E01A4B1C60EF
:100DC000174800F095FDFFF717FF0FE0032E11D035
:100DD000012EDFD1ECB1A4F56A44603CE5B9134BB8
:100DE0001C600F4800F084FDFFF7D8FE962002F04B
:100DF00085F8CFE70CB1013C00E017240DB90C4B8E
:100E000000E00C4B1C60064800F072FDFFF72AFF63
:100E1000ECE74EF66024E1E7074BE1E770BD00BF69
:100E20009CE8FF1F54E9FF1F90E8FF1F20E9FF1F08
:100E3000B4E8FF1F7CE8FF1F08E9FF1F70B50546F7
:100E400023480C46164600F09FFD00283ED020485F
:100E500000F08EFDB0F5FA7F00D370BD721E032A3C
:100E600034D8DFE802F0020E1B2804F56A4460342F
:100E70000DB9184B00E0184B1C60BDE87040FFF73F
:100E80008DBE172C94BF013400240DB9134B00E024
:100E9000134B1C60BDE87040FFF7AEBE172C14BFAB
:100EA000013400240DB90F4B00E00F4B1C60BDE86E
:100EB0007040FFF7D7BE013C0C4B53F8242064323E
:100EC00043F82420BDE87040FFF7F0BB70BD00BFC1
:100ED000A4E8FF1F20E9FF1F08E9FF1F54E9FF1FD7
:100EE00090E8FF1FB4E8FF1F7CE8FF1F0CE9FF1F1D
:100EF000F8B505460C461646204800F02DFD07467D
:100F000000283AD11D4800F033FDB0F57A7F34D97E
:100F1000022E0ED1172C94BF01343C460DB9184B4C
:100F200000E0184B1C60154800F0E2FCFFF764FE7F
:100F30000EE0032E10D0012EDED104F56A44603499
:100F4000CDB9114B1C600D4800F0D2FCFFF726FE16
:100F5000962001F0D3FFCFE7172C14BF01343C4695
:100F60000DB90A4B00E00A4B1C60044800F0C0FCBD
:100F7000FFF778FEECE7074BE4E7F8BDA4E8FF1FB6
:100F800054E9FF1F90E8FF1F20E9FF1FB4E8FF1F8F
:100F90007CE8FF1F08E9FF1F38B504469E4800F0B3
:100FA000FBFE012C39D100249C4800F0A1FC9C4898
:100FB00000F09EFC9B4800F09BFC984800F0E4FC8D
:100FC00008B184F00104944814B90821224601E0D4
:100FD0000A21012200F0FCFD93482146FFF772FA36
:100FE0008E4800F0BDFC10B1904B00221A70FFF744
:100FF00033FBB8B18E4B19684EF66024B1FBF4F1A7
:101000000A20C9B2FFF72EFA8A4B1B68B3FBF4F132
:101010000B20C9B2FFF726FA38BD022C08BF002406
:1010200051D07CE094B9834D01222968FFF74EFE30
:10103000204629680122FFF7A9FE204629680122DF
:10104000FFF7FCFE20462968012212E0784D0120BE
:1010500002462968FFF73AFE012002462968FFF799
:1010600095FE012002462968FFF7E8FE0120296865
:101070000246FFF73DFF97E76748002C37D106216E
:10108000012200F0A5FD654800F06AFC10B1674B35
:1010900000221A70FFF7E0FA58BB002C44D1664DCD
:1010A00002222968FFF712FE204629680222FFF774
:1010B0006DFE204629680222FFF7C0FE20462968FF
:1010C0000222FFF715FF554800F012FC544800F0CB
:1010D0000FFC544800F00CFC4F4800F05DFE4F48F8
:1010E00000F052FC0028C7D084F00104C4E70D21B1
:1010F000C6E7514B514C19780120FFF7B3F921781D
:101100000220FFF7AFF921684D4B172903D10021C9
:101110001960032000E1013119600320FBE0032C7A
:1011200008BF002439D060E0444D01202968022224
:10113000FFF7CCFD012029680222FFF727FE0120DE
:1011400029680222FFF77AFE0120B8E73248002C16
:1011500034D10621012200F03BFD304800F000FCB4
:1011600010B1324B00221A70FFF776FA40BB002C08
:1011700040D1334D03222968FFF7A8FD2046296896
:101180000322FFF703FE204629680322FFF756FEDD
:10119000204629680322FFF7ABFE204800F0A8FB99
:1011A0001F4800F0A5FB1F4800F0A2FB1B4800F001
:1011B000EBFB0028CAD084F00104C7E70D21C9E782
:1011C0001F4C03202178FFF74DF91E4B042019789E
:1011D000FFF748F92168194B19B917211960022046
:1011E0009AE001391960022095E0042C08BF01241F
:1011F00033D038BD134D012029680322FFF766FD67
:10120000012029680322FFF7C1FD0120296803227C
:10121000FFF714FE0120BCE7B8E8FF1F94E8FF1FAA
:101220009CE8FF1FA4E8FF1FECEAFF1F41E9FF1F36
:1012300008E9FF1F20E9FF1F54E9FF1F90E8FF1F87
:10124000B4E8FF1F7CE8FF1F21460422FFF73EFDA4
:10125000284621460422FFF7F1FD314800F048FB03
:10126000304800F045FB304800F042FB2C4800F0CD
:101270008BFB18B1042C03D8013408E0012C06D1F3
:101280002A480321012200F0A3FC012415E0022CCE
:1012900002D1264805210DE0032C02D12348072165
:1012A00008E0042C02D12148092103E0052C04D1D7
:1012B0001E480B21012200F08BFC194800F050FB66
:1012C00010B11B4B00221A70FFF7C6F90546002823
:1012D000BAD0184D2968642491FBF4F10520C9B2F5
:1012E000FFF7C0F8696891FBF4F10620C9B2FFF777
:1012F000B9F8A96891FBF4F10720C9B2FFF7B2F879
:10130000E96891FBF4F10820C9B2FFF7ABF82B694B
:10131000092093FBF4F1C9B2BDE83840FFF7A2B849
:1013200094E8FF1F9CE8FF1FA4E8FF1FB8E8FF1F19
:1013300041E9FF1F0CE9FF1F2DE9F04FA548A64E1C
:10134000A64FA74CA74DDFF84083DFF84093DFF8A6
:101350001CB3DFF820A385B002F0DCFB00F07CFEBC
:10136000A14A30600146A14800F078FFA04B3860E8
:101370001B680393039B9F48236000F0B9FA9E48C3
:1013800000F0B6FA9D4800F0B3FA9D4800F0B0FABC
:101390009C4800F0ADFA3868FFF754FA9A498D4836
:1013A000FFF782F8DFF8E8C28A489CF80010CDF811
:1013B00004C0FFF787F895498648FFF775F8297844
:1013C0008448FFF77FF892498248FFF76DF898F854
:1013D00000108048FFF776F88E497E48FFF764F8E2
:1013E00099F800107B48FFF76DF88B497948FFF7B3
:1013F0005BF83068894E00F077FD01467548FFF7CD
:1014000061F887497348FFF74FF8386800F06CFDC2
:1014100001467048FFF756F882496E48FFF744F8D6
:101420009BF800106B48FFF74DF87F496948FFF7BC
:101430003BF831786748FFF745F87C496548FFF786
:1014400033F8DAF800106348FFF73CF87849614850
:10145000FFF72AF8774B5F481968FFF733F87649AA
:101460005C48FFF721F8754B5A481968FFF72AF8CE
:1014700073495848FFF718F8724B56481968FFF738
:1014800021F871495348FFF70FF8704B514819681C
:10149000FFF718F800F000FB6D4B052118600122E2
:1014A0006C4B01F06FFB6C4A23681168DDF804C0D7
:1014B000591A6A4B1A68914267469A4615D33B7887
:1014C0009BB1674B1A7832B10193FFF747F9019B43
:1014D00000221A7007E098F8003013B1FFF73EF9C8
:1014E00001E0FFF775F900233B705E4B21681A6835
:1014F0005D4F891A3A689142984607D39BF80030AD
:1015000023B1FFF72BF9594B00221A70584A236870
:1015100012689B1ADAF80020934216D32B78A3B1F5
:10152000DFF870A19AF800302BB1FFF745F90023DE
:101530008AF8003007E099F8003013B1FFF73CF962
:1015400001E0FFF773F900232B70D8F80030226810
:10155000D21A3B689A4206D3337823B1FFF72CF9AD
:101560002E4B00221A70434A1368042B00F2FF80AE
:10157000DFE803F0031292ADC600184B3E4C18682A
:10158000FFF7B2FA237823B93C4800F017FB012398
:101590002370FFF73BF8EAE0374C237833B937483C
:1015A00000F00CFBFFF7FAFA012323701248344CC9
:1015B00000F0D2F9002840F0BB800F4800F0D8F9C5
:1015C000B0F5FA6F40F2B4802E4B1B78002B00F080
:1015D000BF80ADE0ECEAFF1F2CE9FF1F8CE8FF1F86
:1015E00060E9FF1F40E9FF1F4CE9FF1FD8E8FF1F1C
:1015F000F4E9FF1F80E8FF1F94E8FF1F9CE8FF1F2E
:10160000A4E8FF1FACE8FF1F30770000417700001F
:1016100057770000527700006577000048E9FF1F08
:10162000707700007C7700008977000096770000D3
:10163000A577000054E9FF1FB377000090E8FF1F73
:10164000C1770000B4E8FF1FCE7700007CE8FF1FE1
:101650005CE9FF1F30E9FF1F38E9FF1F08E9FF1FA2
:1016600079E8FF1F44E9FF1F20E9FF1F88E8FF1FFB
:1016700058E9FF1F3CE9FF1F25E9FF1FB8E8FF1FDE
:1016800028E9FF1FD4E8FF1F24E9FF1F78E8FF1FA8
:1016900089E8FF1F50E9FF1F364C237833B93648DD
:1016A00000F08CFAFFF7A8FA012323703348344C7A
:1016B00000F052F900283BD1304800F059F9B0F55C
:1016C000FA6F35D92F4B1B78002B46D030E0294CD0
:1016D000237833B9284800F071FAFFF7C3FA0123E1
:1016E00023702648264C00F037F908BB234800F049
:1016F0003FF9B0F5FA6F1BD9224B1B787BB317E08B
:101700001C4C237833B91C4800F058FAFEF7CEFF82
:101710000123237019481A4C00F01EF940B91748EC
:1017200000F026F9B0F5FA6F02D9164B1B78C3B159
:101730002068002802DDFFF72FFC01E0FEF766FFBE
:101740000E4800F00DF990B10E4B00221A700EE019
:101750000D4A012323601370EAE7022302E003230A
:1017600000E004232360084B01221A70E0E705B073
:10177000BDE8F08F25E9FF1FB8E8FF1F94E8FF1FC1
:1017800028E9FF1FD4E8FF1F41E9FF1F30B587B0EC
:1017900001F0FCF8354B364C0FCB01AD85E80F005E
:1017A000E368009394E80E003248334C00F0AAFC42
:1017B0000120FEF765FE314B18600220FEF760FE47
:1017C0002F4B18600320FEF75BFE2E4B18600420A1
:1017D000FEF756FE2C4B18600520FEF751FE6425DF
:1017E00010FB05F020600620FEF74AFE10FB05F016
:1017F00060600720FEF744FE10FB05F0A0600820A3
:10180000FEF73EFE10FB05F0E0600920FEF738FE13
:1018100010FB05F50A202561FEF732FE4EF6602426
:101820001A4B604318600B20FEF72AFE184B6043EA
:1018300018600F210E220D238DE80E00154814218B
:101840001122102300F07CFA134800F02FF81348FF
:1018500000F02CF8124800F029F8124800F026F8A1
:10186000114807B0BDE8304000F020B83CE6FF1F4B
:101870004CE6FF1FD8E8FF1F0CE9FF1F54E9FF1FCC
:1018800090E8FF1FB4E8FF1F7CE8FF1F08E9FF1F77
:1018900020E9FF1FB8E8FF1F80E8FF1F94E8FF1F43
:1018A0009CE8FF1FA4E8FF1FACE8FF1F00220A21ED
:1018B000026081808271C2717047FFFF37B5CDB27F
:1018C0000446C571284601F0AFFA0023A3712846EB
:1018D00001F0AAFA08B10323A371034B1B6801931B
:1018E000019B236003B030BDF4E9FF1F8180704786
:1018F0007FB50446C07901F097FAA1790030C1F3B1
:10190000400218BF012001F0F7039042A371114A71
:1019100006D012680192019A226083F0020313E05C
:1019200015680295029E2568751BA688B5420CD3E2
:1019300001F00101814208D012680392039A2260EB
:1019400083F0010343F00803A371A079C0F3C00042
:1019500004B070BDF4E9FF1F807900F0010070470A
:10196000807900F00900B0F10903584258417047EE
:10197000044B00681B6882B00193019B181A02B0E7
:10198000704700BFF4E9FF1F807900F00900B0F153
:101990000803584258417047030903EB830300F0E2
:1019A0000F0000EB4300C0B27047FFFF014800F09A
:1019B0005FBD00BFDCE9FF1F38B5682104462B4836
:1019C00000F013FF0021294800F086FC274800F0B2
:1019D0000FFF274B054610B10020187038BD0122BB
:1019E0001A7068210722214800F0FAFE1F4800F013
:1019F00091FC062838DD1D4800F096FC054600F0F5
:101A00007F00FFF7C9FF2070184800F08DFCC0B2BE
:101A1000FFF7C2FF6070154800F086FC00F03F0041
:101A2000FFF7BAFFA070114800F07EFCC0B2FFF7CC
:101A3000B3FFE0700D4800F077FCC0B2FFF7ACFFD9
:101A400020710A4800F070FCC0B2FFF7A5FF60717A
:101A5000064800F069FCC0B2FFF79EFF1E30A0717F
:101A6000E843C0F3C01038BD284638BDDCE9FF1F8D
:101A700064E9FF1F07B56846FFF79EFF10B168468F
:101A800000F06CFA03B05DF804FB08B50368C9B256
:101A90001B68984708BDFFFF38B5144C68212046E5
:101AA00000F0A3FE11212046FFF7EFFF204600F0D3
:101AB0009FFE02226821204600F092FE204600F0A0
:101AC00033FC0546204600F02FFCC0F3871004F0DD
:101AD00037F94FF07A5104F087F9044668B204F000
:101AE0002FF90146204604F077F838BDDCE9FF1FE6
:101AF00038B5002104461025C07901F075F92B4650
:101B0000013B7FF4FDAF0121E07901F06DF9013D6A
:101B10007FF4FDAF0021E07901F066F94FF4C8636E
:101B2000013B7FF4FDAF38BD70B505460E4600247D
:101B30002B1946FA04F1187A01F00101013401F081
:101B400053F9042CF4D12846BDE87040FFF7D0BF0C
:101B500070B505460E4600242B1946FA04F1187A92
:101B600001F00101013401F03FF9082CF4D12846BD
:101B7000BDE87040FFF7BCBF38B504460D4640795C
:101B8000114601F031F9A079FF2802D0002101F0BF
:101B90002BF9237CDB06204604D52946BDE83840D6
:101BA000FFF7D6BF2909FFF7BFFF20462946BDE84A
:101BB0003840FFF7B9BF0022FFF7DEBF08B50121AB
:101BC000FFF7F9FF4FF4FA43013B7FF4FDAF08BD87
:101BD00008B5037D032A28BF03229A4224BF03F1DC
:101BE000FF32D2B20244537D194461F07F01C9B281
:101BF000FFF7E1FF08BD08B5417C41F004024274E3
:101C000041F00C01FFF7D7FF08BDFFFF012A38B5EF
:101C1000044603D9007C40F0080020740020607561
:101C20004020E17501442275A07521762BB1012A6F
:101C300003D1237C43F0040323746079012101F074
:101C400001F9A079FF2802D0012101F0FBF8E07929
:101C5000012101F0F7F80025237C13F0100F0CBFD1
:101C6000042308239D4206DA63190121187A01F042
:101C7000E9F80135F0E7304B013B7FF4FDAF00217F
:101C8000607901F0B1F8E079002101F0ADF8A079B8
:101C9000FF2802D0002101F0A7F8217C274D11F088
:101CA000100F20461BD10321FFF73EFF2B46013BBF
:101CB0007FF4FDAF03212046FFF736FF013D7FF49F
:101CC000FDAF03212046FFF72FFF4FF41663013BC2
:101CD0007FF4FDAF02212046FFF726FF17E041F019
:101CE0002001FFF768FF013D7FF4FDAF217C204616
:101CF00041F02001FFF75FFF4FF41663013B7FF4D3
:101D0000FDAF217C204641F02001FFF754FF217CEC
:101D1000204641F02001FFF74EFF04236374204664
:101D2000FFF769FF2046FFF749FF0223A37420460F
:101D30000621FFF740FF38BD00350C0040190100B7
:101D400070B503729DF8103043729DF814304171E4
:101D5000002583720A4E9DF818300571FF21044654
:101D600006608171C271C372057345738573C57353
:101D70000574102101222B46FFF748FF204670BD55
:101D8000E877000008B5417C01F0FD01417441F0A5
:101D90000801FFF710FF08BD08B5417C41F00202C1
:101DA000427441F00A01FFF706FF08BD08B50122A1
:101DB000FFF7E2FE012008BD3C23B0FBF3F203FB7A
:101DC00012000870B2FBF3F003FB10234B701823D2
:101DD000B0FBF3F203FB12008870131D0720B3FB66
:101DE000F0F0C0EBC0001B1AF0B501330024CB703B
:101DF0002046E7B207F2B27313F0030612D164254E
:101E000093FBF5FC05FB1C357DB94FF4C87593FBBE
:101E1000F5FC05FB1C35002D40F26D1508BF4FF495
:101E2000B77504E040F26D1501E04FF4B775284432
:101E3000904204F10104DCD98F7196B9642493FBBC
:101E4000F4F504FB15347CB94FF4C87493FBF4F536
:101E500004FB1534002C40F26D1408BF4FF4B77426
:101E600004E040F26D1401E04FF4B774041B141B3E
:101E7000642293FBF2F702FB17374FF4C87293FB0F
:101E8000F2F002FB10330022D5B2012D06D146B983
:101E90004FB9002B0CBF1D201C2005E00948105C29
:101EA00002E01C2000E01D20844205D301320C2AF0
:101EB000C0EB0404E8D11546013501344D710C71B5
:101EC000F0BD00BFF077000038B5054C236898429C
:101ED000054603D00349FFF76FFF256038BD00BFFB
:101EE00068E9FF1F6CE9FF1F08B5FFF7EDFF014B25
:101EF000987808BD6CE9FF1F08B5FFF7E5FF014BB7
:101F0000587808BD6CE9FF1F08B5FFF7DDFF014BEE
:101F1000187808BD6CE9FF1F08B5FFF7D5FF014B26
:101F2000187908BD6CE9FF1F08B5FFF7CDFF014B1D
:101F3000D87808BD6CE9FF1F08B5FFF7C5FF014B56
:101F4000587908BD6CE9FF1F08B5FFF7BDFF024BCC
:101F5000987900F2B27008BD6CE9FF1FF0B52B4B09
:101F6000817940F2B2724B43A2F2B2748C4214DA1D
:101F7000940710D1642492FBF4F504FB152434B9C2
:101F80004FF4C87492FBF4F504FB15241CB903F557
:101F9000A83303F5C0730132E6E701F2B27164229F
:101FA00091FBF2F502FB15154FF4C87291FBF2F6A6
:101FB000447902FB16160122A24214DA022A08D141
:101FC0008F0706D105B926B903F5181303F56E532B
:101FD00007E00F4FDFF83CC0174417F8017C0CFBFB
:101FE00007330132E8E742788478C2EB02129100AD
:101FF0004FF4616202FB0412017800790A4405493A
:10200000013801FB00201844F0BD00BF8033E1011E
:10201000F077000080510100094B1860094B1B68E4
:102020001844094B1860094B02221A70084B82B001
:102030001B680193019A074B1A6002B0704700BFFA
:1020400074E9FF1F5CE6FF1F84E9FF1F78E9FF1FAB
:10205000F4E9FF1F80E9FF1F73B5184C1849236886
:102060000A681848006801900198801AB0F57A7FD4
:1020700002F57A7603F1010502D32B463246F0E7EA
:10208000114D0A602A6823609A4213D80F4B1B68CF
:1020900083B1984710B1FFF7BFFF0BE00C4B1A68F4
:1020A000064B1B6813442B600A4B1A78003218BF8A
:1020B00001221A70206802B070BD00BF74E9FF1FD2
:1020C00080E9FF1FF4E9FF1F84E9FF1F7CE9FF1F80
:1020D0005CE6FF1F78E9FF1F08B5FFF7BDFF014B66
:1020E000187808BD78E9FF1F034B1860034B1A6886
:1020F000034B1A60FFF7B0BF7CE9FF1F74E9FF1FB5
:1021000084E9FF1F84B030B504AC84E80E000546B6
:1021100094E80F0085E80F0008AB0FCB05F1100421
:1021200084E80F002846BDE8304004B07047FFFF48
:1021300084B0F7B509A880E80E009DF82A500D9AE2
:102140009DF82C303DB90133DBB20C2B05D90124AD
:102150000132234602E02C4600E001249DF82D10B8
:102160008DF8021000214E328DF801108DF800100C
:10217000684601218DF805308DF806208DF8041091
:10218000FFF7ECFE9DF82B700646FFF7CDFE381AE0
:10219000C31D072293FBF2F2013CC2EBC202C4EB67
:1021A000C4049B1A06481C4400FB04601DB9A0F53A
:1021B0001320A0F5286003B0BDE8F04004B07047DC
:1021C0008051010037B50191C368009304460D4664
:1021D00090E80E00FFF7ACFFE3690093019504F16E
:1021E00010030ECBA0622046FFF7A2FFE169A26AAE
:1021F000E0626FF03B0303FB01222262E26803FB13
:102200000200606203B030BD70B5054608460C465A
:10221000FFF79AFE0646286AFFF796FE864206D02A
:102220002046FFF791FE01462846FFF7CBFF686A7C
:102230002B6A98420ED006DD9C420BDB8442ACBF79
:102240000020012070BD844206DB9C42B4BF002008
:10225000012070BD002070BD012070BDF8B504469E
:1022600008460D461646FFF76FFE0746206AFFF741
:102270006BFE874206D02846FFF766FE01462046E1
:10228000FFF7A0FF20462946FFF7BEFF3C2310B111
:102290003460E06803E004F11002E069326003FB9F
:1022A0000050F8BD044BD878044B1A68C0B2904275
:1022B00018BF1860704700BF0060064064E6FF1F4B
:1022C00008B5FFF7EFFF8307FBD5024B0222DA7058
:1022D00008BD00BF00600640094B1B7813B9094BCD
:1022E0001B782BB1084A1378202B03D901230371E3
:1022F00000207047581C1070044A0120D1547047C8
:10230000EEE9FF1FB1E9FF1FEFE9FF1F90E9FF1F93
:102310007047FFFF024B1878024B1B78C01A7047BA
:10232000EDE9FF1FECE9FF1F064A0749137809781A
:10233000994204D9591C1170044AD05C70474FF07F
:10234000FF307047ECE9FF1FEDE9FF1FB2E9FF1F07
:10235000054B064A1B7812789A4286BF044AD05C25
:102360004FF0FF30704700BFECE9FF1FEDE9FF1FA2
:10237000B2E9FF1F70B50E4B1B78144613B90D4B15
:102380001B7893B10C4A1578C5F121039C4216467F
:1023900002D9012202711C460848224628442544DD
:1023A00000F030FA3570204670BD184670BD00BF91
:1023B000EEE9FF1FB1E9FF1FEFE9FF1F90E9FF1FE3
:1023C00010B5114BDB7803F0200303F0FF045BB979
:1023D000122000F0DBFC0D4B1B68A3B10C4A1470FB
:1023E0000C4A1078984710BD0B4A13780133DBB2C2
:1023F000012B137002D8094B1B7823B91220BDE8BA
:10240000104000F0C3BC10BD006006408CE9FF1F07
:10241000ECE9FF1FEDE9FF1FD8E9FF1FB1E9FF1F3E
:10242000002202714FF47A710273024A81600260E5
:10243000704700BF08780000094B1B685B060DD58C
:10244000084B9942084B01D8272204E0074A9142E1
:1024500094BF1A220D225A7004229A71704700BF4D
:10246000348004407F1A0600006006403F420F009F
:10247000174A08B500231370164A116841F040014D
:102480001160154A9370154B1B78122B03D14FF432
:102490001972134B04E0112B03D1124B4FF4197234
:1024A0001A60114B1B78132B03D14FF419720F4B89
:1024B00004E0102B03D10E4B4FF419721A600D4932
:1024C000FFF7BAFF044B20225A7180229A7008BD90
:1024D000B1E9FF1F348004400060064060E6FF1F42
:1024E0000CA0044004A0044068E6FF1F08A00440BC
:1024F00000A00440A086010010B53649CB78DBB2BD
:1025000013F0100F03F0400201D12AB92CE0102083
:10251000C870002AF9D110BD03F0040303F0FF01D5
:102520002D4AC3B1002313702C4A13702C4B1B6827
:10253000144603B1984723782A4A1BB927491370D8
:1025400001200870234BD021997012781A71264B04
:1025500001221A7039E001231370244B19701D4BAE
:10256000C0229A701B7930E01A4CA27802F0100257
:1025700002F0FF01AAB113F001030ED11A49174866
:102580000A780078904203D9531C0B70154B9B5C62
:102590002371104BD0229A7017E0C023A3702379C7
:1025A00013E0134B032219701220124900F0A4FB10
:1025B0000E4A217913781F2BC9B206D80648007835
:1025C00018B1581C10700C4AD154024B0222DA7018
:1025D00010BD00BF0060064088E9FF1FEFE9FF1F44
:1025E000D4E9FF1F90E9FF1FF0E9FF1FEDE9FF1F8E
:1025F000D8E9FF1FC1230000B2E9FF1F044B054AC1
:102600004900197001231370034A1370704700BF0B
:1026100090E9FF1FEEE9FF1FEFE9FF1FF7B52D4B14
:102620001222DA709A7892060F4601D5B4221CE085
:10263000294B1A680092009C1D46FFF733FE00F0FC
:10264000200000F0FF0360B12B680193019B1B1B6E
:102650000F2BF2D91F4B00229A7080229A7004200F
:1026600036E01E4A13701B4BB0229A70FFF71AFE19
:102670008306FBD500251A4B1B78ECB2A3421FD969
:10268000184B1A5D134B1A71FFF70CFE860701D425
:102690008006F9D40F4E0223F370FFF703FEC10644
:1026A00001D4820603D48023B370042009E0C30759
:1026B00005F10105DFD5002C0CBF0220032001E04D
:1026C000002017B1034B80229A70074B00221A702A
:1026D00003B0F0BD00600640F4E9FF1FB1E9FF1F41
:1026E000EFE9FF1F90E9FF1FEEE9FF1F2DE9F04121
:1026F0001546364A1F4600231370354A1370354B72
:102700000C461221D970997811F0200F904601D013
:10271000B4220BE0FFF7C6FD00F0200000F0FF023E
:102720000028F7D12C4B1A702A4BB022640044F0D9
:102730000104284E9A70E4B23471FFF7C1FDFFF72F
:10274000B1FD10F0110004D08023B3700020BDE86B
:10275000F08135B9002F0CBFA0238023B370BDE8F2
:10276000F081012D0CBFA823A023B370337900247E
:10277000012D184E12D0013DFFF7A2FDEDB2012D43
:1027800004BFA823B3701F2C06D8124A1179134A2C
:10279000631C1155DCB2EBE73379E9E7FFF790FDF5
:1027A000B0231F2C2546B37005D80C4B32795A55EF
:1027B0000134E4B200E0337917B1064B80229A70FD
:1027C00088F800402046BDE8F08100BFECE9FF1F1B
:1027D000EDE9FF1F00600640B1E9FF1FB2E9FF1FEE
:1027E000C9B2D2B20123FFF781BFC9B2FFF706BF5A
:1027F0000121FFF713BFFFFF0148FFF711BE00BF24
:10280000DCE9FF1F844641EA000313F003036DD1A6
:10281000403A41D351F8043B40F8043B51F8043BA3
:1028200040F8043B51F8043B40F8043B51F8043BAA
:1028300040F8043B51F8043B40F8043B51F8043B9A
:1028400040F8043B51F8043B40F8043B51F8043B8A
:1028500040F8043B51F8043B40F8043B51F8043B7A
:1028600040F8043B51F8043B40F8043B51F8043B6A
:1028700040F8043B51F8043B40F8043B51F8043B5A
:1028800040F8043B51F8043B40F8043B51F8043B4A
:1028900040F8043B403ABDD2303211D351F8043BEA
:1028A00040F8043B51F8043B40F8043B51F8043B2A
:1028B00040F8043B51F8043B40F8043B103AEDD299
:1028C0000C3205D351F8043B40F8043B043AF9D2EA
:1028D000043208D0D2071CBF11F8013B00F8013BBD
:1028E00001D30B8803806046704700BF082A13D3CA
:1028F0008B078DD010F003038AD0C3F10403D21AE2
:10290000DB071CBF11F8013B00F8013B80D331F815
:10291000023B20F8023B7BE7043AD9D3013A11F895
:10292000013B00F8013BF9D20B7803704B78437000
:102930008B7883706046704701B5EAB1102A17DBC7
:1029400000F0070333B1C3F10803D21A013B00F8CA
:10295000011BFBDCC9B241EA012141EA01418C467D
:10296000D308013BE0E8021CFBDC12F0070203D0B5
:10297000013A00F8011BFBDC01BD00BF024B1B78D4
:10298000DB07FBD5704700BF010002407FB51C4B41
:102990006A4603F110056E4618685968144603C468
:1029A0000833AB422246F7D1164B1A7812F0020FC9
:1029B0001D461CD0144A154B117811F0700118BF38
:1029C000117080221A70002203F8032C33221A712E
:1029D0000322DA7072B60C4C46F001062046B0476E
:1029E00062B6237813F0700301D0237005E0084B22
:1029F0002A78D20701D4013BFAD104B070BD00BFE0
:102A00002078000001000240000002400700024060
:102A1000410D0300B0F5006F10B504460AD2064B15
:102A20001B78DB0701D4FFF7B1FF04F1A054207835
:102A3000C0B210BD002010BD01000240B0F5006F13
:102A400038B504460D4615D20B4B1B78DB0701D475
:102A5000FFF79CFF04F1A0542378AB420AD0074B48
:102A60001A7812F0700218BF1A702570BDE838404D
:102A7000FFF784BF38BD00BF0100024000000240E4
:102A8000024B1A6801321A60704700BFF4E9FF1F59
:102A900008B50B4C2368580301D500F057FB236899
:102AA000590501D501F0C2FC23681A0501D501F0D2
:102AB000B3FF2368DB04ECD502F0FEF9E9E700BFC1
:102AC0003480044008B5FFF7E3FFFFFF014B1022FD
:102AD0001A807047002005407047FFFF024A1368C4
:102AE00018441060184670476CE6FF1FEFF313831D
:102AF0009BB9EFF3108098B9EFF3058323B10F2B47
:102B000004D9084A985C01E04FF48070EFF3118318
:102B10003BB1834238BF184670474FF0FF307047D3
:102B200018467047F0E300E010B50023B0FBF2F464
:102B300002FB1400092894BF30303730C0B2C854AB
:102B400020460CB10133F1E7CA18547022469A426C
:102B500006DA885CCC5C8C54C8540132013BF6E741
:102B6000084610BD031E10B50C4603DBBDE810403F
:102B7000FFF7DABF2D2001F8010B5842FFF7D4FF11
:102B8000204610BD2DE9F74F8B46924611469846D8
:102B90006A4601AB03F081FA009E8146BAF1000F4C
:102BA0000BD156B990F800903A4B3B4A0125B9F148
:102BB000340F8CBF9146994608E0484603F06AFB03
:102BC000B0420546C8BF451C06B90135019A02B19D
:102BD0000135C5EB0B04002C08EB050708DD274485
:102BE00043464444A34204D0202103F8011BF9E7E3
:102BF000444612B12D2323700134002E07D1BAF1BF
:102C0000000F1ED02346302203F8022B27E018DAEB
:102C1000BAF1000F15D02346302203F8022B2E22E2
:102C20006270013732469C1B002AC6F10001144431
:102C300004DA1944302088540132F4E7009200E0AD
:102C40001C46BC420FD2631C19F8012B2270BB42F8
:102C500008D0009A013A0092002AF1D1A31C2E223A
:102C60006270EDE73C46BBF1000F0DDA5D446D424A
:102C700023466219D21A002A03DD202203F8012B11
:102C8000F7E7002DA8BF641900234046237003B066
:102C9000BDE8F08F32780000307800007047FFFF09
:102CA00000F14040A0F592237C2B14D9A0F5942389
:102CB0007C2B12D9A0F596237C2B10D9A0F5982354
:102CC0007C2B06D9A0F59A207D28064828BF002035
:102CD00070470548704705487047054870470548E4
:102CE000704700BF48E7FF1F28E7FF1F70E6FF1F80
:102CF000A8E6FF1FF8E6FF1F212870B50D4636D85D
:102D0000042A34D8DFE802F00709050B03000B237F
:102D100006E00A2304E0082302E00C2300E0092374
:102D20001E04134B134A03EBC000134B4468C3F853
:102D3000E020124AC3F8E420114AC3F8E820114AFF
:102D4000C3F8EC202046104AC3F8F020FFF7A8FF94
:102D500068B172B6226822F470222260C4F3840340
:102D600042F08072164340F82350266062B670BD70
:102D70003478000011E6FF1F00E1FF1FE5E5FF1FAB
:102D8000B9E5FF1F8DE5FF1F61E5FF1F0C4B03EB4E
:102D9000C00010B544682046FFF782FF70B172B6DC
:102DA000236823F0877323F4803343F08073236018
:102DB000C4F38404034B40F8243062B610BD00BF56
:102DC000347800009D2C0000044B054900221A6055
:102DD0000A60044A106010221A60704714D0034041
:102DE00004D0034000D00340212810B518D80D4A64
:102DF00052F8303093F880423CB1012211B183F88F
:102E0000802010BD83F8002110BD02EBC000436894
:102E10001A6811B142F0030201E022F002021A60C6
:102E200010BD00BF34780000212806D8044B53F8A9
:102E3000303093F80002C0B270470020704700BFE6
:102E400034780000212810B537D81C4A02EBC003A3
:102E500001295B68144601D004290FD154F83020B1
:102E6000012082F880024FF4A2721A601A680429C5
:102E70000CBF42F0200222F020021DE052F8302068
:102E8000002082F8800211B18A1E012A12D84FF464
:102E9000807202291A6003D11A6842F003020BE023
:102EA00003290AD11A6842F002021A601A6822F055
:102EB000010201E040F203121A6010BD34780000F4
:102EC00072B60B4B0B491A680B4B1B68096862B64C
:102ED000490102D5322A88BF0133C2F53B42302175
:102EE0007F32B2FBF1F24FF47A7000FB032070479F
:102EF00018E000E004ED00E0F4E9FF1F38B50446F7
:102F0000FFF7DEFF054624B938BD013C0AD005F5C0
:102F10007A75FFF7D5FF401BB0F57A7FF5D200F048
:102F20005FFFF6E738BDFFFF1C4B4FF4807210B512
:102F30001A604FF400721A604FF480621A604FF406
:102F400000621A604FF480521A60154B154A164CF5
:102F500000204BF6FF7118605960282313609360BE
:102F60001361936113629362136393630922226076
:102F700004F58054043420600C4801600C490B6057
:102F80008B600C4B1A6000F04BFF4FF4C870FFF7DA
:102F9000B5FFBDE8104000F0D7BB00BF04E100E082
:102FA000048003400C8003400080034008900340ED
:102FB0000C90034000900340F0B50C4B0C4C1A7879
:102FC00042F0020504EBC50682F001027060094878
:102FD0001A700678002E0CBF8827C82786F00106D5
:102FE00047EA0141067044F83510F0BD60EAFF1F62
:102FF00000E0FF1FD8EAFF1F431E032B10B510D8B7
:1030000072B6094A52F8230048B1416842F82310C9
:10301000064A018832F81340611A22F8131062B68A
:1030200010BD002010BD00BF50EAFF1FBCECFF1F09
:10303000013803280AD872B6054B53F82030002017
:1030400013B101305B68FBE762B670470020704740
:10305000A4EAFF1F10B572B60123174A1A4412F8EA
:10306000012C12071CD59900144A52F831402CB992
:1030700002EB431308305860114B09E041F00101A5
:1030800052F8314064B902EBC103083058600D4B6F
:1030900042F831300C4B1A78013A1A7062B610BD02
:1030A0000133052BD9D162B6074B00221A70BDE857
:1030B000104000F0A5BB00BF7079000000E0FF1FCA
:1030C00088004000C8004000CEEAFF1F431E032BCB
:1030D00030B532D8194A400140F01000104472B6A1
:1030E000174CE25C032A09D8DFE802F01602180543
:1030F0000830022213E00830042210E01148124A7E
:1031000050F8234014B940F8231002E052F823008D
:10311000416042F823100FE0032200E00522E25450
:1031200010F0080F01F108030A8843600CBF8823E0
:10313000C82343EA0243036062B630BD00E0FF1FCC
:103140000CEAFF1FA4EAFF1FB4EAFF1F2DE9F84FA6
:10315000AB4F3C78E4B214F0040F3D4619D0A94BB4
:103160001B78A3B1A84A117801F0FF0321B1013BFC
:10317000DBB2137003B900BEA44A117801F0FF035B
:1031800029B1013BDBB213700BB900F065FC0423DD
:103190003B7004F0080303F0FF02002B00F067828D
:1031A0009B4B9C4C1A78D2B215094FEA920840F01A
:1031B000E48104EBC803596854F83830C3F383033F
:1031C000013B0C2B00F2D681DFE813F0950195014D
:1031D000D401D401D401D401D401D401B001D4016B
:1031E000D401D4010D008C4D0A684B688B486B608C
:1031F00001218B4B44F838302A60DFF8508201708F
:1032000092B240F2816000238242C8F8003023610C
:10321000A36117D8B2F5D06F80F01E81B2F5817F1F
:1032200000F0CF8006D8802A00F0BA80822A00F011
:10323000BB8031E140F202339A4200F0D180B2F516
:10324000A06F1CE042F22100824200F051810ED8B2
:10325000B2F5086F00F09E80B2F5106F40F01C814F
:10326000684B6C4EAA781A7006F180090AE042F2A7
:1032700021218A4200F0088142F221339A4200F073
:103280000F8109E1336A1B0603D5706A083800F024
:10329000B7FA08364E45F5D10026B146DFF8B0A1A1
:1032A00056F80A0028B1D0F804B000F0A9FA584640
:1032B000F8E74AF806005B4BDFF898A1F05056F8A3
:1032C0000A0028B1D0F804B000F09AFA5846F8E79E
:1032D000554B4AF80600F050544B23F81900544B54
:1032E00019F80320023A032A08D8DFE802F00204A2
:1032F0000204002200E0012203F8092009F101097B
:10330000B9F1040F06F10406C8D14A4B00221A7025
:1033100001269A46484A494B3244334412F8012C5C
:103320009B0012F0080F1A704FEA860925D000F0B2
:1033300049FA38B104EB461308305860404B44F862
:10334000393006E09AF8003044F8390001338AF841
:10335000003000F037FA49F0010338B104EBC30242
:10336000083050602E4A44F8332006E044F8330019
:103370009AF8003001338AF8003049F00202013631
:1033800049F003090023052E44F8323044F839305F
:10339000C0D186E01B4B2B4C1B7823700B4683E07F
:1033A000284C237063707EE0AA88042A74D8254CC8
:1033B000920023706370244B9B5C9E0773D5217031
:1033C00071E0AA8802F07F02042A65DC6B88002B7A
:1033D00062D191001C4A0A44117821F0020159E09F
:1033E000AA8802F07F02042A56DC6B88002B53D196
:1033F0009100154A0A44117841F002014AE000BFE9
:1034000080200740D7EAFF1F61EAFF1FD9EAFF1FAC
:103410009020074000E0FF1FC4EAFF1FD8EAFF1F0B
:10342000C8004000FCE9FF1FB4EAFF1FBCECFF1F0F
:103430000CEAFF1FCEEAFF1F7079000030C80110B0
:1034400088004000CFEAFF1FC0200740F8E9FF1FB7
:1034500050EAFF1FA4EAFF1F6A88A9889F4B53F810
:10346000084CA3F10C00BCB133F80C6C964209D1A6
:1034700033F80A6C8E4205D1120A032A0CBF237856
:10348000038911E00C33EAE7954A1168954A116007
:10349000A978954A117004E0944B0F221A7027E026
:1034A00000231C4600E00223EE88B34238BF1E46CC
:1034B000402E34BF3546402520462946FFF77CFD87
:1034C000761B2C4403D1402D12D1354603E0402E0B
:1034D00034BF3546402520462946FFF76DFD761B53
:1034E0002C4401D1402D03D1814AC8F800401680F8
:1034F0000122804B3DE0804B1A8842F221039A4220
:1035000010D100237D4AC85C98540133072BF9D1B0
:103510001368862B02D17A4B0F221A7000200146C5
:10352000FFF74AFD774B44F8383023E0764E356894
:10353000B5B1DFF8BC81B8F80090B9F1400F34BFE5
:103540004C46402428462146FFF736FDC4EB0903CC
:103550009BB2A8F800300BB9402C00D12B19336076
:10356000654B1A88B2F5A06F04D100225A709A7880
:10357000664B1A7001225F4B6CE004EBC806013DFC
:10358000736802F00802A3F10800EDB202F0FF0137
:10359000002A36D000F034F95D485E4B50F8252003
:1035A000EAB1516840F8251002F108017160595DD7
:1035B00003290BD8DFE801F002040608032104E028
:1035C000022102E0052100E00421595516F0080F00
:1035D00012880CBF8823C82343EA024342E05A5DA5
:1035E000032A07D8DFE802F040400204002206E088
:1035F000012204E016F0080F0CBF022203225A55E4
:1036000032E054F83820120C23F8082C22B3DFF8EB
:1036100034E123F8061C43F8041C5EF825303E49CB
:1036200013B94EF8250002E051F8253058603B4BA5
:1036300041F8250033F815100A4423F8152000F04E
:10364000C1F810B10830706006E0354B44F838001E
:103650001A7801321A7007E02A4B324A16F0080F26
:1036600008BF134644F8383008233B7070E5E00784
:103670001FD520492B482C4C02230B702B4B1A7062
:103680002B4B186098602B48D8601A619A615C6077
:10369000164B0D2018702848FF2303702B700274FE
:1036A000264A1370264B9F221A7001230B70BDE827
:1036B000F88F210604D50D4B0D221A7080232B7034
:1036C000A20705D51C4B1A78D2B21A7002232B70B0
:1036D000E30644BF10232B70BDE8F88F807900000B
:1036E000F4E9FF1FCCECFF1FE8EAFF1FC0200740F2
:1036F000CCEAFF1F94200740C4EAFF1FC4ECFF1F61
:1037000061EAFF1FC8004000F8E9FF1F982007404A
:10371000A4EAFF1F0CEAFF1FFCE9FF1FBCECFF1F20
:10372000CEEAFF1F8800400010EAFF1F60EAFF1F7B
:1037300000E0FF1F64EAFF1F882007408C2007403D
:103740008420074050EAFF1F08B501F01DFC00224D
:10375000184B0021D15098180832882A4160F7D1BF
:10376000154A106840F48020106002F52832683253
:10377000C3F307201070C3F307401B0E10751376B8
:10378000FF2302F81C3C02F8143C02F88C3C012395
:1037900002F8083C82F8641002F8183C074B7022CB
:1037A0001A70A3F21F3308221A60054B10221A70F8
:1037B00008BD00BF00E0FF1F3480044023E400E0A8
:1037C0000821074072B60C4A1168B1FA81F30B2B3D
:1037D00002D962B6002070474FF00040D84021EA7D
:1037E0000001116062B6054948225343C8180022FF
:1037F000CA504260704700BF50E7FF1F00E2FF1F42
:103800000C4B4822C31AB3FBF2F30B2B11D80A4A14
:10381000127822B1094A12780AB1FFF71BBC72B6BE
:10382000074A4FF0004121FA03F311681943116070
:1038300062B6704700E2FF1FCEEAFF1FD7EAFF1F04
:1038400050E7FF1F10B5104C23686BB12068428809
:10385000531C0244147A0288934212D3FFF7D0FF1C
:10386000094B00221A600DE0084B1B7813B94FF08A
:10387000FF3010BD0320FFF7BFFB20600028E5D11B
:10388000F5E74380204610BDE4EAFF1FD7EAFF1F9B
:1038900010B50B4C236813B123686BB902E0094BD8
:1038A0001B7813B94FF0FF3010BD0320FFF7A4FBC6
:1038B00020600028F0D1F5E75A881344187A10BD2B
:1038C000E4EAFF1FD7EAFF1F044B9888044B1B68EC
:1038D0001BB11A885B88D31A18447047BCECFF1FD1
:1038E000E4EAFF1F10B5094B1B786BB1084C206848
:1038F00018B1FFF785FF002323600320FFF77CFB4F
:1039000010B1FFF77DFFF8E710BD00BFD7EAFF1F3A
:10391000E4EAFF1F2DE9F8432D4E012307460C462C
:103920003370002C4FD02B4D2B68A9462BBB47F290
:103930000958294B1B7803F0FF020BB9327015E0D0
:103940000420FFF775FB072808D801233370FFF721
:1039500039FFC9F8000080B91D4B1870B8F1010893
:103960001E4B01D01A782AB101221A704FF0FF3095
:10397000BDE8F88300F034FADBE72968174A488885
:1039800000231370C0F14002944238BF224600F178
:10399000080C10448C444880A41A934204D0F85C6C
:1039A0000CF803000133F8E71F444B883F2B06D97E
:1039B00040230B800420FFF789FB00232B60084B7A
:1039C00005221A70ADE734702046BDE8F88300BFC9
:1039D000DAEAFF1FDCEAFF1FD7EAFF1FE0EAFF1F5A
:1039E000D9EAFF1F07B502AB012103F8010D184604
:1039F000FFF790FF03B05DF804FBFFFF2DE9F041F6
:103A0000114B1B78F3B1114E114B3468114D012746
:103A10001F7098464CB1002763882F7004202380C4
:103A20002146FFF753FB376009E0FFF7CBFE014665
:103A300020B104202C70FFF749FB00E02F70002319
:103A400088F80030BDE8F081D7EAFF1FDCEAFF1FED
:103A5000DAEAFF1FD9EAFF1F38B50E4B1B7803F0D7
:103A6000FF05ABB90C4C216831B14B880B800420A9
:103A7000FFF72CFB256038BDFFF7A4FE014620B1FF
:103A80000420BDE83840FFF721BB044B01221A7027
:103A900038BD00BFDAEAFF1FDCEAFF1FD9EAFF1FCB
:103AA00008B5FCF719FDFDF747FC00F099F9FAE7B6
:103AB000F8B506460C468F180025BC4207D033687F
:103AC00014F8011B1B68304698470544F5E7284663
:103AD000F8BD2DE9F04100258C688AB0074688467C
:103AE0002E4694B12B46404601A9212200F05FF9F1
:103AF0003B68202C34BF224620225B68384601A94F
:103B00001544A41A98470644EBE730460AB0BDE8CE
:103B1000F081FFFF07B5064B1B88ADF80430036842
:103B200001A95B680222984703B05DF804FB00BF5F
:103B30004479000070B505468AB022B90368C9B25D
:103B40001B6898472CE0012A08BF0A2221B93022BD
:103B50008DF82520212413E02124B1FBF2F002FB93
:103B60001011C9B209290AAE94BF30313731264449
:103B7000C9B206F8241C014610B1013CE4B2ECE7DE
:103B800033B1013CE4B20AAB23442D2203F8242CC8
:103B90002B6801A95B6828462144C4F1220298479A
:103BA0000AB070BD0029BABF49422D2300230A2262
:103BB000FFF7C0BFFFF788BEFFF744BEFFF768BE40
:103BC000FFF71CBFFFF78EBE0846FFF70BBF084686
:103BD0001146FFF79FBE7047044B00221A714FF445
:103BE0007A711A73024A99601A607047ECEAFF1FF3
:103BF0005079000010B50446006802F089FA2046AA
:103C000010BD38B504460D460068013102F020FBB6
:103C100010B184E82100012038BD43688B4210B503
:103C2000044606D2FFF7EDFF20B1A3680BB9226866
:103C30001370012010BDF8B504460F46154622B991
:103C4000036803B11A7000230BE01146FFF7E5FF8C
:103C5000064640B9206810B102F05AFA26600023E7
:103C60006360A36004E0A5602068394602F00AFBA7
:103C70002046F8BD81420B4603D009689A68FFF7D9
:103C8000DABF704710B500230446036043608360C9
:103C90000373FFF7EFFF204610BD38B505460C460D
:103CA00041B1084602F0F6FA214602462846FFF7DF
:103CB000C2FF00E0A960284638BD10B5002386B0D9
:103CC00004460360436083600373084601A9FEF75E
:103CD00049FF204601A9FFF7E0FF204606B010BDCE
:103CE00007B500238DF80410012201A98DF80530D5
:103CF000FFF7A1FF03B05DF804FB10B500230446F5
:103D00000360436083600373FFF7EAFF204610BD42
:103D10002DE9F84303688668994204460D469046AB
:103D200006D39A19914203D2C3EB0109012700E09F
:103D30000027B8F1000F16D0464420463146FFF761
:103D40006CFF80B1A068216847B1084442464944ED
:103D5000FEF758FD236800229A5503E008442946DF
:103D600002F090FAA6602046BDE8F8831FB504462D
:103D70000A22084601A9FEF7F5FE01A802F08AFA18
:103D800001A902462046FFF7C3FF204604B010BD3C
:103D900010B50B46044609689A68FFF7B9FF20463C
:103DA00010BD10B50446FFF7E1FF204610BD38B541
:103DB0000C469AB191B181688B4202D300232370E3
:103DC00038BDC91A551E8D4228BF0D4601682A46C6
:103DD0001944204602F066FA0023635538BDFFFF00
:103DE00010B50E4C2378BBB901232370FFF76CFD8F
:103DF00008B1FFF7F0FE00F0A3FA08B101F075F981
:103E000000F0A6FD08B101F0F8F900F0F1FF08B1EB
:103E100001F07BFA0023237010BD00BFFCEAFF1FF6
:103E20001B4B60221A70E1225A701A4B1A4A1978F9
:103E30001A4B082901D1012102E00A2903D13921B5
:103E40001160132205E00C290CBF35213D211160C2
:103E500012221A60124B1A78124B02B101221A6018
:103E6000114B1A78114B012A01D880220BE0042A49
:103E700001D8842207E0082A01D8852203E0102A0D
:103E800094BF862287221A60094B01221A7070475C
:103E90000040074054E7FF1F08B003400CB0034048
:103EA000FEEAFF1F20B0034055E7FF1F24B0034088
:103EB000FDEAFF1F234B1A6842F480621A60224A0F
:103EC00000231370214A1370214A1370214A137082
:103ED000214A1370214B1B782BB1152B07D140F2CF
:103EE00013321F4B02E01F4B40F213321A601E4B7D
:103EF0001B78012B05D0052B07D14FF451721B4BBA
:103F000002E01B4B4FF451721A601A4BC0F344325B
:103F10001A70C0F347125A7000F01F0004220221E9
:103F200098729A70D9745A7588221A743C22DA7081
:103F3000114B40221A70A3F544734FF480321A607B
:103F4000704700BF3480044087EBFF1F05EBFF1F65
:103F500090EBFF1F88EBFF1F04EBFF1F46EBFF1FDB
:103F600018C0044040A0044056E7FF1F1CC0044096
:103F700044A0044000A0064010E400E0134A9378F7
:103F800000F0030103F0EC030B43410748BF43F08B
:103F90001003937000F00F03042B0C4903D18B79AD
:103FA00043F040038B715379C20603F0EF03074AD5
:103FB00048BF43F0100353719379810603F0EF0378
:103FC00048BF43F010039371704700BF00A0064044
:103FD00008B5114B1B685B0500D408BD0F4B1A7860
:103FE00002F0FF0312B1FFF7FBFEF7E70C4A4FF4B4
:103FF000803111600B4A0C49D37040F203120A6001
:104000004A600A4A13700A4A13700A4B1B680BB1C4
:1040100001221A7008BD00BF3480044004EBFF1F6A
:1040200080E100E000A0064040A0044087EBFF1FB5
:1040300005EBFF1F00EBFF1F38B50446094B1B784B
:1040400003F0FF05002BF9D120460121FEF7FAFE0F
:1040500020462946FEF7C8FE034B53F83420034B95
:104060001A6038BD04EBFF1F347800008CEBFF1F93
:1040700010B509B140F08000144A137898421446F4
:1040800022D0134A126852051DD503F07F03012B7D
:1040900004D0052B05D100220E4B01E00E4B00226F
:1040A0001A60002900F07F020CBF44236023012A1C
:1040B00005D0052A07D143F44073064A02E0064AB8
:1040C00043F440731360207010BD00BF56E7FF1F1C
:1040D000348004401CC0044044A004400E4A1378BD
:1040E000984218D00D490968490513D52BB1152BF5
:1040F00005D10B4B0021196001E00A490B6028B182
:10410000152807D140F21331054B02E0054B40F270
:10411000133119601070704746EBFF1F3480044064
:1041200018C0044040A004400D4A38B5146814F487
:1041300080624FF0000410D021280A4D0AD80A4AA4
:10414000012152F830302B60FEF77CFE2B681C708A
:10415000012038BD2C60204638BD104638BD00BF58
:104160003480044000EBFF1F347800000E4B1B68C6
:1041700013F4806316D012280C4B03D140F20231A5
:104180000B4A04E0142809D10A4A40F202311160B6
:104190005A7B42F001025A73012070475A7B02F0A9
:1041A000FE025A73002070473480044000A006408D
:1041B0000CA0044014C00440F8B51D4B1B685A0500
:1041C000064633D51B4B1B680BB101221A701A4BE4
:1041D0001C780134402C1F4628BF0024174D2B7833
:1041E000A34218D1FEF782FC40280FDC144A137951
:1041F0001B06F3D52B7813490133402B28BF00232E
:10420000C95CDBB2C9B2D1712B70E7E7FF28E5DDED
:10421000FFF7E6FDE2E70B4BF6B21E550A4B012213
:104220001A70074BE4B2BC223C70DA70F8BD00BFD4
:10423000348004408CEBFF1F90EBFF1F88EBFF1FC7
:1042400000A0064006EBFF1F04EBFF1F274B1B6877
:104250005A052DE9F04707468A4644D5244B1B688A
:104260000BB101221A703D4607EB0A039D4237D27B
:10427000DFF890801F4E98F8004096F800900134C7
:10428000402C28BF00245FFA89F9A1451DD11A4BA3
:10429000BC22DA70FEF72AFC40280FDC164A13799C
:1042A0001B060FD5337815490133402B28BF002357
:1042B000C95CDBB2C9B2D171337003E0FF2801DD04
:1042C000FFF78EFD33784B45E4D00C4B15F8012BEE
:1042D0001A550B4B0122E4B21A7088F80040C3E76C
:1042E000054BBC22DA70BDE8F08700BF3480044083
:1042F0008CEBFF1F88EBFF1F00A0064006EBFF1FA3
:1043000004EBFF1F90EBFF1F08B5034B1B7813B1A5
:10431000FFF766FDF9E708BD04EBFF1F064A074BF0
:104320001B781078DBB2C0B283422CBF3F3000F163
:10433000FF30C01A704700BF88EBFF1F90EBFF1FD4
:10434000054B1878054B1B78C0B2DBB2984238BFDA
:104350004030C01A704700BF87EBFF1F05EBFF1FFF
:1043600010B5104B10491A780B78D2B2DBB29A42D2
:1043700014D00133402B28BF00230C48DCB2C05CB2
:104380000C700B490968C0B251B19A4238BF403233
:10439000D31A1A2B04DC00230B7010BD4FF0FF3032
:1043A00010BD00BF87EBFF1F05EBFF1F47EBFF1F93
:1043B00000EBFF1F084B1A78084B1B78DBB29A42C0
:1043C00007D00133402B28BF0023054AD05CC0B280
:1043D00070474FF0FF30704787EBFF1F05EBFF1F63
:1043E00047EBFF1F0C4B1B685B0514D50B4BDA78B2
:1043F00002F0CB02DA7040225A74DA7842F03402CA
:10440000DA70074B1A78074BD2B21A70064B1B684A
:104410000BB100221A7070473480044000A006409F
:1044200005EBFF1F87EBFF1F00EBFF1F30B5374B7E
:104430001A7912F0300F31D072B69A7D02F0FF0077
:1044400022B9DA7940225A7462B627E062B6304A5D
:10445000304913780978DBB2C9B214462B4AD579B2
:104460005A1C402A28BF00228A42EDB202D02A4BB1
:104470009D541346421E12F0FF00EFD1DAB22270B3
:10448000264A126852B18B4236BFC1F14001C1EBDE
:1044900003035B18272BC4BF012313701B4BD97870
:1044A000C9B20C0620D51B7918061DD51C4B1D4A18
:1044B0001D781378EDB2DBB21046AB420CD0134A34
:1044C0000133402B1479184C28BF0023E45CE4B27C
:1044D000D471127D072AF0D9DBB203700B4B1A7925
:1044E000120644BF7C22DA704B060ED5074B1A79B0
:1044F00012F0400F194608D00C4B00221A700C4BDA
:104500001B6803B11A703C23CB7030BD00A006407D
:1045100087EBFF1F05EBFF1F47EBFF1F00EBFF1FA4
:1045200090EBFF1F88EBFF1F06EBFF1F04EBFF1F45
:104530008CEBFF1F214B1A6842F400621A60204A7C
:10454000002313701F4A13701F4A13701F4A137001
:104550001F4A13701F4B1B78092B05D01A2B07D14C
:1045600040F213321C4B02E01C4B40F213321A6033
:104570001B4B1B780A2B05D01F2B07D14FF4517210
:10458000184B02E0184B4FF451721A60174BC0F3EE
:1045900044321A70C0F347125A7000F01F00002214
:1045A00098729A701A742C22DA70114B40221A7089
:1045B000A3F212334FF480221A6070473480044013
:1045C00002ECFF1F99EBFF1F08ECFF1F03ECFF1F1E
:1045D00098EBFF1F57E7FF1F04D004400CB00440C6
:1045E00058E7FF1F00D0044010B0044000B0064060
:1045F00012E400E0134A937800F0030103F0EC03A7
:104600000B43410748BF43F01003937000F00F03C2
:10461000042B0C4903D18B7943F040038B71537900
:10462000C20603F0EF03074A48BF43F0100353717B
:104630009379810603F0EF0348BF43F010039371B1
:10464000704700BF00B0064008B51E4B1B681B0535
:1046500000D408BD1C4B1B7803F0FF0213B1FFF719
:10466000BFFBF7E7194B4FF480211960184BDA7044
:10467000184B1B78092B05D01A2B07D140F20312D7
:10468000154B02E0154B40F203121A60144B1B78D5
:1046900003F07F030A2B05D01F2B07D140F2031232
:1046A000104B02E0104B40F203121A600F4A002335
:1046B00013700F4A13700F4B1B680BB101221A7055
:1046C00008BD00BF3480044098EBFF1F80E100E08C
:1046D00000B0064057E7FF1F04D004400CB0044070
:1046E00058E7FF1F00D0044010B0044002ECFF1F49
:1046F00099EBFF1F94EBFF1F38B50446094B1B785D
:1047000003F0FF05002BF9D120460121FEF79AFBAB
:1047100020462946FEF768FB034B53F83420034B31
:104720001A6038BD98EBFF1F3478000004ECFF1FBF
:1047300010B509B140F08000144A1378984214462D
:1047400022D0134A126812051DD503F07F030A2BED
:1047500004D01F2B05D100220E4B01E00E4B00228E
:104760001A60002900F07F020CBF442360230A2A4C
:1047700005D01F2A07D143F44073064A02E0064AD7
:1047800043F440731360207010BD00BF58E7FF1F53
:104790003480044000D0044010B004400F4A137825
:1047A00098421AD00E490968090515D5092B04D07D
:1047B0001A2B05D100210B4B01E00B4B0021196096
:1047C000092805D01A2807D140F21331054B02E021
:1047D000054B40F2133119601070704757E7FF1F07
:1047E0003480044004D004400CB004400D4A38B575
:1047F000146814F400624FF0000410D021280A4D10
:104800000AD80A4A012152F830302B60FEF71AFB11
:104810002B681C70012038BD2C60204638BD104626
:1048200038BD00BF3480044094EBFF1F3478000093
:104830000B4B1B6813F4006310D01728094B09D1E8
:10484000094A40F2023111605A7B42F001025A7368
:10485000012070475A7B02F0FE025A730020704715
:104860003480044000B0064008B00440F8B51D4B49
:104870001B681A05064633D51B4B1B680BB101227A
:104880001A701A4B1C780134282C1F4628BF0024AC
:10489000174D2B78A34218D1FEF728F940280FDCDA
:1048A000144A13791B06F3D52B7813490133282BAF
:1048B00028BF0023C95CDBB2C9B2D1712B70E7E716
:1048C000FF28E5DDFFF78CFAE2E70B4BF6B21E5549
:1048D0000A4B01221A70074BE4B2AC223C70DA702A
:1048E000F8BD00BF3480044004ECFF1F08ECFF1F3C
:1048F00003ECFF1F00B006409AEBFF1F98EBFF1F71
:1049000038B504464518AC4204D014F8010BFFF743
:10491000ADFFF8E738BDFFFF08B5034B1B7813B1B7
:10492000FFF75EFAF9E708BD98EBFF1F064A074B51
:104930001B781078DBB2C0B283422CBF273000F165
:10494000FF30C01A704700BF03ECFF1F08ECFF1FC9
:10495000054B1878054B1B78C0B2DBB2984238BFC4
:104960004030C01A704700BF02ECFF1F99EBFF1FD9
:1049700010B5104B10491A780B78D2B2DBB29A42BC
:1049800014D00133402B28BF00230C48DCB2C05C9C
:104990000C700B490968C0B251B19A4238BF40321D
:1049A000D31A1A2B04DC00230B7010BD4FF0FF301C
:1049B00010BD00BF02ECFF1F99EBFF1FC2EBFF1FF2
:1049C00094EBFF1F084B1A78084B1B78DBB29A4216
:1049D00007D00133402B28BF0023054AD05CC0B26A
:1049E00070474FF0FF30704702ECFF1F99EBFF1F3D
:1049F000C2EBFF1F054B1A78054BD2B21A70054B5C
:104A00001B680BB100221A70704700BF99EBFF1FA3
:104A100002ECFF1F94EBFF1F10B5214B1A79920691
:104A20000FD5204AD87913781F490133402B0978D4
:104A300028BF00238B42C0B203D01C49C854DBB24C
:104A40001370174AD178C9B20C0616D51379180617
:104A500013D5174B17481C780378DBB29C4202D160
:104A60006C23D37009E00133282B28BF0023124C9C
:104A7000E45CDBB2E4B2D47103704B060ED5084B94
:104A80001A7912F0400F194608D00C4B00221A7008
:104A90000B4B1B6803B11A702C23CB7010BD00BFE9
:104AA00000B0064002ECFF1F99EBFF1FC2EBFF1F97
:104AB00008ECFF1F03ECFF1F9AEBFF1F98EBFF1F93
:104AC00004ECFF1F164B1A6842F480521A60154A14
:104AD00000231370144A1370144A1370144A13708D
:104AE000144A1370144A40F2133111604FF451719B
:104AF0005160124AC0F344311170C0F3471100F005
:104B00001F0051709072937013742C23D3700C4B50
:104B100040221A70A3F545734FF480121A60704753
:104B2000348004407AECFF1F11ECFF1F80ECFF1F64
:104B30007BECFF1F10ECFF1F08C0044000C00640C4
:104B400014E400E0134A937800F0030103F0EC034F
:104B50000B43410748BF43F01003937000F00F036D
:104B6000042B0C4903D18B7943F040038B715379AB
:104B7000C20603F0EF03074A48BF43F01003537126
:104B80009379810603F0EF0348BF43F0100393715C
:104B9000704700BF00C0064008B5114B1B68DB041E
:104BA00000D408BD0F4B1A7802F0FF0312B1FFF7D3
:104BB00017F9F7E70C4A4FF4801111600B4A0C49C2
:104BC000D37040F203120A604A600A4A13700A4A1C
:104BD00013700A4B1B680BB101221A7008BD00BF8D
:104BE0003480044010ECFF1F80E100E000C006406C
:104BF00008C004407AECFF1F11ECFF1F0CECFF1FF4
:104C000038B50446094B1B7803F0FF05002BF9D19A
:104C100020460121FEF716F920462946FEF7E4F862
:104C2000034B53F83420034B1A6038BD10ECFF1FC0
:104C3000347800007CECFF1F10B509B140F0800013
:104C40000E4A1378984217D00D4C2468E40412D50C
:104C500003F07F03082B02D10A4B00241C600029BB
:104C600000F07F030CBF44216021082B03D1054BCA
:104C700041F440711960107010BD00BF59E7FF1F6B
:104C8000348004400CC004407047FFFF0D4A38B523
:104C9000146814F480524FF0000410D021280A4DFB
:104CA0000AD80A4A012152F830302B60FEF7CAF8C0
:104CB0002B681C70012038BD2C60204638BD104682
:104CC00038BD00BF348004400CECFF1F3478000076
:104CD0000B4B1B6813F4805310D00E28094B09D1DD
:104CE000094A40F2023111605A7B42F001025A73C4
:104CF000012070475A7B02F0FE025A730020704771
:104D00003480044000C0064004C00440F8B51D4B88
:104D10001B68DA04064633D51B4B1B680BB1012216
:104D20001A701A4B1C780134282C1F4628BF002407
:104D3000174D2B78A34218D1FDF7D8FE40280FDC81
:104D4000144A13791B06F3D52B7813490133282B0A
:104D500028BF0023C95CDBB2C9B2D1712B70E7E771
:104D6000FF28E5DDFFF73CF8E2E70B4BF6B21E55F6
:104D70000A4B01221A70074BE4B2AC223C70DA7085
:104D8000F8BD00BF348004407CECFF1F80ECFF1FA7
:104D90007BECFF1F00C0064012ECFF1F10ECFF1F52
:104DA00038B504464518AC4204D014F8010BFFF79F
:104DB000ADFFF8E738BDFFFF08B5034B1B7813B113
:104DC000FFF70EF8F9E708BD10ECFF1F064A074B86
:104DD0001B781078DBB2C0B283422CBF273000F1C1
:104DE000FF30C01A704700BF7BECFF1F80ECFF1F35
:104DF000054B1878054B1B78C0B2DBB2984238BF20
:104E00004030C01A704700BF7AECFF1F11ECFF1F43
:104E100010B5104B10491A780B78D2B2DBB29A4217
:104E200014D00133402B28BF00230C48DCB2C05CF7
:104E30000C700B490968C0B251B19A4238BF403278
:104E4000D31A1A2B04DC00230B7010BD4FF0FF3077
:104E500010BD00BF7AECFF1F11ECFF1F3AECFF1FE3
:104E60000CECFF1F084B1A78084B1B78DBB29A42F8
:104E700007D00133402B28BF0023054AD05CC0B2C5
:104E800070474FF0FF3070477AECFF1F11ECFF1FA7
:104E90003AECFF1F054B1A78054BD2B21A70054B3E
:104EA0001B680BB100221A70704700BF11ECFF1F86
:104EB0007AECFF1F0CECFF1F10B5294B1A799206F4
:104EC00020D5284AD879137827490133402B09780F
:104ED00028BF00238B42C0B203D02449C854D9B2A2
:104EE0001170234A116869B1224A1278D2B29342F2
:104EF00036BFC2F14002C2EB03039B18272BC4BF8D
:104F000001230B70164AD178C9B20C0616D5137955
:104F1000180613D5184B17481C780378DBB29C424F
:104F200002D16C23D37009E00133282B28BF002362
:104F3000124CE45CDBB2E4B2D47103704B060ED5C4
:104F4000074B1A7912F0400F194608D00C4B00227B
:104F50001A700C4B1B6803B11A702C23CB7010BD58
:104F600000C006407AECFF1F11ECFF1F3AECFF1F58
:104F70000CECFF1F7BECFF1F80ECFF1F12ECFF1FF0
:104F800010ECFF1F7CECFF1F1FB572B6154B702293
:104F90001A70154A412111700F2102F8011C80225C
:104FA0001A701A781206FCD5104B186862B6104BAE
:104FB000984298BF0A2301AC98BF584321460A2261
:104FC000FDF7B2FD0023E15C0A4A29B102EB430080
:104FD00001330A2B4180F6D101335B00137004B01A
:104FE00010BD00BF00000240070002400800024060
:104FF0007F969800E2E7FF1F08B50368C9B21B68F7
:10500000984708BD08B50368C9B21B68984708BD32
:1050100008B50368C9B21B68984708BD08B503689E
:10502000C9B21B68984708BD4B0803F1B76000F58B
:105030005840B0FBF1F0FEF73DBF10B54B0803F14F
:10504000B76000F558401446B0FBF1F0FEF732FFB0
:105050002046BDE81040FEF791BFFEF7B9BF0846F5
:10506000FEF7EABF0846FFF739B808461146FEF7D3
:10507000FFBF08B50846FFF757F8003018BF0120FA
:1050800008BD08B50846FFF771F8003018BF0120C9
:1050900008BDFFF755B9FFF78DB9FFF761B9FFF705
:1050A00033B9FFF79FB9FFF739B908B50846FFF7DD
:1050B00083F8012008BD08B50846FFF77DF80120F8
:1050C00008BD10B5084614461146FFF7BFF8204644
:1050D00010BD38B508460D4601F0DCF804462146FF
:1050E0002846FFF7B3F8204638BD7047044B00222E
:1050F0001A714FF47A711A73024A99601A607047F4
:1051000084ECFF1FD079000008B50368C9B21B68A2
:10511000984708BD08B50368C9B21B68984708BD21
:1051200008B50368C9B21B68984708BD08B503688D
:10513000C9B21B68984708BD4B0803F1B76000F57A
:105140005840B0FBF1F0FFF7F5B910B54B0803F18B
:10515000B76000F558401446B0FBF1F0FFF7EAF9EC
:105160002046BDE81040FFF745BAFFF76DBA084684
:10517000FFF7C2BA0846FFF711BB08461146FFF712
:10518000D7BA08B50846FFF731FB003018BF012039
:1051900008BD08B50846FFF74BFB003018BF0120DB
:1051A00008BDFFF7D5BBFFF70DBCFFF7E1BBFFF76D
:1051B000B3BBFFF71FBCFFF7B9BB08B50846FFF745
:1051C00055FB012008BD08B50846FFF74FFB01203D
:1051D00008BD10B5084614461146FFF791FB20465E
:1051E00010BD38B508460D4601F054F80446214676
:1051F0002846FFF785FB204638BD7047044B002248
:105200001A714FF47A711A73024A99601A607047E2
:1052100094ECFF1F307A000008B50368C9B21B6820
:10522000984708BD08B50368C9B21B68984708BD10
:1052300008B50368C9B21B68984708BD08B503687C
:10524000C9B21B68984708BD4B0803F1B76000F569
:105250005840B0FBF1F0FFF735BC10B54B0803F137
:10526000B76000F558401446B0FBF1F0FFF72AFC98
:105270002046BDE81040FFF765BCFFF78DBC08462F
:10528000FFF7BEBC0846FFF7FFBC08461146FFF714
:10529000D3BC08B50846FFF7F9FC003018BF012061
:1052A00008BD08B50846FFF713FD003018BF012000
:1052B00008BDFFF79DBDFFF7D5BDFFF7A9BDFFF7FF
:1052C0007BBDFFF7E7BDFFF781BD08B50846FFF7D7
:1052D0001DFD012008BD08B50846FFF717FD012098
:1052E00008BD10B5084614461146FFF759FD204683
:1052F00010BD38B508460D4600F0CCFF04462146E7
:105300002846FFF74DFD204638BD7047044B00226C
:105310001A714FF47A711A73024A99601A607047D1
:10532000A4ECFF1F907A000081F0004102E000BF72
:1053300083F0004330B54FEA41044FEA430594EA55
:10534000050F08BF90EA020F1FBF54EA000C55EA90
:10535000020C7FEA645C7FEA655C00F0E2804FEA61
:105360005454D4EB5555B8BF6D420CDD2C4480EA43
:10537000020281EA030382EA000083EA010180EA73
:10538000020281EA0303362D88BF30BD11F0004FC1
:105390004FEA01314FF4801C4CEA113102D04042F7
:1053A00061EB410113F0004F4FEA03334CEA133332
:1053B00002D0524263EB430394EA050F00F0A7804A
:1053C000A4F10104D5F1200E0DDB02FA0EFC22FA45
:1053D00005F2801841F1000103FA0EF2801843FA39
:1053E00005F359410EE0A5F120050EF1200E012A2A
:1053F00003FA0EFC28BF4CF0020C43FA05F3C01868
:1054000051EBE37101F0004507D54FF0000EDCF1E0
:10541000000C7EEB00006EEB0101B1F5801F1BD389
:10542000B1F5001F0CD349085FEA30004FEA3C0C8D
:1054300004F101044FEA445212F5800F80F09A8083
:10544000BCF1004F08BF5FEA500C50F1000041EB87
:10545000045141EA050130BD5FEA4C0C404141EB8B
:10546000010111F4801FA4F10104E9D191F0000FB2
:1054700004BF01460020B1FA81F308BF2033A3F135
:105480000B03B3F120020CDA0C3208DD02F1140C2C
:10549000C2F10C0201FA0CF021FA02F10CE002F167
:1054A0001402D8BFC2F1200C01FA02F120FA0CFC60
:1054B000DCBF41EA0C019040E41AA2BF01EB0451A9
:1054C000294330BD6FEA04041F3C1CDA0C340EDCA7
:1054D00004F11404C4F1200220FA04F001FA02F3EA
:1054E00040EA030021FA04F345EA030130BDC4F1A8
:1054F0000C04C4F1200220FA02F001FA04F340EA9D
:105500000300294630BD21FA04F0294630BD94F04D
:10551000000F83F4801306BF81F480110134013D34
:105520004EE77FEA645C18BF7FEA655C29D094EAA5
:10553000050F08BF90EA020F05D054EA000C04BF23
:105540001946104630BD91EA030F1EBF002100200E
:1055500030BD5FEA545C05D14000494128BF41F0AD
:10556000004130BD14F580043CBF01F5801130BD11
:1055700001F0004545F0FE4141F470014FF000009C
:1055800030BD7FEA645C1ABF194610467FEA655C4D
:105590001CBF0B46024650EA013406BF52EA0335EF
:1055A00091EA030F41F4002130BD00BF90F0000FDD
:1055B00004BF0021704730B54FF4806404F1320419
:1055C0004FF000054FF0000150E700BF90F0000FD2
:1055D00004BF0021704730B54FF4806404F13204F9
:1055E00010F0004548BF40424FF000013EE700BFC9
:1055F00042004FEAE2014FEA31014FEA02701FBF59
:1056000012F07F4393F07F4F81F06051704792F02A
:10561000000F14BF93F07F4F704730B54FF46074A4
:1056200001F0004521F0004120E700BF50EA0102EF
:1056300008BF704730B54FF000050AE050EA01029C
:1056400008BF704730B511F0004502D5404261EB0C
:1056500041014FF4806404F132045FEA915C3FF44D
:10566000DCAE4FF003025FEADC0C18BF03325FEAE6
:10567000DC0C18BF033202EBDC02C2F1200300FA9B
:1056800003FC20FA02F001FA03FE40EA0E0021FAC0
:1056900002F11444C1E600BF70B54FF0FF0C4CF4AA
:1056A000E06C1CEA11541DBF1CEA135594EA0C0F60
:1056B00095EA0C0F00F0DEF82C4481EA030621EA9B
:1056C0004C5123EA4C5350EA013518BF52EA0335D6
:1056D00041F4801143F4801338D0A0FB02CE4FF088
:1056E0000005E1FB02E506F00042E0FB03E54FF0B8
:1056F0000006E1FB03569CF0000F18BF4EF0010EB0
:10570000A4F1FF04B6F5007F64F5407404D25FEAAB
:105710004E0E6D4146EB060642EAC62141EA55515E
:105720004FEAC52040EA5E504FEACE2EB4F1FD0CA0
:1057300088BFBCF5E06F1ED8BEF1004F08BF5FEA1E
:10574000500E50F1000041EB045170BD06F00046D0
:1057500046EA010140EA020081EA0301B4EB5C047D
:10576000C2BFD4EB0C0541EA045170BD41F4801175
:105770004FF0000E013C00F3AB8014F1360FDEBF9A
:10578000002001F0004170BDC4F10004203C35DA76
:105790000C341BDC04F11404C4F1200500FA05F3F9
:1057A00020FA04F001FA05F240EA020001F000429A
:1057B00021F0004110EBD37021FA04F642EB060110
:1057C0005EEA430E08BF20EAD37070BDC4F10C043A
:1057D000C4F1200500FA04F320FA05F001FA04F2FE
:1057E00040EA020001F0004110EBD37041F10001EA
:1057F0005EEA430E08BF20EAD37070BDC4F12005F5
:1058000000FA05F24EEA020E20FA04F301FA05F25C
:1058100043EA020321FA04F001F0004121FA04F204
:1058200020EA020000EBD3705EEA430E08BF20EAD4
:10583000D37070BD94F0000F0FD101F0004640000E
:1058400041EB010111F4801F08BF013CF7D041EA90
:10585000060195F0000F18BF704703F00046520094
:1058600043EB030313F4801F08BF013DF7D043EA65
:105870000603704794EA0C0F0CEA135518BF95EA1B
:105880000C0F0CD050EA410618BF52EA4306D1D1A2
:1058900081EA030101F000414FF0000070BD50EAC1
:1058A000410606BF1046194652EA430619D094EA4B
:1058B0000C0F02D150EA013613D195EA0C0F05D135
:1058C00052EA03361CBF104619460AD181EA030189
:1058D00001F0004141F0FE4141F470014FF0000041
:1058E00070BD41F0FE4141F4780170BD70B54FF0DC
:1058F000FF0C4CF4E06C1CEA11541DBF1CEA13555C
:1059000094EA0C0F95EA0C0F00F0A7F8A4EB05043D
:1059100081EA030E52EA03354FEA013100F0888034
:105920004FEA03334FF0805545EA131343EA1263FD
:105930004FEA022245EA111545EA10654FEA0026B2
:105940000EF000419D4208BF964244F1FD0404F56B
:10595000407402D25B084FEA3202B61A65EB0305C7
:105960005B084FEA32024FF480104FF4002CB6EB84
:10597000020E75EB030E22BFB61A754640EA0C0004
:105980005B084FEA3202B6EB020E75EB030E22BF44
:10599000B61A754640EA5C005B084FEA3202B6EB85
:1059A000020E75EB030E22BFB61A754640EA9C0044
:1059B0005B084FEA3202B6EB020E75EB030E22BF14
:1059C000B61A754640EADC0055EA060E18D04FEAD2
:1059D000051545EA16754FEA06164FEAC30343EA72
:1059E00052734FEAC2025FEA1C1CC0D111F4801F3F
:1059F0000BD141EA00014FF000004FF0004CB6E738
:105A000011F4801F04BF01430020B4F1FD0C88BFD6
:105A1000BCF5E06F3FF6AFAEB5EB030C04BFB6EBE1
:105A2000020C5FEA500C50F1000041EB045170BDD4
:105A30000EF0004E4EEA113114EB5C04C2BFD4EB01
:105A40000C0541EA045170BD41F480114FF0000E85
:105A5000013C90E645EA060E8DE60CEA135594EA01
:105A60000C0F08BF95EA0C0F3FF43BAF94EA0C0F04
:105A70000AD150EA01347FF434AF95EA0C0F7FF479
:105A800025AF104619462CE795EA0C0F06D152EACD
:105A900003353FF4FDAE1046194622E750EA4106B1
:105AA00018BF52EA43067FF4C5AE50EA41047FF4C2
:105AB0000DAF52EA43057FF4EBAE12E74FF0FF3C27
:105AC00006E000BF4FF0010C02E000BF4FF0010CF8
:105AD0004DF804CD4FEA410C7FEA6C5C4FEA430C71
